{
  "address": "0xA231b97fcF845cB755E782695b6BD0E12a0b9Ec0",
  "abi": [
    {
      "inputs": [
        {
          "internalType": "contract IChipRegistry",
          "name": "_chipRegistry",
          "type": "address"
        },
        {
          "internalType": "contract IDeveloperRegistrar",
          "name": "_developerRegistrar",
          "type": "address"
        },
        {
          "internalType": "contract IERS",
          "name": "_ers",
          "type": "address"
        },
        {
          "internalType": "contract IManufacturerRegistry",
          "name": "_manufacturerRegistry",
          "type": "address"
        },
        {
          "internalType": "contract ITransferPolicy",
          "name": "_transferPolicy",
          "type": "address"
        },
        {
          "internalType": "uint256",
          "name": "_maxBlockWindow",
          "type": "uint256"
        }
      ],
      "stateMutability": "nonpayable",
      "type": "constructor"
    },
    {
      "anonymous": false,
      "inputs": [
        {
          "indexed": false,
          "internalType": "uint256",
          "name": "maxBlockWindow",
          "type": "uint256"
        }
      ],
      "name": "NewMaxBlockWindowSet",
      "type": "event"
    },
    {
      "anonymous": false,
      "inputs": [
        {
          "indexed": true,
          "internalType": "contract ITransferPolicy",
          "name": "transferPolicy",
          "type": "address"
        }
      ],
      "name": "NewTransferPolicySet",
      "type": "event"
    },
    {
      "anonymous": false,
      "inputs": [
        {
          "indexed": true,
          "internalType": "address",
          "name": "previousOwner",
          "type": "address"
        },
        {
          "indexed": true,
          "internalType": "address",
          "name": "newOwner",
          "type": "address"
        }
      ],
      "name": "OwnershipTransferred",
      "type": "event"
    },
    {
      "anonymous": false,
      "inputs": [
        {
          "indexed": true,
          "internalType": "address",
          "name": "projectRegistrar",
          "type": "address"
        },
        {
          "indexed": true,
          "internalType": "address",
          "name": "owner",
          "type": "address"
        }
      ],
      "name": "ProjectRegistrarDeployed",
      "type": "event"
    },
    {
      "inputs": [
        {
          "internalType": "address",
          "name": "_projectManager",
          "type": "address"
        },
        {
          "internalType": "string",
          "name": "_projectClaimDataUri",
          "type": "string"
        },
        {
          "internalType": "bytes32",
          "name": "_nameHash",
          "type": "bytes32"
        },
        {
          "internalType": "bytes32",
          "name": "_merkleRoot",
          "type": "bytes32"
        },
        {
          "internalType": "address",
          "name": "_projectPublicKey",
          "type": "address"
        },
        {
          "internalType": "address",
          "name": "_provingChip",
          "type": "address"
        },
        {
          "components": [
            {
              "internalType": "uint256",
              "name": "developerIndex",
              "type": "uint256"
            },
            {
              "internalType": "bytes32",
              "name": "serviceId",
              "type": "bytes32"
            },
            {
              "internalType": "uint256",
              "name": "lockinPeriod",
              "type": "uint256"
            },
            {
              "internalType": "string",
              "name": "tokenUri",
              "type": "string"
            },
            {
              "internalType": "bytes32[]",
              "name": "developerProof",
              "type": "bytes32[]"
            }
          ],
          "internalType": "struct IChipRegistry.DeveloperMerkleInfo",
          "name": "_developerMerkleInfo",
          "type": "tuple"
        },
        {
          "components": [
            {
              "internalType": "bytes32",
              "name": "enrollmentId",
              "type": "bytes32"
            },
            {
              "internalType": "uint256",
              "name": "mIndex",
              "type": "uint256"
            },
            {
              "internalType": "bytes32[]",
              "name": "manufacturerProof",
              "type": "bytes32[]"
            }
          ],
          "internalType": "struct IChipRegistry.ManufacturerValidation",
          "name": "_manufacturerValidation",
          "type": "tuple"
        },
        {
          "internalType": "bytes",
          "name": "_chipOwnershipProof",
          "type": "bytes"
        },
        {
          "internalType": "bytes",
          "name": "_projectOwnershipProof",
          "type": "bytes"
        }
      ],
      "name": "addProject",
      "outputs": [],
      "stateMutability": "nonpayable",
      "type": "function"
    },
    {
      "inputs": [],
      "name": "chipRegistry",
      "outputs": [
        {
          "internalType": "contract IChipRegistry",
          "name": "",
          "type": "address"
        }
      ],
      "stateMutability": "view",
      "type": "function"
    },
    {
      "inputs": [],
      "name": "developerRegistrar",
      "outputs": [
        {
          "internalType": "contract IDeveloperRegistrar",
          "name": "",
          "type": "address"
        }
      ],
      "stateMutability": "view",
      "type": "function"
    },
    {
      "inputs": [],
      "name": "ers",
      "outputs": [
        {
          "internalType": "contract IERS",
          "name": "",
          "type": "address"
        }
      ],
      "stateMutability": "view",
      "type": "function"
    },
    {
      "inputs": [],
      "name": "manufacturerRegistry",
      "outputs": [
        {
          "internalType": "contract IManufacturerRegistry",
          "name": "",
          "type": "address"
        }
      ],
      "stateMutability": "view",
      "type": "function"
    },
    {
      "inputs": [],
      "name": "maxBlockWindow",
      "outputs": [
        {
          "internalType": "uint256",
          "name": "",
          "type": "uint256"
        }
      ],
      "stateMutability": "view",
      "type": "function"
    },
    {
      "inputs": [],
      "name": "owner",
      "outputs": [
        {
          "internalType": "address",
          "name": "",
          "type": "address"
        }
      ],
      "stateMutability": "view",
      "type": "function"
    },
    {
      "inputs": [],
      "name": "renounceOwnership",
      "outputs": [],
      "stateMutability": "nonpayable",
      "type": "function"
    },
    {
      "inputs": [
        {
          "internalType": "uint256",
          "name": "_maxBlockWindow",
          "type": "uint256"
        }
      ],
      "name": "setMaxBlockWindow",
      "outputs": [],
      "stateMutability": "nonpayable",
      "type": "function"
    },
    {
      "inputs": [
        {
          "internalType": "contract ITransferPolicy",
          "name": "_transferPolicy",
          "type": "address"
        }
      ],
      "name": "setTransferPolicy",
      "outputs": [],
      "stateMutability": "nonpayable",
      "type": "function"
    },
    {
      "inputs": [
        {
          "internalType": "address",
          "name": "newOwner",
          "type": "address"
        }
      ],
      "name": "transferOwnership",
      "outputs": [],
      "stateMutability": "nonpayable",
      "type": "function"
    },
    {
      "inputs": [],
      "name": "transferPolicy",
      "outputs": [
        {
          "internalType": "contract ITransferPolicy",
          "name": "",
          "type": "address"
        }
      ],
      "stateMutability": "view",
      "type": "function"
    }
  ],
  "transactionHash": "0x14e2a031577eae139386b0346adbd0f5b9ac5eba5cb048bb9adadc8e7ee03eff",
  "args": [
    "0xf4276dAdd4d6CA059d9B5443B6Da34C4906FaA33",
    "0x6203f9A20907CF73834943AF75C93f4D4fc3d205",
    "0x82eD77dE858CC867E26844A6D04A8027D68a6E94",
    "0xCc5F5e32dfDC72025663b3e682FF811B0314F55a",
    "0x57e3cDeF93A058772CEe1f0Df3D434e405168eA9",
    "100"
  ],
  "numDeployments": 1,
  "solcInputHash": "5fcfa18e4a4c3d18ea9c3144e86bb365",
  "bytecode": "0x6101006040523480156200001257600080fd5b5060405162002a0138038062002a018339810160408190526200003591620000e3565b62000040336200007a565b600180546001600160a01b0319166001600160a01b0393841617905594811660805292831660a052821660e0521660c0526002556200016b565b600080546001600160a01b038381166001600160a01b0319831681178455604051919092169283917f8be0079c531659141344cd1fd0a4f28419497f9722a3daafe3b4186f6b6457e09190a35050565b6001600160a01b0381168114620000e057600080fd5b50565b60008060008060008060c08789031215620000fd57600080fd5b86516200010a81620000ca565b60208801519096506200011d81620000ca565b60408801519095506200013081620000ca565b60608801519094506200014381620000ca565b60808801519093506200015681620000ca565b8092505060a087015190509295509295509295565b60805160a05160c05160e05161283a620001c76000396000818160ce01526106490152600081816101b9015261075b0152600081816101f30152818161077c015261081b015260008181610113015261073a015261283a6000f3fe60806040523480156200001157600080fd5b5060043610620000c35760003560e01c806370f2b25a116200007a57806370f2b25a1462000192578063715018a614620001a95780637ac9d73814620001b35780638da5cb5b14620001db5780639ae3774a14620001ed578063f2fde38b146200021557600080fd5b80630fd6061214620000c857806311e6575b146200010d5780633f60d2c2146200013557806345cceb2a146200014e5780635218574c14620001655780635c101e66146200017e575b600080fd5b620000f07f000000000000000000000000000000000000000000000000000000000000000081565b6040516001600160a01b0390911681526020015b60405180910390f35b620000f07f000000000000000000000000000000000000000000000000000000000000000081565b6200014c6200014636600462000e14565b6200022c565b005b6200014c6200015f366004620010c2565b62000280565b6200016f60025481565b60405190815260200162000104565b600154620000f0906001600160a01b031681565b6200014c620001a3366004620011f1565b6200036a565b6200014c620003af565b620000f07f000000000000000000000000000000000000000000000000000000000000000081565b6000546001600160a01b0316620000f0565b620000f07f000000000000000000000000000000000000000000000000000000000000000081565b6200014c6200022636600462000e14565b620003c7565b6200023662000446565b600180546001600160a01b0319166001600160a01b0383169081179091556040517fd6a0936c2479c09d562d76c52bed0fecd4f4b7be05923d92d4f9bba510cfea6f90600090a250565b6001600160a01b038a16620002dc5760405162461bcd60e51b815260206004820152601f60248201527f496e76616c69642070726f6a656374206d616e6167657220616464726573730060448201526064015b60405180910390fd5b6001600160a01b0386166200033f5760405162461bcd60e51b815260206004820152602260248201527f496e76616c69642070726f6a656374207075626c6963206b6579206164647265604482015261737360f01b6064820152608401620002d3565b6200034e8583898787620004a2565b6200035e8a888a89858e62000734565b50505050505050505050565b6200037462000446565b60028190556040518181527f8c9c6f3dfbc1f462e63a252aef12c012b825f567a6d53bef96762faef878bc6a9060200160405180910390a150565b620003b962000446565b620003c56000620008d3565b565b620003d162000446565b6001600160a01b038116620004385760405162461bcd60e51b815260206004820152602660248201527f4f776e61626c653a206e6577206f776e657220697320746865207a65726f206160448201526564647265737360d01b6064820152608401620002d3565b6200044381620008d3565b50565b6000546001600160a01b03163314620003c55760405162461bcd60e51b815260206004820181905260248201527f4f776e61626c653a2063616c6c6572206973206e6f7420746865206f776e65726044820152606401620002d3565b6000620004ec4633604051602001620004d792919091825260601b6bffffffffffffffffffffffff1916602082015260340190565b60405160208183030381529060405262000923565b9050620005046001600160a01b038716828762000962565b620005525760405162461bcd60e51b815260206004820152601c60248201527f496e76616c69642063686970206f776e6572736869702070726f6f66000000006044820152606401620002d3565b6000836000015187846000015186604001518760200151886060015160405160200162000585969594939291906200125f565b60408051601f1981840301815282825280516020918201209083015201604051602081830303815290604052805190602001209050620005cb84608001518683620009cc565b620006235760405162461bcd60e51b815260206004820152602160248201527f496e76616c69642063686970207472656520696e636c7573696f6e2070726f6f6044820152603360f91b6064820152608401620002d3565b82516020840151604080860151905163185b9eb960e11b81526000936001600160a01b037f000000000000000000000000000000000000000000000000000000000000000016936330b73d729362000681938e9190600401620012a6565b602060405180830381865afa1580156200069f573d6000803e3d6000fd5b505050506040513d601f19601f82011682018060405250810190620006c591906200130c565b9050806200072a5760405162461bcd60e51b815260206004820152602b60248201527f43686970206e6f7420656e726f6c6c65642077697468204d616e75666163747560448201526a726572526567697374727960a81b6064820152608401620002d3565b5050505050505050565b600085877f00000000000000000000000000000000000000000000000000000000000000007f00000000000000000000000000000000000000000000000000000000000000007f0000000000000000000000000000000000000000000000000000000000000000600254604051620007ac9062000df0565b6001600160a01b039586168152938516602085015291841660408401529092166060820152608081019190915260a0018190604051809103906000f5905080158015620007fd573d6000803e3d6000fd5b5060015460405163ec4939d160e01b81529192506001600160a01b037f000000000000000000000000000000000000000000000000000000000000000081169263ec4939d19262000860928a9287928d928c929116908b908b9060040162001330565b600060405180830381600087803b1580156200087b57600080fd5b505af115801562000890573d6000803e3d6000fd5b50506040513392506001600160a01b03841691507f14a6db83c750b5f47f3b2f0813e6a985cf9365ef20ce51a9ea7de5684928475f90600090a350505050505050565b600080546001600160a01b038381166001600160a01b0319831681178455604051919092169283917f8be0079c531659141344cd1fd0a4f28419497f9722a3daafe3b4186f6b6457e09190a35050565b6000620009318251620009e4565b826040516020016200094592919062001395565b604051602081830303815290604052805190602001209050919050565b600080600062000973858562000a7e565b909250905060008160048111156200098f576200098f620013f4565b148015620009ae5750856001600160a01b0316826001600160a01b0316145b80620009c25750620009c286868662000ac7565b9695505050505050565b600082620009db858462000bbd565b14949350505050565b60606000620009f38362000c13565b600101905060008167ffffffffffffffff81111562000a165762000a1662000e46565b6040519080825280601f01601f19166020018201604052801562000a41576020820181803683370190505b5090508181016020015b600019016f181899199a1a9b1b9c1cb0b131b232b360811b600a86061a8153600a850494508462000a4b57509392505050565b600080825160410362000ab85760208301516040840151606085015160001a62000aab8782858562000cf3565b9450945050505062000ac0565b506000905060025b9250929050565b6000806000856001600160a01b0316631626ba7e60e01b868660405160240162000af39291906200140a565b60408051601f198184030181529181526020820180516001600160e01b03166001600160e01b031990941693909317909252905162000b3391906200142d565b600060405180830381855afa9150503d806000811462000b70576040519150601f19603f3d011682016040523d82523d6000602084013e62000b75565b606091505b509150915081801562000b8a57506020815110155b8015620009c257508051630b135d3f60e11b9062000bb290830160209081019084016200144b565b149695505050505050565b600081815b845181101562000c0b5762000bf48286838151811062000be65762000be662001465565b602002602001015162000dbc565b91508062000c02816200147b565b91505062000bc2565b509392505050565b60008072184f03e93ff9f4daa797ed6e38ed64bf6a1f0160401b831062000c535772184f03e93ff9f4daa797ed6e38ed64bf6a1f0160401b830492506040015b6d04ee2d6d415b85acef8100000000831062000c80576d04ee2d6d415b85acef8100000000830492506020015b662386f26fc10000831062000c9f57662386f26fc10000830492506010015b6305f5e100831062000cb8576305f5e100830492506008015b612710831062000ccd57612710830492506004015b6064831062000ce0576064830492506002015b600a831062000ced576001015b92915050565b6000807f7fffffffffffffffffffffffffffffff5d576e7357a4501ddfe92f46681b20a083111562000d2c575060009050600362000db3565b6040805160008082526020820180845289905260ff881692820192909252606081018690526080810185905260019060a0016020604051602081039080840390855afa15801562000d81573d6000803e3d6000fd5b5050604051601f1901519150506001600160a01b03811662000dac5760006001925092505062000db3565b9150600090505b94509492505050565b600081831062000dda57600082815260208490526040902062000de9565b60008381526020839052604090205b9392505050565b61136180620014a483390190565b6001600160a01b03811681146200044357600080fd5b60006020828403121562000e2757600080fd5b813562000de98162000dfe565b803562000e418162000dfe565b919050565b634e487b7160e01b600052604160045260246000fd5b604051601f8201601f1916810167ffffffffffffffff8111828210171562000e885762000e8862000e46565b604052919050565b600082601f83011262000ea257600080fd5b813567ffffffffffffffff81111562000ebf5762000ebf62000e46565b62000ed4601f8201601f191660200162000e5c565b81815284602083860101111562000eea57600080fd5b816020850160208301376000918101602001919091529392505050565b600082601f83011262000f1957600080fd5b8135602067ffffffffffffffff82111562000f385762000f3862000e46565b8160051b62000f4982820162000e5c565b928352848101820192828101908785111562000f6457600080fd5b83870192505b8483101562000f855782358252918301919083019062000f6a565b979650505050505050565b600060a0828403121562000fa357600080fd5b60405160a0810167ffffffffffffffff828210818311171562000fca5762000fca62000e46565b81604052829350843583526020850135602084015260408501356040840152606085013591508082111562000ffe57600080fd5b6200100c8683870162000e90565b606084015260808501359150808211156200102657600080fd5b50620010358582860162000f07565b6080830152505092915050565b6000606082840312156200105557600080fd5b6040516060810167ffffffffffffffff82821081831117156200107c576200107c62000e46565b8160405282935084358352602085013560208401526040850135915080821115620010a657600080fd5b50620010b58582860162000f07565b6040830152505092915050565b6000806000806000806000806000806101408b8d031215620010e357600080fd5b620010ee8b62000e34565b995060208b013567ffffffffffffffff808211156200110c57600080fd5b6200111a8e838f0162000e90565b9a5060408d0135995060608d013598506200113860808e0162000e34565b97506200114860a08e0162000e34565b965060c08d01359150808211156200115f57600080fd5b6200116d8e838f0162000f90565b955060e08d01359150808211156200118457600080fd5b620011928e838f0162001042565b94506101008d0135915080821115620011aa57600080fd5b620011b88e838f0162000e90565b93506101208d0135915080821115620011d057600080fd5b50620011df8d828e0162000e90565b9150509295989b9194979a5092959850565b6000602082840312156200120457600080fd5b5035919050565b60005b83811015620012285781810151838201526020016200120e565b50506000910152565b600081518084526200124b8160208601602086016200120b565b601f01601f19169290920160200192915050565b86815260018060a01b038616602082015284604082015283606082015282608082015260c060a082015260006200129a60c083018462001231565b98975050505050505050565b84815260208082018590526001600160a01b038416604083015260806060830181905283519083018190526000918481019160a0850190845b81811015620012fd57845183529383019391830191600101620012df565b50909998505050505050505050565b6000602082840312156200131f57600080fd5b8151801515811462000de957600080fd5b8781526001600160a01b0387811660208301526040820187905285811660608301528416608082015260e060a08201819052600090620013739083018562001231565b82810360c084015262001387818562001231565b9a9950505050505050505050565b7f19457468657265756d205369676e6564204d6573736167653a0a000000000000815260008351620013cf81601a8501602088016200120b565b835190830190620013e881601a8401602088016200120b565b01601a01949350505050565b634e487b7160e01b600052602160045260246000fd5b82815260406020820152600062001425604083018462001231565b949350505050565b60008251620014418184602087016200120b565b9190910192915050565b6000602082840312156200145e57600080fd5b5051919050565b634e487b7160e01b600052603260045260246000fd5b6000600182016200149c57634e487b7160e01b600052601160045260246000fd5b506001019056fe6101006040523480156200001257600080fd5b5060405162001361380380620013618339810160408190526200003591620000df565b84848484620000443362000076565b6200004f8462000076565b6001600160a01b0392831660805290821660a0521660c0525060e052506200015392505050565b600080546001600160a01b038381166001600160a01b0319831681178455604051919092169283917f8be0079c531659141344cd1fd0a4f28419497f9722a3daafe3b4186f6b6457e09190a35050565b6001600160a01b0381168114620000dc57600080fd5b50565b600080600080600060a08688031215620000f857600080fd5b85516200010581620000c6565b60208701519095506200011881620000c6565b60408701519094506200012b81620000c6565b60608701519093506200013e81620000c6565b80925050608086015190509295509295909350565b60805160a05160c05160e0516111b9620001a860003960008181610101015261027301526000818161017601526102c901526000818161013e015261056d01526000818160a8015261060801526111b96000f3fe608060405234801561001057600080fd5b506004361061009e5760003560e01c80638da5cb5b116100665780638da5cb5b146101605780639ae3774a14610171578063d20ab1d714610198578063f2fde38b146101ab578063faff50a8146101be57600080fd5b806311e6575b146100a35780633d5c45b5146100e75780635218574c146100fc578063715018a6146101315780637ac9d73814610139575b600080fd5b6100ca7f000000000000000000000000000000000000000000000000000000000000000081565b6040516001600160a01b0390911681526020015b60405180910390f35b6100fa6100f5366004610de6565b6101c7565b005b6101237f000000000000000000000000000000000000000000000000000000000000000081565b6040519081526020016100de565b6100fa6102b3565b6100ca7f000000000000000000000000000000000000000000000000000000000000000081565b6000546001600160a01b03166100ca565b6100ca7f000000000000000000000000000000000000000000000000000000000000000081565b6100fa6101a6366004610edc565b6102c7565b6100fa6101b9366004610ef5565b610407565b61012360015481565b6001600160a01b038816330361021d5760405162461bcd60e51b815260206004820152601660248201527521b434b81031b0b73737ba1037bbb71034ba39b2b63360511b60448201526064015b60405180910390fd5b6040805146602082015280820186905260608082018a9052339081901b6bffffffffffffffffffffffff19166080830152825160748184030181526094909201909252610299906001600160a01b038b169087907f00000000000000000000000000000000000000000000000000000000000000009088610480565b6102a88989838a8a8888610531565b505050505050505050565b6102bb610697565b6102c560006106f1565b565b7f00000000000000000000000000000000000000000000000000000000000000006001600160a01b031633146103845760405162461bcd60e51b815260206004820152605660248201527f6f6e6c79446576656c6f7065725265676973747261723a204f6e6c792074686560448201527f20636f6e7472616374277320446576656c6f706572205265676973747261722060648201527531b0b71031b0b636103a3434b990333ab731ba34b7b760511b608482015260a401610214565b600154156103cc5760405162461bcd60e51b8152602060048201526015602482015274149bdbdd081b9bd91948185b1c9958591e481cd95d605a1b6044820152606401610214565b60018190556040518181527f502693e2258520f4d18d6fa7678fbf02628ce8c5ea57d1901bccd512290e9a6e9060200160405180910390a150565b61040f610697565b6001600160a01b0381166104745760405162461bcd60e51b815260206004820152602660248201527f4f776e61626c653a206e6577206f776e657220697320746865207a65726f206160448201526564647265737360d01b6064820152608401610214565b61047d816106f1565b50565b61049d61048c83610741565b6001600160a01b038716908361077c565b6104dd5760405162461bcd60e51b8152602060048201526011602482015270496e76616c6964207369676e617475726560781b6044820152606401610214565b6104e78385610f10565b43111561052a5760405162461bcd60e51b815260206004820152601160248201527014da59db985d1d5c9948195e1c1a5c9959607a1b6044820152606401610214565b5050505050565b600154604051630329904360e61b81526004810191909152602481018790526001600160a01b03868116604483015288811660648301526000917f00000000000000000000000000000000000000000000000000000000000000009091169063ca6410c0906084016020604051808303816000875af11580156105b8573d6000803e3d6000fd5b505050506040513d601f19601f820116820180604052508101906105dc9190610f31565b905060006040518060600160405280886001600160a01b031681526020018381526020018781525090507f00000000000000000000000000000000000000000000000000000000000000006001600160a01b0316631d0c1dfe8a838888886040518663ffffffff1660e01b815260040161065a959493929190611006565b600060405180830381600087803b15801561067457600080fd5b505af1158015610688573d6000803e3d6000fd5b50505050505050505050505050565b6000546001600160a01b031633146102c55760405162461bcd60e51b815260206004820181905260248201527f4f776e61626c653a2063616c6c6572206973206e6f7420746865206f776e65726044820152606401610214565b600080546001600160a01b038381166001600160a01b0319831681178455604051919092169283917f8be0079c531659141344cd1fd0a4f28419497f9722a3daafe3b4186f6b6457e09190a35050565b600061074d82516107dd565b8260405160200161075f9291906110dd565b604051602081830303815290604052805190602001209050919050565b600080600061078b8585610870565b909250905060008160048111156107a4576107a4611138565b1480156107c25750856001600160a01b0316826001600160a01b0316145b806107d357506107d38686866108b5565b9695505050505050565b606060006107ea836109a1565b600101905060008167ffffffffffffffff81111561080a5761080a610b5a565b6040519080825280601f01601f191660200182016040528015610834576020820181803683370190505b5090508181016020015b600019016f181899199a1a9b1b9c1cb0b131b232b360811b600a86061a8153600a850494508461083e57509392505050565b60008082516041036108a65760208301516040840151606085015160001a61089a87828585610a7a565b945094505050506108ae565b506000905060025b9250929050565b6000806000856001600160a01b0316631626ba7e60e01b86866040516024016108df92919061114e565b60408051601f198184030181529181526020820180516001600160e01b03166001600160e01b031990941693909317909252905161091d9190611167565b600060405180830381855afa9150503d8060008114610958576040519150601f19603f3d011682016040523d82523d6000602084013e61095d565b606091505b509150915081801561097157506020815110155b80156107d357508051630b135d3f60e11b906109969083016020908101908401610f31565b149695505050505050565b60008072184f03e93ff9f4daa797ed6e38ed64bf6a1f0160401b83106109e05772184f03e93ff9f4daa797ed6e38ed64bf6a1f0160401b830492506040015b6d04ee2d6d415b85acef81000000008310610a0c576d04ee2d6d415b85acef8100000000830492506020015b662386f26fc100008310610a2a57662386f26fc10000830492506010015b6305f5e1008310610a42576305f5e100830492506008015b6127108310610a5657612710830492506004015b60648310610a68576064830492506002015b600a8310610a74576001015b92915050565b6000807f7fffffffffffffffffffffffffffffff5d576e7357a4501ddfe92f46681b20a0831115610ab15750600090506003610b35565b6040805160008082526020820180845289905260ff881692820192909252606081018690526080810185905260019060a0016020604051602081039080840390855afa158015610b05573d6000803e3d6000fd5b5050604051601f1901519150506001600160a01b038116610b2e57600060019250925050610b35565b9150600090505b94509492505050565b80356001600160a01b0381168114610b5557600080fd5b919050565b634e487b7160e01b600052604160045260246000fd5b60405160a0810167ffffffffffffffff81118282101715610b9357610b93610b5a565b60405290565b604051601f8201601f1916810167ffffffffffffffff81118282101715610bc257610bc2610b5a565b604052919050565b600067ffffffffffffffff831115610be457610be4610b5a565b610bf7601f8401601f1916602001610b99565b9050828152838383011115610c0b57600080fd5b828260208301376000602084830101529392505050565b600082601f830112610c3357600080fd5b8135602067ffffffffffffffff821115610c4f57610c4f610b5a565b8160051b610c5e828201610b99565b9283528481018201928281019087851115610c7857600080fd5b83870192505b84831015610c9757823582529183019190830190610c7e565b979650505050505050565b600060a08284031215610cb457600080fd5b610cbc610b70565b9050813581526020820135602082015260408201356040820152606082013567ffffffffffffffff80821115610cf157600080fd5b818401915084601f830112610d0557600080fd5b610d1485833560208501610bca565b60608401526080840135915080821115610d2d57600080fd5b50610d3a84828501610c22565b60808301525092915050565b600060608284031215610d5857600080fd5b6040516060810167ffffffffffffffff8282108183111715610d7c57610d7c610b5a565b8160405282935084358352602085013560208401526040850135915080821115610da557600080fd5b50610db285828601610c22565b6040830152505092915050565b600082601f830112610dd057600080fd5b610ddf83833560208501610bca565b9392505050565b600080600080600080600080610100898b031215610e0357600080fd5b610e0c89610b3e565b975060208901359650604089013567ffffffffffffffff80821115610e3057600080fd5b610e3c8c838d01610ca2565b975060608b0135915080821115610e5257600080fd5b610e5e8c838d01610d46565b965060808b0135955060a08b0135915080821115610e7b57600080fd5b610e878c838d01610dbf565b945060c08b0135915080821115610e9d57600080fd5b610ea98c838d01610dbf565b935060e08b0135915080821115610ebf57600080fd5b50610ecc8b828c01610dbf565b9150509295985092959890939650565b600060208284031215610eee57600080fd5b5035919050565b600060208284031215610f0757600080fd5b610ddf82610b3e565b80820180821115610a7457634e487b7160e01b600052601160045260246000fd5b600060208284031215610f4357600080fd5b5051919050565b60005b83811015610f65578181015183820152602001610f4d565b50506000910152565b60008151808452610f86816020860160208601610f4a565b601f01601f19169290920160200192915050565b600081518084526020808501945080840160005b83811015610fca57815187529582019590820190600101610fae565b509495945050505050565b80518252602081015160208301526000604082015160606040850152610ffe6060850182610f9a565b949350505050565b600060018060a01b03808816835260a060208401528087511660a084015250602086015160c08301526040860151606060e0840152805161010084015260208101516101208401526040810151610140840152606081015160a06101608501526110746101a0850182610f6e565b90506080820151915060ff19848203016101808501526110948183610f9a565b91505082810360408401526110a98187610fd5565b905082810360608401526110bd8186610f6e565b905082810360808401526110d18185610f6e565b98975050505050505050565b7f19457468657265756d205369676e6564204d6573736167653a0a00000000000081526000835161111581601a850160208801610f4a565b83519083019061112c81601a840160208801610f4a565b01601a01949350505050565b634e487b7160e01b600052602160045260246000fd5b828152604060208201526000610ffe6040830184610f6e565b60008251611179818460208701610f4a565b919091019291505056fea2646970667358221220869a6758fe10c972b43a69f2ab74b356d6b4bcc204edfc3e28f69771ce7e4f8c64736f6c63430008110033a26469706673582212205c8a9247c1d2041f50046a003c42e3164f3f2291242ab5adc14708582ce428e364736f6c63430008110033"
}