{
  "address": "0xbbB1c125A8eA6feabD6524953cB4b8CD876345ED",
  "abi": [
    {
      "inputs": [
        {
          "internalType": "contract IManufacturerRegistry",
          "name": "_manufacturerRegistry",
          "type": "address"
        },
        {
          "internalType": "uint256",
          "name": "_maxLockinPeriod",
          "type": "uint256"
        },
        {
          "internalType": "address",
          "name": "_migrationSigner",
          "type": "address"
        }
      ],
      "stateMutability": "nonpayable",
      "type": "constructor"
    },
    {
      "inputs": [],
      "name": "InvalidShortString",
      "type": "error"
    },
    {
      "inputs": [
        {
          "internalType": "string",
          "name": "str",
          "type": "string"
        }
      ],
      "name": "StringTooLong",
      "type": "error"
    },
    {
      "anonymous": false,
      "inputs": [
        {
          "indexed": true,
          "internalType": "address",
          "name": "chipId",
          "type": "address"
        },
        {
          "indexed": true,
          "internalType": "address",
          "name": "projectRegistrar",
          "type": "address"
        },
        {
          "indexed": true,
          "internalType": "bytes32",
          "name": "manufacturerEnrollmentId",
          "type": "bytes32"
        },
        {
          "indexed": false,
          "internalType": "address",
          "name": "owner",
          "type": "address"
        },
        {
          "indexed": false,
          "internalType": "bytes32",
          "name": "serviceId",
          "type": "bytes32"
        },
        {
          "indexed": false,
          "internalType": "bytes32",
          "name": "ersNode",
          "type": "bytes32"
        },
        {
          "indexed": false,
          "internalType": "bool",
          "name": "hasDeveloperCustodyProof",
          "type": "bool"
        }
      ],
      "name": "ChipAdded",
      "type": "event"
    },
    {
      "anonymous": false,
      "inputs": [],
      "name": "EIP712DomainChanged",
      "type": "event"
    },
    {
      "anonymous": false,
      "inputs": [
        {
          "indexed": false,
          "internalType": "uint256",
          "name": "maxLockinPeriod",
          "type": "uint256"
        }
      ],
      "name": "MaxLockinPeriodUpdated",
      "type": "event"
    },
    {
      "anonymous": false,
      "inputs": [
        {
          "indexed": false,
          "internalType": "address",
          "name": "migrationSigner",
          "type": "address"
        }
      ],
      "name": "MigrationSignerUpdated",
      "type": "event"
    },
    {
      "anonymous": false,
      "inputs": [
        {
          "indexed": true,
          "internalType": "address",
          "name": "previousOwner",
          "type": "address"
        },
        {
          "indexed": true,
          "internalType": "address",
          "name": "newOwner",
          "type": "address"
        }
      ],
      "name": "OwnershipTransferStarted",
      "type": "event"
    },
    {
      "anonymous": false,
      "inputs": [
        {
          "indexed": true,
          "internalType": "address",
          "name": "previousOwner",
          "type": "address"
        },
        {
          "indexed": true,
          "internalType": "address",
          "name": "newOwner",
          "type": "address"
        }
      ],
      "name": "OwnershipTransferred",
      "type": "event"
    },
    {
      "anonymous": false,
      "inputs": [
        {
          "indexed": true,
          "internalType": "address",
          "name": "developerRegistrar",
          "type": "address"
        },
        {
          "indexed": true,
          "internalType": "address",
          "name": "projectRegistrar",
          "type": "address"
        },
        {
          "indexed": false,
          "internalType": "bytes32",
          "name": "nameHash",
          "type": "bytes32"
        },
        {
          "indexed": false,
          "internalType": "address",
          "name": "servicesRegistry",
          "type": "address"
        },
        {
          "indexed": false,
          "internalType": "bytes32",
          "name": "serviceId",
          "type": "bytes32"
        }
      ],
      "name": "ProjectEnrollmentAdded",
      "type": "event"
    },
    {
      "anonymous": false,
      "inputs": [
        {
          "indexed": true,
          "internalType": "address",
          "name": "developerRegistrar",
          "type": "address"
        },
        {
          "indexed": true,
          "internalType": "address",
          "name": "projectRegistrar",
          "type": "address"
        },
        {
          "indexed": false,
          "internalType": "bytes32",
          "name": "nameHash",
          "type": "bytes32"
        }
      ],
      "name": "ProjectEnrollmentRemoved",
      "type": "event"
    },
    {
      "anonymous": false,
      "inputs": [
        {
          "indexed": false,
          "internalType": "address",
          "name": "ers",
          "type": "address"
        },
        {
          "indexed": false,
          "internalType": "address",
          "name": "developerRegistry",
          "type": "address"
        }
      ],
      "name": "RegistryInitialized",
      "type": "event"
    },
    {
      "inputs": [],
      "name": "EIP712_SIGNATURE_DOMAIN",
      "outputs": [
        {
          "internalType": "string",
          "name": "",
          "type": "string"
        }
      ],
      "stateMutability": "view",
      "type": "function"
    },
    {
      "inputs": [],
      "name": "EIP712_SIGNATURE_VERSION",
      "outputs": [
        {
          "internalType": "string",
          "name": "",
          "type": "string"
        }
      ],
      "stateMutability": "view",
      "type": "function"
    },
    {
      "inputs": [],
      "name": "acceptOwnership",
      "outputs": [],
      "stateMutability": "nonpayable",
      "type": "function"
    },
    {
      "inputs": [
        {
          "internalType": "address",
          "name": "_chipId",
          "type": "address"
        },
        {
          "internalType": "address",
          "name": "_chipOwner",
          "type": "address"
        },
        {
          "internalType": "bytes32",
          "name": "_nameHash",
          "type": "bytes32"
        },
        {
          "components": [
            {
              "internalType": "bytes32",
              "name": "enrollmentId",
              "type": "bytes32"
            },
            {
              "internalType": "bytes",
              "name": "manufacturerCertificate",
              "type": "bytes"
            },
            {
              "internalType": "bytes",
              "name": "payload",
              "type": "bytes"
            }
          ],
          "internalType": "struct IChipRegistry.ManufacturerValidation",
          "name": "_manufacturerValidation",
          "type": "tuple"
        },
        {
          "internalType": "bytes",
          "name": "_custodyProof",
          "type": "bytes"
        }
      ],
      "name": "addChip",
      "outputs": [],
      "stateMutability": "nonpayable",
      "type": "function"
    },
    {
      "inputs": [
        {
          "internalType": "contract IProjectRegistrar",
          "name": "_projectRegistrar",
          "type": "address"
        },
        {
          "internalType": "bytes32",
          "name": "_nameHash",
          "type": "bytes32"
        },
        {
          "internalType": "contract IServicesRegistry",
          "name": "_servicesRegistry",
          "type": "address"
        },
        {
          "internalType": "bytes32",
          "name": "_serviceId",
          "type": "bytes32"
        },
        {
          "internalType": "uint256",
          "name": "_lockinPeriod",
          "type": "uint256"
        }
      ],
      "name": "addProjectEnrollment",
      "outputs": [],
      "stateMutability": "nonpayable",
      "type": "function"
    },
    {
      "inputs": [
        {
          "internalType": "address",
          "name": "",
          "type": "address"
        }
      ],
      "name": "chipEnrollments",
      "outputs": [
        {
          "internalType": "bytes32",
          "name": "nameHash",
          "type": "bytes32"
        },
        {
          "internalType": "address",
          "name": "projectRegistrar",
          "type": "address"
        },
        {
          "internalType": "bytes32",
          "name": "manufacturerEnrollmentId",
          "type": "bytes32"
        },
        {
          "internalType": "bool",
          "name": "chipEnrolled",
          "type": "bool"
        }
      ],
      "stateMutability": "view",
      "type": "function"
    },
    {
      "inputs": [],
      "name": "developerRegistry",
      "outputs": [
        {
          "internalType": "contract IDeveloperRegistry",
          "name": "",
          "type": "address"
        }
      ],
      "stateMutability": "view",
      "type": "function"
    },
    {
      "inputs": [],
      "name": "eip712Domain",
      "outputs": [
        {
          "internalType": "bytes1",
          "name": "fields",
          "type": "bytes1"
        },
        {
          "internalType": "string",
          "name": "name",
          "type": "string"
        },
        {
          "internalType": "string",
          "name": "version",
          "type": "string"
        },
        {
          "internalType": "uint256",
          "name": "chainId",
          "type": "uint256"
        },
        {
          "internalType": "address",
          "name": "verifyingContract",
          "type": "address"
        },
        {
          "internalType": "bytes32",
          "name": "salt",
          "type": "bytes32"
        },
        {
          "internalType": "uint256[]",
          "name": "extensions",
          "type": "uint256[]"
        }
      ],
      "stateMutability": "view",
      "type": "function"
    },
    {
      "inputs": [],
      "name": "ers",
      "outputs": [
        {
          "internalType": "contract IERS",
          "name": "",
          "type": "address"
        }
      ],
      "stateMutability": "view",
      "type": "function"
    },
    {
      "inputs": [
        {
          "internalType": "contract IERS",
          "name": "_ers",
          "type": "address"
        },
        {
          "internalType": "contract IDeveloperRegistry",
          "name": "_developerRegistry",
          "type": "address"
        }
      ],
      "name": "initialize",
      "outputs": [],
      "stateMutability": "nonpayable",
      "type": "function"
    },
    {
      "inputs": [],
      "name": "initialized",
      "outputs": [
        {
          "internalType": "bool",
          "name": "",
          "type": "bool"
        }
      ],
      "stateMutability": "view",
      "type": "function"
    },
    {
      "inputs": [],
      "name": "manufacturerRegistry",
      "outputs": [
        {
          "internalType": "contract IManufacturerRegistry",
          "name": "",
          "type": "address"
        }
      ],
      "stateMutability": "view",
      "type": "function"
    },
    {
      "inputs": [],
      "name": "maxLockinPeriod",
      "outputs": [
        {
          "internalType": "uint256",
          "name": "",
          "type": "uint256"
        }
      ],
      "stateMutability": "view",
      "type": "function"
    },
    {
      "inputs": [],
      "name": "migrationSigner",
      "outputs": [
        {
          "internalType": "address",
          "name": "",
          "type": "address"
        }
      ],
      "stateMutability": "view",
      "type": "function"
    },
    {
      "inputs": [
        {
          "internalType": "address",
          "name": "_chipId",
          "type": "address"
        }
      ],
      "name": "node",
      "outputs": [
        {
          "internalType": "bytes32",
          "name": "",
          "type": "bytes32"
        }
      ],
      "stateMutability": "view",
      "type": "function"
    },
    {
      "inputs": [],
      "name": "owner",
      "outputs": [
        {
          "internalType": "address",
          "name": "",
          "type": "address"
        }
      ],
      "stateMutability": "view",
      "type": "function"
    },
    {
      "inputs": [
        {
          "internalType": "address",
          "name": "_chipId",
          "type": "address"
        }
      ],
      "name": "ownerOf",
      "outputs": [
        {
          "internalType": "address",
          "name": "",
          "type": "address"
        }
      ],
      "stateMutability": "view",
      "type": "function"
    },
    {
      "inputs": [],
      "name": "pendingOwner",
      "outputs": [
        {
          "internalType": "address",
          "name": "",
          "type": "address"
        }
      ],
      "stateMutability": "view",
      "type": "function"
    },
    {
      "inputs": [
        {
          "internalType": "contract IProjectRegistrar",
          "name": "",
          "type": "address"
        }
      ],
      "name": "projectEnrollments",
      "outputs": [
        {
          "internalType": "bytes32",
          "name": "nameHash",
          "type": "bytes32"
        },
        {
          "internalType": "contract IDeveloperRegistrar",
          "name": "developerRegistrar",
          "type": "address"
        },
        {
          "internalType": "contract IServicesRegistry",
          "name": "servicesRegistry",
          "type": "address"
        },
        {
          "internalType": "bool",
          "name": "chipsAdded",
          "type": "bool"
        },
        {
          "internalType": "bytes32",
          "name": "serviceId",
          "type": "bytes32"
        },
        {
          "internalType": "uint256",
          "name": "lockinPeriod",
          "type": "uint256"
        },
        {
          "internalType": "uint256",
          "name": "creationTimestamp",
          "type": "uint256"
        }
      ],
      "stateMutability": "view",
      "type": "function"
    },
    {
      "inputs": [
        {
          "internalType": "contract IProjectRegistrar",
          "name": "_projectRegistrar",
          "type": "address"
        }
      ],
      "name": "removeProjectEnrollment",
      "outputs": [],
      "stateMutability": "nonpayable",
      "type": "function"
    },
    {
      "inputs": [],
      "name": "renounceOwnership",
      "outputs": [],
      "stateMutability": "nonpayable",
      "type": "function"
    },
    {
      "inputs": [
        {
          "internalType": "address",
          "name": "_chipId",
          "type": "address"
        }
      ],
      "name": "resolveChip",
      "outputs": [
        {
          "components": [
            {
              "internalType": "bytes32",
              "name": "recordType",
              "type": "bytes32"
            },
            {
              "internalType": "bytes",
              "name": "content",
              "type": "bytes"
            }
          ],
          "internalType": "struct IServicesRegistry.Record[]",
          "name": "",
          "type": "tuple[]"
        }
      ],
      "stateMutability": "view",
      "type": "function"
    },
    {
      "inputs": [
        {
          "internalType": "address",
          "name": "_chipId",
          "type": "address"
        },
        {
          "internalType": "address",
          "name": "_newOwner",
          "type": "address"
        }
      ],
      "name": "setChipNodeOwner",
      "outputs": [],
      "stateMutability": "nonpayable",
      "type": "function"
    },
    {
      "inputs": [
        {
          "internalType": "bytes4",
          "name": "_interfaceId",
          "type": "bytes4"
        }
      ],
      "name": "supportsInterface",
      "outputs": [
        {
          "internalType": "bool",
          "name": "",
          "type": "bool"
        }
      ],
      "stateMutability": "view",
      "type": "function"
    },
    {
      "inputs": [
        {
          "internalType": "address",
          "name": "newOwner",
          "type": "address"
        }
      ],
      "name": "transferOwnership",
      "outputs": [],
      "stateMutability": "nonpayable",
      "type": "function"
    },
    {
      "inputs": [
        {
          "internalType": "uint256",
          "name": "_maxLockinPeriod",
          "type": "uint256"
        }
      ],
      "name": "updateMaxLockinPeriod",
      "outputs": [],
      "stateMutability": "nonpayable",
      "type": "function"
    },
    {
      "inputs": [
        {
          "internalType": "address",
          "name": "_migrationSigner",
          "type": "address"
        }
      ],
      "name": "updateMigrationSigner",
      "outputs": [],
      "stateMutability": "nonpayable",
      "type": "function"
    }
  ],
  "transactionHash": "0xbc48cd4975b2c3555dca736d620df0d217bf15524a8757a1555d52a75d982a89",
  "args": [
    "0xffC5B00E5E534E35D9611278600b1A10df7C83e8",
    "315360000",
    "0x137287d5c3A2A5b0718ACEba486727F201491f92"
  ],
  "numDeployments": 1,
  "solcInputHash": "e447b785d12f2f17f3136e5a46204389",
  "bytecode": "0x610180346200031f57601f62002e5e38819003918201601f1916830192916001600160401b039182851184861017620003245781606092859260409788528339810103126200031f5781516001600160a01b0393848216939192918484036200031f576020928284830151920151918783168093036200031f5783519462000087866200033a565b60038652808601926245525360e81b84528551998a99620000a88b6200033a565b60058b52838b01640322e302e360dc1b815260018060a01b0319968760015416600155600093845490338a83161786553391167f8be0079c531659141344cd1fd0a4f28419497f9722a3daafe3b4186f6b6457e08680a36200011b6200010e8c62000356565b9d6101209e8f5262000533565b9a6101409b8c525190209c8d60e0525190209b8c926101009d8e524660a052895193868501927f8b73c3c69bb8fe3d512ecc4cf759cc79239f7b179b0ffacaa9a75d522b39400f84528b86015260608501524660808501523060a085015260a0845260c0840194848610908611176200030b5750838952825190206080523060c05215620002bb5750506312cf3570821162000269578315620002275750610160958652600955600654161760065551926127759485620006e9863960805185612586015260a05185612652015260c05185612550015260e051856125d5015251846125fb01525183611392015251826113bc015251818181610b2201528181610b7a0152611ba00152f35b60649085519062461bcd60e51b825280600483015260248201527f496e76616c6964206d6967726174696f6e207369676e657220616464726573736044820152fd5b60849085519062461bcd60e51b82526004820152602660248201527f6d61784c6f636b696e506572696f642063616e6e6f742065786365656420313060448201526520796561727360d01b6064820152fd5b61012464647265737360d81b9160849462461bcd60e51b855260c4820152602560e48201527f496e76616c6964206d616e7566616374757265722072656769737472792061646101048201520152fd5b634e487b7160e01b81526041600452602490fd5b600080fd5b634e487b7160e01b600052604160045260246000fd5b604081019081106001600160401b038211176200032457604052565b805160209081811015620003f35750601f8251116200039257808251920151908083106200038357501790565b82600019910360031b1b161790565b90604051809263305a27a960e01b82528060048301528251908160248401526000935b828510620003d9575050604492506000838284010152601f80199101168101030190fd5b8481018201518686016044015293810193859350620003b5565b906001600160401b0382116200032457600254926001938481811c9116801562000528575b838210146200051257601f8111620004d8575b5081601f84116001146200046c575092829391839260009462000460575b50501b916000199060031b1c19161760025560ff90565b01519250388062000449565b919083601f198116600260005284600020946000905b88838310620004bd5750505010620004a3575b505050811b0160025560ff90565b015160001960f88460031b161c1916905538808062000495565b85870151885590960195948501948793509081019062000482565b600260005284601f84600020920160051c820191601f860160051c015b828110620005055750506200042b565b60008155018590620004f5565b634e487b7160e01b600052602260045260246000fd5b90607f169062000418565b80516020919082811015620005c3575090601f8251116200056257808251920151908083106200038357501790565b90604051809263305a27a960e01b82528060048301528251908160248401526000935b828510620005a9575050604492506000838284010152601f80199101168101030190fd5b848101820151868601604401529381019385935062000585565b6001600160401b03811162000324576003928354926001938481811c91168015620006dd575b838210146200051257601f8111620006a4575b5081601f84116001146200063b57509282939183926000946200062f575b50501b9160001990841b1c191617905560ff90565b0151925038806200061a565b919083601f1981168760005284600020946000905b8883831062000689575050501062000670575b505050811b01905560ff90565b015160001983861b60f8161c1916905538808062000663565b85870151885590960195948501948793509081019062000650565b8560005284601f84600020920160051c820191601f860160051c015b828110620006d0575050620005fc565b60008155018590620006c0565b90607f1690620005e956fe608080604052600436101561001357600080fd5b600090813560e01c90816301ffc9a714611bcf575080630fd6061214611b8a578063107d0be114611b6157806314afd79e14611ab2578063158ef93e14611a8c5780633ee0189b146119fa578063485cc9551461190a57806362d709111461165757806370428ce11461162e578063715018a6146115c957806379ba50971461150c5780637ac9d738146114e35780637bb5cb3b1461149d57806384b0196e1461137c5780638da5cb5b1461135557806390327a391461104957806390c1551f14610955578063a7650aa814610799578063b27bae5c14610714578063b5a762ad14610346578063b8336558146102d8578063bffbe61c146102ac578063ca94752c14610248578063ce810b6414610200578063d8a3ec73146101e2578063e30c3978146101b95763f2fde38b1461014a57600080fd5b346101b65760203660031901126101b657610163611c24565b61016b611fcd565b600180546001600160a01b0319166001600160a01b0392831690811790915582549091167f38d16b8cac22d99fc7c124b9cd0de2d3fa1faef420bfe791d8c362d765e227008380a380f35b80fd5b50346101b657806003193601126101b6576001546040516001600160a01b039091168152602090f35b50346101b657806003193601126101b6576020600954604051908152f35b50346101b657806003193601126101b65761024460405161022081611ce4565b600381526245525360e81b6020820152604051918291602083526020830190611c73565b0390f35b50346101b65760203660031901126101b6576080906001600160a01b039060409082610272611c24565b1681526008602052208054916001820154169060ff6003600283015492015416916040519384526020840152604083015215156060820152f35b50346101b65760203660031901126101b65760206102d06102cb611c24565b611eda565b604051908152f35b50346101b65760203660031901126101b6577f0726242e73751453a1039ad9f9fa9fda820563cdb0900fbd918a993f46e9da8d6020610315611c24565b61031d611fcd565b600680546001600160a01b0319166001600160a01b03929092169182179055604051908152a180f35b50346101b65760a03660031901126101b657610360611c24565b6024908135906001600160a01b0390604435828116919082900361071057606435928060055416604051928391633c2b31b160e11b8352336004840152828960209687935afa9182156105c15783926103c0918b916106f3575b50611e15565b16956103cd871515611e61565b6040516301ffc9a760e01b808252633c5a36e160e01b600483015290848184818c5afa9081156106e8578a916106cb575b501561067c5787895260078452600560408a200154610638576040519081526338f4712160e01b600482015283818381885afa9081156105c157899161061b575b50156105cc5760405163fd27739960e01b81526004810186905283818381885afa9081156105c1578991610594575b50156105585750600586886040519361048685611c98565b888552858501903382526040860190888252606087019084825260808801938b8552604060a08a0196608435885260c08b0198428a52815260078c5220985189558160018a019151166bffffffffffffffffffffffff60a01b8254161790556002880192511682549160ff60a01b9051151560a01b16916affffffffffffffffffffff60a81b16171790555160038501555160048401555191015560405193845283015260408201527f69a2c318160ea971a26657929a4d5e282aa11b82acc30fc7a101ef620431921560603392a380f35b8260166064926040519262461bcd60e51b845260048401528201527514d95c9d9a58d948191bd95cc81b9bdd08195e1a5cdd60521b6044820152fd5b6105b49150843d86116105ba575b6105ac8183611d1c565b810190611dfd565b3861046e565b503d6105a2565b6040513d8b823e3d90fd5b826084916040519162461bcd60e51b83526004830152808201527f446f6573206e6f7420696d706c656d656e7420495365727669636573526567696044820152637374727960e01b6064820152fd5b6106329150843d86116105ba576105ac8183611d1c565b3861043f565b60405162461bcd60e51b8152600481018590526018818401527f50726f6a65637420616c726561647920656e726f6c6c656400000000000000006044820152606490fd5b608484836040519162461bcd60e51b83526004830152808201527f446f6573206e6f7420696d706c656d656e74204950726f6a65637452656769736044820152633a3930b960e11b6064820152fd5b6106e29150853d87116105ba576105ac8183611d1c565b386103fe565b6040513d8c823e3d90fd5b61070a9150863d88116105ba576105ac8183611d1c565b386103ba565b8580fd5b50346101b65760203660031901126101b65760e0906001600160a01b03906040908261073e611c24565b16815260076020522090815491816001820154169160ff6002830154600384015492600560048601549501549560405197885260208801528116604087015260a01c1615156060850152608084015260a083015260c0820152f35b50346101b65760403660031901126101b6576107b3611c24565b906107bc611c3a565b9160018060a01b0380911682526020926008845260408320604051906107e182611cc8565b8054825261081460ff60038660018501541693898601948552600281015460408701520154161515806060850152611da1565b833391511603610906579383945190338552600781526108896040862060056040519161084083611c98565b80548352876001820154168584015260ff6002820154898116604086015260a01c161515606084015260038101546080840152600481015460a0840152015460c082015261232f565b916040519182019283526040820152604081526108a581611d00565b519020908260045416803b15610902578492836044926040519687958694637161ad1960e01b865260048601521660248401525af180156108f7576108e75750f35b6108f090611cb4565b6101b65780f35b6040513d84823e3d90fd5b8480fd5b60405162461bcd60e51b815260048101869052602160248201527f50726f6a65637452656769737472617220646964206e6f7420616464206368696044820152600760fc1b6064820152608490fd5b50346101b65760a03660031901126101b65761096f611c24565b610977611c3a565b906064359167ffffffffffffffff80841161090257606060031985360301126109025760405193606085018581108382111761103357604052806004013585526024810135828111610df5576109d39060043691840101611d5a565b6020860152604481013590828211610df55760046109f49236920101611d5a565b604085015260843590811161090257610a11903690600401611d5a565b9233855260076020526040852093600560405195610a2e87611c98565b8054875260018101546001600160a01b039081166020890152600282015480821660408a015260a090811c60ff16151560608a0152600383015460808a015260048301549089015291015460c0870152841615610fff576001600160a01b03831615610fc55760c085015115610f75576001600160a01b03841686526008602052604086206003015460ff16610f3b57815160208381015160408086015190516302891b4d60e21b815260048101949094526001600160a01b03881660248501526080604485015283918291610b1e91610b0c906084850190611c73565b83810360031901606485015290611c73565b03817f00000000000000000000000000000000000000000000000000000000000000006001600160a01b03165afa908115610e49578791610f1c575b50825160405163b63a79a760e01b815260048101919091526020816024817f00000000000000000000000000000000000000000000000000000000000000006001600160a01b03165afa908115610f11578891610ef2575b5015610ead5715610e54576020850151610bd691906001600160a01b031685612229565b90610be08561232f565b60408681015160048054925163b943a81960e01b8152908101939093526044803560248501526001600160a01b03878116918501919091529081166064840152919291602091849160849183918c91165af1918215610e49578792610e10575b5080516003604051610c5181611cc8565b604435815260208101923384526040820190815260608201936001855260018060a01b038a168c52600860205260408c2092518355600183019060018060a01b039051166bffffffffffffffffffffffff60a01b825416179055516002820155019051151560ff801983541691161790558660c0870151610cd56009548092611eb7565b610ce860c08a015160a08b015190611eb7565b1015610dfd5750610d0260c088015160a089015190611eb7565b60018060a01b036040890151166080890151813b15610df9576064898580946040519687958694638025c93b60e01b865260018060a01b03166004860152602485015260448401525af180156108f757610de1575b5050608090606087015115610dbc575b519501516040519360018060a01b0316845260208401526040830152151560608201527f1b5d8dfc204eff8ae5fd9ec9eb3b6f27ec13e5370309731efca59a03d471baeb6080339360018060a01b031692a480f35b338852600760205260408820600201805460ff60a01b1916600160a01b179055610d67565b610dea90611cb4565b610df5578638610d57565b8680fd5b8380fd5b610e0b9060c0890151611eb7565b610d02565b9091506020813d602011610e41575b81610e2c60209383611d1c565b81010312610e3c57519038610c40565b600080fd5b3d9150610e1f565b6040513d89823e3d90fd5b60405162461bcd60e51b815260206004820152602b60248201527f43686970206e6f7420656e726f6c6c65642077697468204d616e75666163747560448201526a726572526567697374727960a81b6064820152608490fd5b60405162461bcd60e51b815260206004820152601f60248201527f45787069726564206d616e75666163747572657220656e726f6c6c6d656e74006044820152606490fd5b610f0b915060203d6020116105ba576105ac8183611d1c565b38610bb2565b6040513d8a823e3d90fd5b610f35915060203d6020116105ba576105ac8183611d1c565b38610b5a565b60405162461bcd60e51b815260206004820152601260248201527110da1a5c08185b1c9958591e48185919195960721b6044820152606490fd5b60405162461bcd60e51b815260206004820152602260248201527f4368697052656769737472793a2050726f6a656374206e6f7420656e726f6c6c604482015261195960f21b6064820152608490fd5b60405162461bcd60e51b815260206004820152601260248201527124b73b30b634b21031b434b81037bbb732b960711b6044820152606490fd5b60405162461bcd60e51b815260206004820152600c60248201526b0496e76616c696420636869760a41b6044820152606490fd5b634e487b7160e01b600052604160045260246000fd5b50346101b65760208060031936011261135157611064611c24565b600554604051633c2b31b160e11b81523360048201526001600160a01b0392909184908390602490829087165afa9182156112225783926110ab9187916106f35750611e15565b16918284526007815260408420604051906110c582611c98565b80548252836001820154168383019081526005600283015492868416604086015260ff606086019460a01c161515845260038101546080860152600481015460a0860152015460c0840190815261111d871515611e61565b5115611315578433915116036112bf575161126b57849051926004541660405190631f5fea1560e31b82528382600481335afa918215611260578392611231575b50803b1561122d576044839260405194859384926341874c7160e11b845260048401528860248401525af18015611222576111ef575b507f3560ed2c43266407aad8f89a3404c0fdfe4d5d2b7731209fec0d0849c350cf289083855260078152600060056040872082815587600182015587600282015582600382015582600482015501556040519283523392a380f35b9361121b7f3560ed2c43266407aad8f89a3404c0fdfe4d5d2b7731209fec0d0849c350cf289295611cb4565b9390611194565b6040513d87823e3d90fd5b8280fd5b9091508381813d8311611259575b6112498183611d1c565b8101031261122d5751903861115e565b503d61123f565b6040513d85823e3d90fd5b60405162461bcd60e51b815260048101839052602660248201527f43616e6e6f742072656d6f76652070726f6a656374207769746820636869707360448201526508185919195960d21b6064820152608490fd5b60405162461bcd60e51b815260048101849052602860248201527f446576656c6f7065722052656769737472617220646f6573206e6f74206f776e604482015267081c1c9bda9958dd60c21b6064820152608490fd5b60405162461bcd60e51b8152600481018590526014602482015273141c9bda9958dd081b9bdd08195b9c9bdb1b195960621b6044820152606490fd5b5080fd5b50346101b657806003193601126101b657546040516001600160a01b039091168152602090f35b50346101b657806003193601126101b6576113b67f0000000000000000000000000000000000000000000000000000000000000000612025565b906113e07f0000000000000000000000000000000000000000000000000000000000000000612151565b9060405190602090602083019383851067ffffffffffffffff86111761148957928492602061143f889661143198604052858552604051988998600f60f81b8a5260e0858b015260e08a0190611c73565b9088820360408a0152611c73565b924660608801523060808801528460a088015286840360c088015251928381520193925b82811061147257505050500390f35b835185528695509381019392810192600101611463565b634e487b7160e01b82526041600452602482fd5b50346101b657806003193601126101b6576102446040516114bd81611ce4565b60058152640322e302e360dc1b6020820152604051918291602083526020830190611c73565b50346101b657806003193601126101b6576004546040516001600160a01b039091168152602090f35b50346101b657806003193601126101b6576001546001600160a01b033381831603611572576001600160a01b031991821660015582543392811683178455167f8be0079c531659141344cd1fd0a4f28419497f9722a3daafe3b4186f6b6457e08380a380f35b60405162461bcd60e51b815260206004820152602960248201527f4f776e61626c6532537465703a2063616c6c6572206973206e6f7420746865206044820152683732bb9037bbb732b960b91b6064820152608490fd5b50346101b657806003193601126101b6576115e2611fcd565b600180546001600160a01b03199081169091558154908116825581906001600160a01b03167f8be0079c531659141344cd1fd0a4f28419497f9722a3daafe3b4186f6b6457e08280a380f35b50346101b657806003193601126101b6576006546040516001600160a01b039091168152602090f35b50346101b65760208060031936011261135157611672611c24565b6001600160a01b0381811680855260088452604085206003015485919061169b9060ff16611da1565b6116a9836004541694611eda565b906040519163753761ef60e11b83526004830152858260248181985afa9182156112605783926118d8575b506024906040519485938492634417838960e11b84526004840152165afa9182156118cd57849261176d575b50506040805183815282518185018190529093600582901b850183019381019285015b8287106117305785850386f35b90919293828061175d600193603f198a82030186526040838a518051845201519181858201520190611c73565b9601920196019592919092611723565b9091503d8085843e61177f8184611d1c565b820191838184031261090257805167ffffffffffffffff91828211610df557019183601f84011215610710578251938285116118b9578460051b92604051956117ca88860188611d1c565b86528680870194860101948286116118b557878101945b8686106117f657505050505050503880611700565b85518381116118b15782016040818603601f1901126118b15760405190604082018281108682111761189e576040528a810151825260408101519085821161189a57019185603f84011215611896578a8301519161185383611d3e565b6118606040519182611d1c565b8381528760408587010111611892576118838d9594869560408785019101611c50565b838201528152019501946117e1565b8d80fd5b8b80fd5b8c80fd5b634e487b7160e01b8d526041600452878dfd5b8a80fd5b8880fd5b634e487b7160e01b87526041600452602487fd5b6040513d86823e3d90fd5b60249192506118fc90873d8911611903575b6118f48183611d1c565b810190611dde565b91906116d4565b503d6118ea565b50346101b65760403660031901126101b6576001600160a01b036004358181169081900361122d5760243591821680920361122d57611947611fcd565b6005549060ff8260a01c166119b557600480546001600160a01b031916821790556001600160a81b03199091168217600160a01b176005556040805191825260208201929092527fd34165fb904aadd75bb08005a1f082876a213a85537b9973e7994846c3155b4a9190a180f35b60405162461bcd60e51b815260206004820152601c60248201527f436f6e747261637420616c726561647920696e697469616c697a6564000000006044820152606490fd5b50346101b65760203660031901126101b657600435611a17611fcd565b8015611a4f576020817f99c59d1a41be6b526e0c7b8231e4cf68d496b8250e585c52e1e7b6a5b9726a7792600955604051908152a180f35b60405162461bcd60e51b8152602060048201526015602482015274125b9d985b1a59081b1bd8dada5b881c195c9a5bd9605a1b6044820152606490fd5b50346101b657806003193601126101b657602060ff60055460a01c166040519015158152f35b50346101b657602090816003193601126101b6576001600160a01b0380611ad7611c24565b1680835260088452611af260ff600360408620015416611da1565b80835260088452838260016040862001541691602460405180948193630a57ebcf60e11b835260048301525afa928315611b555792611b36575b5060405191168152f35b611b4e919250833d8511611903576118f48183611d1c565b9038611b2c565b604051903d90823e3d90fd5b50346101b657806003193601126101b6576005546040516001600160a01b039091168152602090f35b50346101b657806003193601126101b6576040517f00000000000000000000000000000000000000000000000000000000000000006001600160a01b03168152602090f35b9050346113515760203660031901126113515760043563ffffffff60e01b811680910361122d5760209250630482419360e51b8114908115611c13575b5015158152f35b6301ffc9a760e01b14905038611c0c565b600435906001600160a01b0382168203610e3c57565b602435906001600160a01b0382168203610e3c57565b60005b838110611c635750506000910152565b8181015183820152602001611c53565b90602091611c8c81518092818552858086019101611c50565b601f01601f1916010190565b60e0810190811067ffffffffffffffff82111761103357604052565b67ffffffffffffffff811161103357604052565b6080810190811067ffffffffffffffff82111761103357604052565b6040810190811067ffffffffffffffff82111761103357604052565b6060810190811067ffffffffffffffff82111761103357604052565b90601f8019910116810190811067ffffffffffffffff82111761103357604052565b67ffffffffffffffff811161103357601f01601f191660200190565b81601f82011215610e3c57803590611d7182611d3e565b92611d7f6040519485611d1c565b82845260208383010111610e3c57816000926020809301838601378301015290565b15611da857565b60405162461bcd60e51b815260206004820152600e60248201526d10da1a5c081b9bdd08185919195960921b6044820152606490fd5b90816020910312610e3c57516001600160a01b0381168103610e3c5790565b90816020910312610e3c57518015158103610e3c5790565b15611e1c57565b60405162461bcd60e51b815260206004820152601b60248201527f4d75737420626520446576656c6f7065722052656769737472617200000000006044820152606490fd5b15611e6857565b60405162461bcd60e51b815260206004820152602160248201527f496e76616c69642070726f6a65637420726567697374726172206164647265736044820152607360f81b6064820152608490fd5b91908201809211611ec457565b634e487b7160e01b600052601160045260246000fd5b60018060a01b0380911690611fa7600091838352602092600884526040928284936001858520015416835260078652611fa26060858520926005875194611f2086611c98565b80548652826001820154168b87015260ff60028201548481168b89015260a01c1615158487015260038101546080870152600481015460a0870152015460c08501528986526008895260ff6003888820895193611f7c85611cc8565b815485526001820154168c85015260028101548a85015201541615159182910152611da1565b61232f565b9481526008845220548151928301938452818301528152611fc781611d00565b51902090565b6000546001600160a01b03163303611fe157565b606460405162461bcd60e51b815260206004820152602060248201527f4f776e61626c653a2063616c6c6572206973206e6f7420746865206f776e65726044820152fd5b60ff81146120635760ff811690601f8211612051576040519161204783611ce4565b8252602082015290565b604051632cd44ac360e21b8152600490fd5b5060405160006002549060018260011c9060018416938415612147575b6020948584108114612133578387528694939291811561211357506001146120b4575b50506120b192500382611d1c565b90565b9093915060026000527f405787fa12a823e0f2b7631cc41b3ba8828b3321ca811111fa75cd3aa3bb5ace936000915b8183106120fb5750506120b1935082010138806120a3565b855487840185015294850194869450918301916120e3565b9150506120b194925060ff191682840152151560051b82010138806120a3565b634e487b7160e01b85526022600452602485fd5b91607f1691612080565b60ff81146121735760ff811690601f8211612051576040519161204783611ce4565b5060405160006003549060018260011c906001841693841561221f575b6020948584108114612133578387528694939291811561211357506001146121c05750506120b192500382611d1c565b9093915060036000527fc2575a0e9e593c00f959f8c92f12db2869c3395a3b0502d05e2516446f71f85b936000915b8183106122075750506120b1935082010138806120a3565b855487840185015294850194869450918301916121ef565b91607f1691612190565b916040926122ce8285516122c8612284602083017f8b7b879c895e2dc28e6da4342b72ee6055c69f7687712bd58839ff5bc9869011815260018060a01b0380991693848b8201528a815261227c81611d00565b51902061240a565b91885160208101917f7ea478d5e9698a0db326a6f2bd3d02575d05a45b1a7ff52eeeeebff2878ee49783528988168b83015260608201526060815261227c81611cc8565b93612430565b156122dc5750505050600190565b6122e99260065416612430565b156122f45750600090565b5162461bcd60e51b815260206004820152601560248201527424b73b30b634b21031bab9ba37b23c90383937b7b360591b6044820152606490fd5b60018060a01b03906004828154169160208094818301511660405193848092631f5fea1560e31b82525afa9081156123cc5784926000926123d8575b5060449051916040519485938492639ccda3a760e01b8452600484015260248301525afa9182156123cc576000926123a257505090565b90809250813d83116123c5575b6123b98183611d1c565b81010312610e3c575190565b503d6123af565b6040513d6000823e3d90fd5b8381949293503d8311612403575b6123f08183611d1c565b81010312610e3c5790518391604461236b565b503d6123e6565b60429061241561254d565b906040519161190160f01b8352600283015260228201522090565b9061243b8382612678565b600581959295101561253757159384612521575b50831561245d575b50505090565b909192506040516124a0816124926020820194630b135d3f60e11b968787526024840152604060448401526064830190611c73565b03601f198101835282611d1c565b6000938492839251915afa913d15612519573d906124bd82611d3e565b916124cb6040519384611d1c565b82523d81602084013e5b8361250b575b836124ec575b505050388080612457565b909192506020828051810103126101b6575060200151143880806124e1565b9250602081511015926124db565b6060906124d5565b6001600160a01b0384811691161493503861244f565b634e487b7160e01b600052602160045260246000fd5b307f00000000000000000000000000000000000000000000000000000000000000006001600160a01b0316148061264f575b156125a8577f000000000000000000000000000000000000000000000000000000000000000090565b60405160208101907f8b73c3c69bb8fe3d512ecc4cf759cc79239f7b179b0ffacaa9a75d522b39400f82527f000000000000000000000000000000000000000000000000000000000000000060408201527f000000000000000000000000000000000000000000000000000000000000000060608201524660808201523060a082015260a0815260c0810181811067ffffffffffffffff8211176110335760405251902090565b507f0000000000000000000000000000000000000000000000000000000000000000461461257f565b9060418151146000146126a6576126a2916020820151906060604084015193015160001a906126b0565b9091565b5050600090600290565b9291907f7fffffffffffffffffffffffffffffff5d576e7357a4501ddfe92f46681b20a083116127335791608094939160ff602094604051948552168484015260408301526060820152600093849182805260015afa156127265781516001600160a01b03811615612720579190565b50600190565b50604051903d90823e3d90fd5b5050505060009060039056fea264697066735822122062819253db54e88d53765101461ba320c4092720650d40621dc1339dd84f743364736f6c63430008180033"
}