{
  "address": "0x15F490909EB5d9c240d2a3236710569290AFA8ce",
  "abi": [
    {
      "inputs": [
        {
          "internalType": "address",
          "name": "_governance",
          "type": "address"
        }
      ],
      "stateMutability": "nonpayable",
      "type": "constructor"
    },
    {
      "anonymous": false,
      "inputs": [
        {
          "indexed": true,
          "internalType": "address",
          "name": "developerOwner",
          "type": "address"
        },
        {
          "indexed": false,
          "internalType": "bytes32",
          "name": "nameHash",
          "type": "bytes32"
        }
      ],
      "name": "DeveloperAllowed",
      "type": "event"
    },
    {
      "anonymous": false,
      "inputs": [
        {
          "indexed": true,
          "internalType": "address",
          "name": "developerOwner",
          "type": "address"
        }
      ],
      "name": "DeveloperDisallowed",
      "type": "event"
    },
    {
      "anonymous": false,
      "inputs": [
        {
          "indexed": true,
          "internalType": "address",
          "name": "developerRegistrar",
          "type": "address"
        },
        {
          "indexed": true,
          "internalType": "address",
          "name": "owner",
          "type": "address"
        },
        {
          "indexed": false,
          "internalType": "bytes32",
          "name": "rootNode",
          "type": "bytes32"
        }
      ],
      "name": "DeveloperRegistrarAdded",
      "type": "event"
    },
    {
      "anonymous": false,
      "inputs": [
        {
          "indexed": true,
          "internalType": "address",
          "name": "developerRegistrar",
          "type": "address"
        },
        {
          "indexed": false,
          "internalType": "bytes32",
          "name": "subnode",
          "type": "bytes32"
        },
        {
          "indexed": false,
          "internalType": "bytes32",
          "name": "_nameHash",
          "type": "bytes32"
        }
      ],
      "name": "DeveloperRegistrarRevoked",
      "type": "event"
    },
    {
      "anonymous": false,
      "inputs": [
        {
          "indexed": true,
          "internalType": "address",
          "name": "previousOwner",
          "type": "address"
        },
        {
          "indexed": true,
          "internalType": "address",
          "name": "newOwner",
          "type": "address"
        }
      ],
      "name": "OwnershipTransferred",
      "type": "event"
    },
    {
      "anonymous": false,
      "inputs": [
        {
          "indexed": true,
          "internalType": "address",
          "name": "factory",
          "type": "address"
        }
      ],
      "name": "RegistrarFactoryAdded",
      "type": "event"
    },
    {
      "anonymous": false,
      "inputs": [
        {
          "indexed": true,
          "internalType": "address",
          "name": "factory",
          "type": "address"
        }
      ],
      "name": "RegistrarFactoryRemoved",
      "type": "event"
    },
    {
      "anonymous": false,
      "inputs": [
        {
          "indexed": false,
          "internalType": "address",
          "name": "ers",
          "type": "address"
        }
      ],
      "name": "RegistryInitialized",
      "type": "event"
    },
    {
      "inputs": [],
      "name": "ROOT_NODE",
      "outputs": [
        {
          "internalType": "bytes32",
          "name": "",
          "type": "bytes32"
        }
      ],
      "stateMutability": "view",
      "type": "function"
    },
    {
      "inputs": [
        {
          "internalType": "address",
          "name": "_developerOwner",
          "type": "address"
        },
        {
          "internalType": "bytes32",
          "name": "_nameHash",
          "type": "bytes32"
        }
      ],
      "name": "addAllowedDeveloper",
      "outputs": [],
      "stateMutability": "nonpayable",
      "type": "function"
    },
    {
      "inputs": [
        {
          "internalType": "contract IDeveloperRegistrarFactory",
          "name": "_factory",
          "type": "address"
        }
      ],
      "name": "addRegistrarFactory",
      "outputs": [],
      "stateMutability": "nonpayable",
      "type": "function"
    },
    {
      "inputs": [
        {
          "internalType": "contract IDeveloperRegistrarFactory",
          "name": "_factory",
          "type": "address"
        }
      ],
      "name": "createNewDeveloperRegistrar",
      "outputs": [
        {
          "internalType": "address",
          "name": "",
          "type": "address"
        }
      ],
      "stateMutability": "nonpayable",
      "type": "function"
    },
    {
      "inputs": [],
      "name": "ersRegistry",
      "outputs": [
        {
          "internalType": "contract IERS",
          "name": "",
          "type": "address"
        }
      ],
      "stateMutability": "view",
      "type": "function"
    },
    {
      "inputs": [],
      "name": "getDeveloperRegistrars",
      "outputs": [
        {
          "internalType": "address[]",
          "name": "",
          "type": "address[]"
        }
      ],
      "stateMutability": "view",
      "type": "function"
    },
    {
      "inputs": [
        {
          "internalType": "contract IERS",
          "name": "_ers",
          "type": "address"
        },
        {
          "internalType": "contract IDeveloperRegistrarFactory[]",
          "name": "_factories",
          "type": "address[]"
        },
        {
          "internalType": "address",
          "name": "_nameGovernor",
          "type": "address"
        }
      ],
      "name": "initialize",
      "outputs": [],
      "stateMutability": "nonpayable",
      "type": "function"
    },
    {
      "inputs": [],
      "name": "initialized",
      "outputs": [
        {
          "internalType": "bool",
          "name": "",
          "type": "bool"
        }
      ],
      "stateMutability": "view",
      "type": "function"
    },
    {
      "inputs": [
        {
          "internalType": "address",
          "name": "",
          "type": "address"
        }
      ],
      "name": "isDeveloperRegistrar",
      "outputs": [
        {
          "internalType": "bool",
          "name": "",
          "type": "bool"
        }
      ],
      "stateMutability": "view",
      "type": "function"
    },
    {
      "inputs": [],
      "name": "nameGovernor",
      "outputs": [
        {
          "internalType": "address",
          "name": "",
          "type": "address"
        }
      ],
      "stateMutability": "view",
      "type": "function"
    },
    {
      "inputs": [],
      "name": "owner",
      "outputs": [
        {
          "internalType": "address",
          "name": "",
          "type": "address"
        }
      ],
      "stateMutability": "view",
      "type": "function"
    },
    {
      "inputs": [
        {
          "internalType": "address",
          "name": "",
          "type": "address"
        }
      ],
      "name": "pendingDevelopers",
      "outputs": [
        {
          "internalType": "bytes32",
          "name": "",
          "type": "bytes32"
        }
      ],
      "stateMutability": "view",
      "type": "function"
    },
    {
      "inputs": [
        {
          "internalType": "contract IDeveloperRegistrarFactory",
          "name": "",
          "type": "address"
        }
      ],
      "name": "registrarFactories",
      "outputs": [
        {
          "internalType": "bool",
          "name": "",
          "type": "bool"
        }
      ],
      "stateMutability": "view",
      "type": "function"
    },
    {
      "inputs": [
        {
          "internalType": "address",
          "name": "_developerOwner",
          "type": "address"
        }
      ],
      "name": "removeAllowedDeveloper",
      "outputs": [],
      "stateMutability": "nonpayable",
      "type": "function"
    },
    {
      "inputs": [
        {
          "internalType": "contract IDeveloperRegistrarFactory",
          "name": "_factory",
          "type": "address"
        }
      ],
      "name": "removeRegistrarFactory",
      "outputs": [],
      "stateMutability": "nonpayable",
      "type": "function"
    },
    {
      "inputs": [],
      "name": "renounceOwnership",
      "outputs": [],
      "stateMutability": "nonpayable",
      "type": "function"
    },
    {
      "inputs": [
        {
          "internalType": "address",
          "name": "_developerRegistrar",
          "type": "address"
        },
        {
          "internalType": "bytes32",
          "name": "_nameHash",
          "type": "bytes32"
        }
      ],
      "name": "revokeDeveloperRegistrar",
      "outputs": [],
      "stateMutability": "nonpayable",
      "type": "function"
    },
    {
      "inputs": [
        {
          "internalType": "address",
          "name": "newOwner",
          "type": "address"
        }
      ],
      "name": "transferOwnership",
      "outputs": [],
      "stateMutability": "nonpayable",
      "type": "function"
    }
  ],
  "transactionHash": "0x3136e565e3d8e6d43f1dc9497b637c935ce5d3dbee0ef4cac3ed9f8a6b041033",
  "args": [
    "0xE06Acb2a102aD36dEbC27C93cFD5b6c38f3099bC"
  ],
  "numDeployments": 1,
  "solcInputHash": "5fcfa18e4a4c3d18ea9c3144e86bb365",
  "bytecode": "0x60806040523480156200001157600080fd5b506040516200167f3803806200167f833981016040819052620000349162000182565b6200003f3362000051565b6200004a81620000a1565b50620001b4565b600080546001600160a01b038381166001600160a01b0319831681178455604051919092169283917f8be0079c531659141344cd1fd0a4f28419497f9722a3daafe3b4186f6b6457e09190a35050565b620000ab62000124565b6001600160a01b038116620001165760405162461bcd60e51b815260206004820152602660248201527f4f776e61626c653a206e6577206f776e657220697320746865207a65726f206160448201526564647265737360d01b60648201526084015b60405180910390fd5b620001218162000051565b50565b6000546001600160a01b03163314620001805760405162461bcd60e51b815260206004820181905260248201527f4f776e61626c653a2063616c6c6572206973206e6f7420746865206f776e657260448201526064016200010d565b565b6000602082840312156200019557600080fd5b81516001600160a01b0381168114620001ad57600080fd5b9392505050565b6114bb80620001c46000396000f3fe608060405234801561001057600080fd5b50600436106101165760003560e01c806378566362116100a2578063ac96ebb511610071578063ac96ebb514610264578063cf2e763714610277578063dc5b68a61461028a578063e9171f661461029d578063f2fde38b146102c057600080fd5b80637856636214610208578063890171b81461022b5780638da5cb5b1461023e578063a918bd2b1461024f57600080fd5b8063247f79de116100e9578063247f79de146101975780632590bdae146101c557806335d9e297146101d85780634a9fe1c7146101eb578063715018a61461020057600080fd5b806306f0697f1461011b578063158ef93e1461014b57806319854c3e1461016f57806324215c0a14610184575b600080fd5b61012e610129366004611236565b6102d3565b6040516001600160a01b0390911681526020015b60405180910390f35b60015461015f90600160a01b900460ff1681565b6040519015158152602001610142565b61018261017d366004611236565b6105e9565b005b610182610192366004611236565b6106b4565b6101b76101a5366004611236565b60046020526000908152604090205481565b604051908152602001610142565b6101826101d336600461125a565b610761565b60025461012e906001600160a01b031681565b6101b760008051602061146683398151915281565b6101826109ae565b61015f610216366004611236565b60056020526000908152604090205460ff1681565b610182610239366004611236565b6109c2565b6000546001600160a01b031661012e565b6102576109d6565b6040516101429190611286565b61018261027236600461125a565b610a38565b60015461012e906001600160a01b031681565b6101826102983660046112d3565b610ce4565b61015f6102ab366004611236565b60036020526000908152604090205460ff1681565b6101826102ce366004611236565b610e16565b6001600160a01b03811660009081526003602052604081205460ff1661035b5760405162461bcd60e51b815260206004820152603260248201527f466163746f7279206d75737420626520617070726f76656420446576656c6f706044820152716572526567697374726172466163746f727960701b60648201526084015b60405180910390fd5b336000908152600460205260409020546103c95760405162461bcd60e51b815260206004820152602960248201527f43616c6c6572206d75737420626520617070726f76656420446576656c6f706560448201526872206164647265737360b81b6064820152608401610352565b336000818152600460208190526040808320805490849055905163b03e451360e01b8152918201939093526001600160a01b0385169063b03e4513906024016020604051808303816000875af1158015610427573d6000803e3d6000fd5b505050506040513d601f19601f8201168201806040525081019061044b919061136e565b600154604051630329904360e61b81526000805160206114668339815191526004820152602481018590526001600160a01b038084166044830181905260648301529293506000929091169063ca6410c0906084016020604051808303816000875af11580156104bf573d6000803e3d6000fd5b505050506040513d601f19601f820116820180604052508101906104e3919061138b565b604051639498bd7160e01b8152600481018290529091506001600160a01b03831690639498bd7190602401600060405180830381600087803b15801561052857600080fd5b505af115801561053c573d6000803e3d6000fd5b5050506001600160a01b038316600081815260056020526040808220805460ff191660019081179091556006805491820181559092527ff652222313e28459528d920b65115c16c04f3efc82aaedc97be59f3f377c0d3f90910180546001600160a01b03191683179055513392507f2f0a9db0c1d92a1cab1217392f67a282ddc5724265c6879aacb2651d672fed63906105d99085815260200190565b60405180910390a3509392505050565b6002546001600160a01b031633146106135760405162461bcd60e51b8152600401610352906113a4565b6001600160a01b0381166000908152600460205260409020546106705760405162461bcd60e51b815260206004820152601560248201527411195d995b1bdc195c881b9bdd08185b1b1bddd959605a1b6044820152606401610352565b6001600160a01b038116600081815260046020526040808220829055517f82de911888481c7214316239195038d4164f02a184f1fd14996150f640c78a889190a250565b6106bc610e8c565b6001600160a01b03811660009081526003602052604090205460ff166107185760405162461bcd60e51b8152602060048201526011602482015270119858dd1bdc9e481b9bdd081859191959607a1b6044820152606401610352565b6001600160a01b038116600081815260036020526040808220805460ff19169055517fe99b13a5e46faf0d7e10fdc6a73e3c4e51b19703670d9c70d0eb9b17e58b38979190a250565b6002546001600160a01b0316331461078b5760405162461bcd60e51b8152600401610352906113a4565b6001600160a01b038216600090815260046020526040902054156107f15760405162461bcd60e51b815260206004820152601960248201527f446576656c6f70657220616c726561647920616c6c6f776564000000000000006044820152606401610352565b806108325760405162461bcd60e51b8152602060048201526011602482015270092dcecc2d8d2c840dcc2daca40d0c2e6d607b1b6044820152606401610352565b6001600160a01b0382166108885760405162461bcd60e51b815260206004820152601f60248201527f496e76616c696420446576656c6f706572206f776e65722061646472657373006044820152606401610352565b600154604051636cefdc8560e11b81526000805160206114668339815191526004820152602481018390526000916001600160a01b03169063d9dfb90a90604401602060405180830381865afa1580156108e6573d6000803e3d6000fd5b505050506040513d601f19601f8201168201806040525081019061090a919061136e565b6001600160a01b0316146109555760405162461bcd60e51b81526020600482015260126024820152712730b6b29030b63932b0b23c903a30b5b2b760711b6044820152606401610352565b6001600160a01b03821660008181526004602052604090819020839055517f1bad6443c520634fc1b71e1405124c3514f0f6f4d1fd3a98bb31eb1e16446fda906109a29084815260200190565b60405180910390a25050565b6109b6610e8c565b6109c06000610ee6565b565b6109ca610e8c565b6109d381610f36565b50565b60606006805480602002602001604051908101604052809291908181526020018280548015610a2e57602002820191906000526020600020905b81546001600160a01b03168152600190910190602001808311610a10575b5050505050905090565b610a40610e8c565b6001600160a01b03821660009081526005602052604090205460ff16610aa85760405162461bcd60e51b815260206004820152601860248201527f4e6f74206120446576656c6f70657252656769737472617200000000000000006044820152606401610352565b600154604051639ccda3a760e01b81526000805160206114668339815191526004820152602481018390526000916001600160a01b031690639ccda3a790604401602060405180830381865afa158015610b06573d6000803e3d6000fd5b505050506040513d601f19601f82011682018060405250810190610b2a919061138b565b90506000836001600160a01b031663faff50a86040518163ffffffff1660e01b8152600401602060405180830381865afa158015610b6c573d6000803e3d6000fd5b505050506040513d601f19601f82011682018060405250810190610b90919061138b565b9050808214610bfd5760405162461bcd60e51b815260206004820152603360248201527f506173736564207375626e6f646520646f6573206e6f74206d6174636820526560448201527267697374726172277320726f6f74206e6f646560681b6064820152608401610352565b60015460405163098cd9d360e01b81526000805160206114668339815191526004820152602481018590526001600160a01b039091169063098cd9d390604401600060405180830381600087803b158015610c5757600080fd5b505af1158015610c6b573d6000803e3d6000fd5b5050506001600160a01b0385166000908152600560205260409020805460ff1916905550610c9a600685611039565b60408051838152602081018590526001600160a01b038616917f3d1c9a4caf243967e42e32a8241cc21d00320a59712bd4e5ec9fa98befd85a64910160405180910390a250505050565b610cec610e8c565b600154600160a01b900460ff1615610d465760405162461bcd60e51b815260206004820152601c60248201527f436f6e747261637420616c726561647920696e697469616c697a6564000000006044820152606401610352565b600180546001600160a01b038087166001600160a01b031992831617909255600280549284169290911691909117905560005b82811015610dc057610db0848483818110610d9657610d966113f1565b9050602002016020810190610dab9190611236565b610f36565b610db98161141d565b9050610d79565b506001805460ff60a01b1916600160a01b1790556040516001600160a01b03851681527f43dcf2166be267d8f6dc31580b9b1a605fddb5259a48dddd50b0348ac38fb24e9060200160405180910390a150505050565b610e1e610e8c565b6001600160a01b038116610e835760405162461bcd60e51b815260206004820152602660248201527f4f776e61626c653a206e6577206f776e657220697320746865207a65726f206160448201526564647265737360d01b6064820152608401610352565b6109d381610ee6565b6000546001600160a01b031633146109c05760405162461bcd60e51b815260206004820181905260248201527f4f776e61626c653a2063616c6c6572206973206e6f7420746865206f776e65726044820152606401610352565b600080546001600160a01b038381166001600160a01b0319831681178455604051919092169283917f8be0079c531659141344cd1fd0a4f28419497f9722a3daafe3b4186f6b6457e09190a35050565b6001600160a01b03811660009081526003602052604090205460ff1615610f975760405162461bcd60e51b8152602060048201526015602482015274119858dd1bdc9e48185b1c9958591e481859191959605a1b6044820152606401610352565b6001600160a01b038116610fed5760405162461bcd60e51b815260206004820152601760248201527f496e76616c696420666163746f727920616464726573730000000000000000006044820152606401610352565b6001600160a01b038116600081815260036020526040808220805460ff19166001179055517f0a7bac61b6491f191558c76e008d44376b804917b89743de3e06e70d8410e2959190a250565b60008061109f8480548060200260200160405190810160405280929190818152602001828054801561109457602002820191906000526020600020905b81546001600160a01b03168152600190910190602001808311611076575b5050505050846111ac565b91509150806110e85760405162461bcd60e51b815260206004820152601560248201527420b2323932b9b9903737ba1034b71030b93930bc9760591b6044820152606401610352565b83546000906110f990600190611436565b905080831461117357848181548110611114576111146113f1565b9060005260206000200160009054906101000a90046001600160a01b0316858481548110611144576111446113f1565b9060005260206000200160006101000a8154816001600160a01b0302191690836001600160a01b031602179055505b848054806111835761118361144f565b600082815260209020810160001990810180546001600160a01b03191690550190555050505050565b81516000908190815b8181101561120e57846001600160a01b03168682815181106111d9576111d96113f1565b60200260200101516001600160a01b0316036111fc5792506001915061121a9050565b806112068161141d565b9150506111b5565b50600019600092509250505b9250929050565b6001600160a01b03811681146109d357600080fd5b60006020828403121561124857600080fd5b813561125381611221565b9392505050565b6000806040838503121561126d57600080fd5b823561127881611221565b946020939093013593505050565b6020808252825182820181905260009190848201906040850190845b818110156112c75783516001600160a01b0316835292840192918401916001016112a2565b50909695505050505050565b600080600080606085870312156112e957600080fd5b84356112f481611221565b9350602085013567ffffffffffffffff8082111561131157600080fd5b818701915087601f83011261132557600080fd5b81358181111561133457600080fd5b8860208260051b850101111561134957600080fd5b602083019550809450505050604085013561136381611221565b939692955090935050565b60006020828403121561138057600080fd5b815161125381611221565b60006020828403121561139d57600080fd5b5051919050565b6020808252602d908201527f4f6e6c7920746865204e616d6520476f7665726e6f722063616e2063616c6c2060408201526c3a3434b990333ab731ba34b7b760991b606082015260800190565b634e487b7160e01b600052603260045260246000fd5b634e487b7160e01b600052601160045260246000fd5b60006001820161142f5761142f611407565b5060010190565b8181038181111561144957611449611407565b92915050565b634e487b7160e01b600052603160045260246000fdfeda53397877d78746657194546b25f20b5c2e580045028a6fa27f07cf94e704baa2646970667358221220d16ad503333ba23d5c741306582e20a9693a7c1986b172b6e49a955df31b3f5d64736f6c63430008110033"
}