{
  "address": "0x9Eb8550d62457B17DFF95606b4064afEc72585d8",
  "abi": [
    {
      "inputs": [
        {
          "internalType": "address",
          "name": "_governance",
          "type": "address"
        }
      ],
      "stateMutability": "nonpayable",
      "type": "constructor"
    },
    {
      "anonymous": false,
      "inputs": [
        {
          "indexed": true,
          "internalType": "address",
          "name": "developerOwner",
          "type": "address"
        },
        {
          "indexed": false,
          "internalType": "bytes32",
          "name": "nameHash",
          "type": "bytes32"
        }
      ],
      "name": "DeveloperAllowed",
      "type": "event"
    },
    {
      "anonymous": false,
      "inputs": [
        {
          "indexed": true,
          "internalType": "address",
          "name": "developerOwner",
          "type": "address"
        }
      ],
      "name": "DeveloperDisallowed",
      "type": "event"
    },
    {
      "anonymous": false,
      "inputs": [
        {
          "indexed": true,
          "internalType": "address",
          "name": "developerRegistrar",
          "type": "address"
        },
        {
          "indexed": true,
          "internalType": "address",
          "name": "owner",
          "type": "address"
        },
        {
          "indexed": false,
          "internalType": "bytes32",
          "name": "rootNode",
          "type": "bytes32"
        }
      ],
      "name": "DeveloperRegistrarAdded",
      "type": "event"
    },
    {
      "anonymous": false,
      "inputs": [
        {
          "indexed": true,
          "internalType": "address",
          "name": "developerRegistrar",
          "type": "address"
        },
        {
          "indexed": false,
          "internalType": "bytes32",
          "name": "subnode",
          "type": "bytes32"
        },
        {
          "indexed": false,
          "internalType": "bytes32",
          "name": "_nameHash",
          "type": "bytes32"
        }
      ],
      "name": "DeveloperRegistrarRevoked",
      "type": "event"
    },
    {
      "anonymous": false,
      "inputs": [
        {
          "indexed": true,
          "internalType": "address",
          "name": "previousOwner",
          "type": "address"
        },
        {
          "indexed": true,
          "internalType": "address",
          "name": "newOwner",
          "type": "address"
        }
      ],
      "name": "OwnershipTransferStarted",
      "type": "event"
    },
    {
      "anonymous": false,
      "inputs": [
        {
          "indexed": true,
          "internalType": "address",
          "name": "previousOwner",
          "type": "address"
        },
        {
          "indexed": true,
          "internalType": "address",
          "name": "newOwner",
          "type": "address"
        }
      ],
      "name": "OwnershipTransferred",
      "type": "event"
    },
    {
      "anonymous": false,
      "inputs": [
        {
          "indexed": true,
          "internalType": "address",
          "name": "factory",
          "type": "address"
        }
      ],
      "name": "RegistrarFactoryAdded",
      "type": "event"
    },
    {
      "anonymous": false,
      "inputs": [
        {
          "indexed": true,
          "internalType": "address",
          "name": "factory",
          "type": "address"
        }
      ],
      "name": "RegistrarFactoryRemoved",
      "type": "event"
    },
    {
      "anonymous": false,
      "inputs": [
        {
          "indexed": false,
          "internalType": "address",
          "name": "ers",
          "type": "address"
        }
      ],
      "name": "RegistryInitialized",
      "type": "event"
    },
    {
      "inputs": [],
      "name": "ROOT_NODE",
      "outputs": [
        {
          "internalType": "bytes32",
          "name": "",
          "type": "bytes32"
        }
      ],
      "stateMutability": "view",
      "type": "function"
    },
    {
      "inputs": [],
      "name": "acceptOwnership",
      "outputs": [],
      "stateMutability": "nonpayable",
      "type": "function"
    },
    {
      "inputs": [
        {
          "internalType": "address",
          "name": "_developerOwner",
          "type": "address"
        },
        {
          "internalType": "bytes32",
          "name": "_nameHash",
          "type": "bytes32"
        }
      ],
      "name": "addAllowedDeveloper",
      "outputs": [],
      "stateMutability": "nonpayable",
      "type": "function"
    },
    {
      "inputs": [
        {
          "internalType": "contract IDeveloperRegistrarFactory",
          "name": "_factory",
          "type": "address"
        }
      ],
      "name": "addRegistrarFactory",
      "outputs": [],
      "stateMutability": "nonpayable",
      "type": "function"
    },
    {
      "inputs": [
        {
          "internalType": "contract IDeveloperRegistrarFactory",
          "name": "_factory",
          "type": "address"
        }
      ],
      "name": "createNewDeveloperRegistrar",
      "outputs": [
        {
          "internalType": "address",
          "name": "",
          "type": "address"
        }
      ],
      "stateMutability": "nonpayable",
      "type": "function"
    },
    {
      "inputs": [],
      "name": "ersRegistry",
      "outputs": [
        {
          "internalType": "contract IERS",
          "name": "",
          "type": "address"
        }
      ],
      "stateMutability": "view",
      "type": "function"
    },
    {
      "inputs": [],
      "name": "getDeveloperRegistrars",
      "outputs": [
        {
          "internalType": "address[]",
          "name": "",
          "type": "address[]"
        }
      ],
      "stateMutability": "view",
      "type": "function"
    },
    {
      "inputs": [
        {
          "internalType": "contract IERS",
          "name": "_ers",
          "type": "address"
        },
        {
          "internalType": "contract IDeveloperRegistrarFactory[]",
          "name": "_factories",
          "type": "address[]"
        },
        {
          "internalType": "address",
          "name": "_nameGovernor",
          "type": "address"
        }
      ],
      "name": "initialize",
      "outputs": [],
      "stateMutability": "nonpayable",
      "type": "function"
    },
    {
      "inputs": [],
      "name": "initialized",
      "outputs": [
        {
          "internalType": "bool",
          "name": "",
          "type": "bool"
        }
      ],
      "stateMutability": "view",
      "type": "function"
    },
    {
      "inputs": [
        {
          "internalType": "address",
          "name": "",
          "type": "address"
        }
      ],
      "name": "isDeveloperRegistrar",
      "outputs": [
        {
          "internalType": "bool",
          "name": "",
          "type": "bool"
        }
      ],
      "stateMutability": "view",
      "type": "function"
    },
    {
      "inputs": [],
      "name": "nameGovernor",
      "outputs": [
        {
          "internalType": "address",
          "name": "",
          "type": "address"
        }
      ],
      "stateMutability": "view",
      "type": "function"
    },
    {
      "inputs": [],
      "name": "owner",
      "outputs": [
        {
          "internalType": "address",
          "name": "",
          "type": "address"
        }
      ],
      "stateMutability": "view",
      "type": "function"
    },
    {
      "inputs": [
        {
          "internalType": "address",
          "name": "",
          "type": "address"
        }
      ],
      "name": "pendingDevelopers",
      "outputs": [
        {
          "internalType": "bytes32",
          "name": "",
          "type": "bytes32"
        }
      ],
      "stateMutability": "view",
      "type": "function"
    },
    {
      "inputs": [],
      "name": "pendingOwner",
      "outputs": [
        {
          "internalType": "address",
          "name": "",
          "type": "address"
        }
      ],
      "stateMutability": "view",
      "type": "function"
    },
    {
      "inputs": [
        {
          "internalType": "contract IDeveloperRegistrarFactory",
          "name": "",
          "type": "address"
        }
      ],
      "name": "registrarFactories",
      "outputs": [
        {
          "internalType": "bool",
          "name": "",
          "type": "bool"
        }
      ],
      "stateMutability": "view",
      "type": "function"
    },
    {
      "inputs": [
        {
          "internalType": "address",
          "name": "_developerOwner",
          "type": "address"
        }
      ],
      "name": "removeAllowedDeveloper",
      "outputs": [],
      "stateMutability": "nonpayable",
      "type": "function"
    },
    {
      "inputs": [
        {
          "internalType": "contract IDeveloperRegistrarFactory",
          "name": "_factory",
          "type": "address"
        }
      ],
      "name": "removeRegistrarFactory",
      "outputs": [],
      "stateMutability": "nonpayable",
      "type": "function"
    },
    {
      "inputs": [],
      "name": "renounceOwnership",
      "outputs": [],
      "stateMutability": "nonpayable",
      "type": "function"
    },
    {
      "inputs": [
        {
          "internalType": "address",
          "name": "_developerRegistrar",
          "type": "address"
        },
        {
          "internalType": "bytes32",
          "name": "_nameHash",
          "type": "bytes32"
        }
      ],
      "name": "revokeDeveloperRegistrar",
      "outputs": [],
      "stateMutability": "nonpayable",
      "type": "function"
    },
    {
      "inputs": [
        {
          "internalType": "address",
          "name": "newOwner",
          "type": "address"
        }
      ],
      "name": "transferOwnership",
      "outputs": [],
      "stateMutability": "nonpayable",
      "type": "function"
    }
  ],
  "transactionHash": "0x4aa80db7266bbe947ddfe1107da947f0d28c5e96273ed02ca169e1e48de3ed10",
  "args": [
    "0x137287d5c3A2A5b0718ACEba486727F201491f92"
  ],
  "numDeployments": 1,
  "solcInputHash": "e447b785d12f2f17f3136e5a46204389",
  "bytecode": "0x6080346100d357601f61148e38819003918201601f19168301916001600160401b038311848410176100d8578084926020946040528339810103126100d357516001600160a01b0390818116908190036100d357600154600080546001600160a01b0319818116339081178455929585949091169291167f8be0079c531659141344cd1fd0a4f28419497f9722a3daafe3b4186f6b6457e08680a317600155604051917f38d16b8cac22d99fc7c124b9cd0de2d3fa1faef420bfe791d8c362d765e22700339180a361139f90816100ef8239f35b600080fd5b634e487b7160e01b600052604160045260246000fdfe60806040908082526004918236101561001757600080fd5b600092833560e01c92836306f0697f14610d4757508263158ef93e14610d2057826319854c3e14610c6957826324215c0a14610bb9578263247f79de14610b815782632590bdae1461098457826335d9e2971461095b5782634a9fe1c714610932578263715018a6146108cc578263785663621461088e57826379ba5097146107c2578263890171b81461078a5782638da5cb5b14610762578263a918bd2b146106f8578263ac96ebb514610383578263cf2e76371461035a578263dc5b68a6146101e7578263e30c3978146101ba578263e9171f661461017257505063f2fde38b1461010357600080fd5b3461016f57602036600319011261016f5761011c611024565b6101246111ba565b600180546001600160a01b0319166001600160a01b0392831690811790915582549091167f38d16b8cac22d99fc7c124b9cd0de2d3fa1faef420bfe791d8c362d765e227008380a380f35b80fd5b909150346101b65760203660031901126101b65780356001600160a01b038116908190036101b2578360ff92849260209652855220541690519015158152f35b8380fd5b8280fd5b8382346101e357816003193601126101e35760015490516001600160a01b039091168152602090f35b5080fd5b9150346101b65760603660031901126101b6576001600160a01b0382358181169390849003610356576024803567ffffffffffffffff9283821161035257366023830112156103525781810135938411610352576005903660248660051b8501011161034e5760443590868216809203610349576102636111ba565b6002549060ff8260a01c166103065750886bffffffffffffffffffffffff60a01b809216176002556003541617600355875b8481106102df576002805460ff60a01b1916600160a01b179055865188815289907f43dcf2166be267d8f6dc31580b9b1a605fddb5259a48dddd50b0348ac38fb24e90602090a180f35b8381831b84010135908682168203610302576102fc600192611212565b01610295565b8980fd5b60649060208a519162461bcd60e51b8352820152601c60248201527f436f6e747261637420616c726561647920696e697469616c697a6564000000006044820152fd5b600080fd5b8880fd5b8780fd5b8480fd5b8382346101e357816003193601126101e35760025490516001600160a01b039091168152602090f35b9150346101b657806003193601126101b65761039d611024565b9060249384356103ab6111ba565b60018060a01b0393848116918284526020956006875260ff8686205416156106b657806002541692865193639ccda3a760e01b855260008051602061134a83398151915290818b870152848c8701528986604481845afa9586156106ac57889661067d575b508851631f5fea1560e31b81528a818d818b5afa908115610673578991610646575b5086036105e857803b15610352578b9160448c8a8094898e51978896879563098cd9d360e01b87528601528401525af180156105de579087916105c6575b5090856104a292526006895287872060ff198154169055875161049d8161049681611154565b0382611064565b6112f6565b6104e057865162461bcd60e51b8152808a018990526015818c01527420b2323932b9b9903737ba1034b71030b93930bc9760591b6044820152606490fd5b90919396929497600754600019928382019182116105b45790818186930361056f575b50505060075490811561055d57507f3d1c9a4caf243967e42e32a8241cc21d00320a59712bd4e5ec9fa98befd85a64979899500190610541826110a5565b909182549160031b1b191690556007558351928352820152a280f35b634e487b7160e01b8a52603190528989fd5b6105ac9261057f610588936110a5565b939054926110a5565b92909360031b1c169060018060a01b038084549260031b9316831b921b1916179055565b823880610503565b634e487b7160e01b8b52601183528b8bfd5b6105cf9061103a565b6105da578538610470565b8580fd5b88513d89823e3d90fd5b885162461bcd60e51b8152808c018b90526033818e01527f506173736564207375626e6f646520646f6573206e6f74206d6174636820526560448201527267697374726172277320726f6f74206e6f646560681b6064820152608490fd5b90508a81813d831161066c575b61065d8183611064565b81010312610349575138610432565b503d610653565b8a513d8b823e3d90fd5b9095508981813d83116106a5575b6106958183611064565b8101031261034957519438610410565b503d61068b565b89513d8a823e3d90fd5b855162461bcd60e51b81528089018890526018818b01527f4e6f74206120446576656c6f70657252656769737472617200000000000000006044820152606490fd5b8382346101e357816003193601126101e35780516107198161049681611154565b815192839260208080860192818752855180945286019401925b82811061074257505050500390f35b83516001600160a01b031685528695509381019392810192600101610733565b8382346101e357816003193601126101e357905490516001600160a01b039091168152602090f35b8390346101e35760203660031901126101e357356001600160a01b03811681036101e3576107bf906107ba6111ba565b611212565b80f35b9150346101b657826003193601126101b657600154916001600160a01b039133838516036108395750506bffffffffffffffffffffffff60a01b8092166001556000549133908316176000553391167f8be0079c531659141344cd1fd0a4f28419497f9722a3daafe3b4186f6b6457e0600080a380f35b906020608492519162461bcd60e51b8352820152602960248201527f4f776e61626c6532537465703a2063616c6c6572206973206e6f7420746865206044820152683732bb9037bbb732b960b91b6064820152fd5b8382346101e35760203660031901126101e35760209160ff9082906001600160a01b036108b9611024565b1681526006855220541690519015158152f35b833461016f578060031936011261016f576108e56111ba565b600180546001600160a01b0319908116909155600080549182168155906001600160a01b03167f8be0079c531659141344cd1fd0a4f28419497f9722a3daafe3b4186f6b6457e08280a380f35b8382346101e357816003193601126101e3576020905160008051602061134a8339815191528152f35b8382346101e357816003193601126101e35760035490516001600160a01b039091168152602090f35b909150346101b657816003193601126101b65761099f611024565b9060249283359160018060a01b0380946109be826003541633146110f2565b16948587526020946005865283882054610b40578415610b0b578615610aca576044868260025416865192838092636cefdc8560e11b825260008051602061134a833981519152898301528a888301525afa908115610ac0578991610a93575b5016610a5e575050907f1bad6443c520634fc1b71e1405124c3514f0f6f4d1fd3a98bb31eb1e16446fda929184865260058352818187205551908152a280f35b60129085606494519362461bcd60e51b8552840152820152712730b6b29030b63932b0b23c903a30b5b2b760711b6044820152fd5b610ab39150873d8911610ab9575b610aab8183611064565b810190611086565b38610a1e565b503d610aa1565b85513d8b823e3d90fd5b50601f9085606494519362461bcd60e51b85528401528201527f496e76616c696420446576656c6f706572206f776e65722061646472657373006044820152fd5b5060119085606494519362461bcd60e51b855284015282015270092dcecc2d8d2c840dcc2daca40d0c2e6d607b1b6044820152fd5b5060199085606494519362461bcd60e51b85528401528201527f446576656c6f70657220616c726561647920616c6c6f776564000000000000006044820152fd5b8382346101e35760203660031901126101e35760209181906001600160a01b03610ba9611024565b1681526005845220549051908152f35b9150346101b65760203660031901126101b65781356001600160a01b03811692908390036101b257610be96111ba565b8284528060205260ff828520541615610c33578284526020528220805460ff191690557fe99b13a5e46faf0d7e10fdc6a73e3c4e51b19703670d9c70d0eb9b17e58b38978280a280f35b6020606492519162461bcd60e51b83528201526011602482015270119858dd1bdc9e481b9bdd081859191959607a1b6044820152fd5b9150346101b65760203660031901126101b657610c84611024565b6003546001600160a01b039190610c9e90831633146110f2565b169182845260056020528184205415610ce65750829082825260056020528120557f82de911888481c7214316239195038d4164f02a184f1fd14996150f640c78a888280a280f35b6020606492519162461bcd60e51b8352820152601560248201527411195d995b1bdc195c881b9bdd08185b1b1bddd959605a1b6044820152fd5b8382346101e357816003193601126101e35760209060ff60025460a01c1690519015158152f35b82853461016f57602093846003193601126101e3576001600160a01b03813581811695908690036101b25785845282875260ff858520541615610fc85750338352600586528383205415610f7357908291338352600587528685842096848854985583875180968193636fd3d74f60e11b83525af1928315610f6957849188918395610f4a575b50608481600254169888519788938492630329904360e61b845260008051602061134a83398151915289850152602484015288169a8b60448401528b60648401525af1938415610f3e578194610f0f575b50853b1561016f578451632f84fd1f60e21b81523383820152602481018590528181604481838b5af18015610f0557610ef6575b5085815260068752848120805460ff191660011790556007549168010000000000000000831015610ee357505090610e94826001610eb294016007556110a5565b90919060018060a01b038084549260031b9316831b921b1916179055565b8151908152827f2f0a9db0c1d92a1cab1217392f67a282ddc5724265c6879aacb2651d672fed63853393a351908152f35b634e487b7160e01b825260419052602490fd5b610eff9061103a565b87610e53565b86513d84823e3d90fd5b9093508681813d8311610f37575b610f278183611064565b810103126101b257519287610e1f565b503d610f1d565b508451903d90823e3d90fd5b610f62919550823d8411610ab957610aab8183611064565b9389610dce565b85513d86823e3d90fd5b835162461bcd60e51b8152808301879052602960248201527f43616c6c6572206d75737420626520617070726f76656420446576656c6f706560448201526872206164647265737360b81b6064820152608490fd5b62461bcd60e51b8152828101879052603260248201527f466163746f7279206d75737420626520617070726f76656420446576656c6f706044820152716572526567697374726172466163746f727960701b6064820152608490fd5b600435906001600160a01b038216820361034957565b67ffffffffffffffff811161104e57604052565b634e487b7160e01b600052604160045260246000fd5b90601f8019910116810190811067ffffffffffffffff82111761104e57604052565b9081602091031261034957516001600160a01b03811681036103495790565b6007548110156110dc5760076000527fa66cc928b5edb82af9bd49922954155ab7b0942694bea4ce44661d9a8736c6880190600090565b634e487b7160e01b600052603260045260246000fd5b156110f957565b60405162461bcd60e51b815260206004820152602d60248201527f4f6e6c7920746865204e616d6520476f7665726e6f722063616e2063616c6c2060448201526c3a3434b990333ab731ba34b7b760991b6064820152608490fd5b6007549081815260208091019160076000527fa66cc928b5edb82af9bd49922954155ab7b0942694bea4ce44661d9a8736c688916000905b82821061119a575050505090565b83546001600160a01b03168552938401936001938401939091019061118c565b6000546001600160a01b031633036111ce57565b606460405162461bcd60e51b815260206004820152602060248201527f4f776e61626c653a2063616c6c6572206973206e6f7420746865206f776e65726044820152fd5b6001600160a01b031660008181526004602052604081205460ff166112b957811561127457818152600460205260408120805460ff191660011790557f0a7bac61b6491f191558c76e008d44376b804917b89743de3e06e70d8410e2959080a2565b60405162461bcd60e51b815260206004820152601760248201527f496e76616c696420666163746f727920616464726573730000000000000000006044820152606490fd5b60405162461bcd60e51b8152602060048201526015602482015274119858dd1bdc9e48185b1c9958591e481859191959605a1b6044820152606490fd5b9081519160005b838110611311575050505060001990600090565b81518110156110dc57600581901b8201602001516001600160a01b0384811691161461133f576001016112fd565b925050509060019056feda53397877d78746657194546b25f20b5c2e580045028a6fa27f07cf94e704baa264697066735822122087eee6828ada84f928ce1ee7fcbc1c5eb3ecb32384d2aa9a4b71d01da7cde78464736f6c63430008180033"
}