{
  "address": "0x1d628339c8b8E51ca9C753755A6ac611B4707252",
  "abi": [
    {
      "inputs": [],
      "stateMutability": "nonpayable",
      "type": "constructor"
    },
    {
      "inputs": [
        {
          "internalType": "address",
          "name": "_chipId",
          "type": "address"
        },
        {
          "internalType": "address",
          "name": "_manufacturerCertSigner",
          "type": "address"
        },
        {
          "internalType": "bytes",
          "name": "_manufacturerCertificate",
          "type": "bytes"
        },
        {
          "internalType": "bytes",
          "name": "",
          "type": "bytes"
        }
      ],
      "name": "verifyManufacturerCertificate",
      "outputs": [
        {
          "internalType": "bool",
          "name": "",
          "type": "bool"
        }
      ],
      "stateMutability": "view",
      "type": "function"
    }
  ],
  "transactionHash": "0x99944ddb15d66efa12a306e0c102733c10d2a526fd56100d373ac30b4b03eae4",
  "args": [],
  "numDeployments": 1,
  "solcInputHash": "e447b785d12f2f17f3136e5a46204389",
  "bytecode": "0x60808060405234610016576105d1908161001c8239f35b600080fdfe608060408181526004908136101561001657600080fd5b6000803560e01c63290707101461002c57600080fd5b34610338576080366003190112610338578235936001600160a01b039081861686036104265760243590828216968783036104225767ffffffffffffffff9760443589811161041e576100829036908a0161042a565b9390926064358b811161041a5761009c9036908c0161042a565b505060601b6bffffffffffffffffffffffff19166020828101918252601483529a8983019081118382101761040757895281518894939290918c91868c858f7a184f03e93ff9f4daa797ed6e38ed64bf6a1f010000000000000000808310156103f9575b506d04ee2d6d415b85acef8100000000808310156103eb575b50662386f26fc10000808310156103dc575b506305f5e100808310156103cd575b50612710808310156103c1575b505060648110156103b3575b600a809110156103a9575b6001808b01978161016e8a610495565b9985519a61017c908c61045d565b808b5261018890610495565b9c898b0196601f199e8f01368937508a01602101905b610373575b5050505092603a926101fc6101ed969361020b96519788958601997f19457468657265756d205369676e6564204d6573736167653a0a0000000000008b52518092888801906104b1565b840191518093868401906104b1565b0103601a81018452018261045d565b5190209561021885610495565b946102258a51968761045d565b8086528b860193368282011161036f57818a928e9287378701015261024a85886104d4565b909a600582101561035c5750908b94939291159a8b610350575b5050508815610279575b828989519015158152f35b87985060848893889993601f6102d3946102c18c9b9c9a999751978895860199630b135d3f60e11b9e8f8c5260248801526044870152518092816064880152878701906104b1565b0116810103606481018452018261045d565b51915afa913d15610348573d906102e982610495565b916102f68651938461045d565b82523d818784013e5b8361033b575b8361031b575b505050903880808086818061026e565b90919250848280518101031261033857508301511438808061030b565b80fd5b9250848151101592610305565b6060906102ff565b16149850388080610264565b634e487b7160e01b8a5260219052602489fd5b8980fd5b600019019083906f181899199a1a9b1b9c1cb0b131b232b360811b8282061a8353049182156103a45791908261019e565b6101a3565b986001019861015e565b606460029104990198610153565b9a019990048f38610147565b6008919b92049101993861013a565b6010919b92049101993861012b565b87919b920491019938610119565b915099508604819938610100565b634e487b7160e01b895260418b52602489fd5b8880fd5b8680fd5b8480fd5b8280fd5b9181601f840112156104585782359167ffffffffffffffff8311610458576020838186019501011161045857565b600080fd5b90601f8019910116810190811067ffffffffffffffff82111761047f57604052565b634e487b7160e01b600052604160045260246000fd5b67ffffffffffffffff811161047f57601f01601f191660200190565b60005b8381106104c45750506000910152565b81810151838201526020016104b4565b906041815114600014610502576104fe916020820151906060604084015193015160001a9061050c565b9091565b5050600090600290565b9291907f7fffffffffffffffffffffffffffffff5d576e7357a4501ddfe92f46681b20a0831161058f5791608094939160ff602094604051948552168484015260408301526060820152600093849182805260015afa156105825781516001600160a01b0381161561057c579190565b50600190565b50604051903d90823e3d90fd5b5050505060009060039056fea2646970667358221220353f03f6b05c334ac2257d4ce7e2f462f7bf86a9e3ebeb1984dc04babe46c63f64736f6c63430008180033"
}