{
  "address": "0x82eD77dE858CC867E26844A6D04A8027D68a6E94",
  "abi": [
    {
      "inputs": [
        {
          "internalType": "contract IChipRegistry",
          "name": "_chipRegistry",
          "type": "address"
        },
        {
          "internalType": "contract IDeveloperRegistry",
          "name": "_developerRegistry",
          "type": "address"
        }
      ],
      "stateMutability": "nonpayable",
      "type": "constructor"
    },
    {
      "anonymous": false,
      "inputs": [
        {
          "indexed": true,
          "internalType": "bytes32",
          "name": "node",
          "type": "bytes32"
        },
        {
          "indexed": true,
          "internalType": "bytes32",
          "name": "subnode",
          "type": "bytes32"
        },
        {
          "indexed": true,
          "internalType": "bytes32",
          "name": "nameHash",
          "type": "bytes32"
        },
        {
          "indexed": false,
          "internalType": "address",
          "name": "owner",
          "type": "address"
        }
      ],
      "name": "NewOwner",
      "type": "event"
    },
    {
      "anonymous": false,
      "inputs": [
        {
          "indexed": true,
          "internalType": "bytes32",
          "name": "node",
          "type": "bytes32"
        },
        {
          "indexed": false,
          "internalType": "address",
          "name": "resolver",
          "type": "address"
        }
      ],
      "name": "NewResolver",
      "type": "event"
    },
    {
      "anonymous": false,
      "inputs": [
        {
          "indexed": true,
          "internalType": "bytes32",
          "name": "node",
          "type": "bytes32"
        },
        {
          "indexed": false,
          "internalType": "address",
          "name": "owner",
          "type": "address"
        }
      ],
      "name": "Transfer",
      "type": "event"
    },
    {
      "inputs": [],
      "name": "chipRegistry",
      "outputs": [
        {
          "internalType": "contract IChipRegistry",
          "name": "",
          "type": "address"
        }
      ],
      "stateMutability": "view",
      "type": "function"
    },
    {
      "inputs": [
        {
          "internalType": "bytes32",
          "name": "_node",
          "type": "bytes32"
        },
        {
          "internalType": "bytes32",
          "name": "_nameHash",
          "type": "bytes32"
        },
        {
          "internalType": "address",
          "name": "_owner",
          "type": "address"
        },
        {
          "internalType": "address",
          "name": "_resolver",
          "type": "address"
        }
      ],
      "name": "createSubnodeRecord",
      "outputs": [
        {
          "internalType": "bytes32",
          "name": "",
          "type": "bytes32"
        }
      ],
      "stateMutability": "nonpayable",
      "type": "function"
    },
    {
      "inputs": [
        {
          "internalType": "bytes32",
          "name": "_node",
          "type": "bytes32"
        },
        {
          "internalType": "bytes32",
          "name": "_nameHash",
          "type": "bytes32"
        }
      ],
      "name": "deleteSubnodeRecord",
      "outputs": [],
      "stateMutability": "nonpayable",
      "type": "function"
    },
    {
      "inputs": [],
      "name": "developerRegistry",
      "outputs": [
        {
          "internalType": "contract IDeveloperRegistry",
          "name": "",
          "type": "address"
        }
      ],
      "stateMutability": "view",
      "type": "function"
    },
    {
      "inputs": [
        {
          "internalType": "bytes32",
          "name": "_node",
          "type": "bytes32"
        }
      ],
      "name": "getOwner",
      "outputs": [
        {
          "internalType": "address",
          "name": "",
          "type": "address"
        }
      ],
      "stateMutability": "view",
      "type": "function"
    },
    {
      "inputs": [
        {
          "internalType": "bytes32",
          "name": "_node",
          "type": "bytes32"
        }
      ],
      "name": "getResolver",
      "outputs": [
        {
          "internalType": "address",
          "name": "",
          "type": "address"
        }
      ],
      "stateMutability": "view",
      "type": "function"
    },
    {
      "inputs": [
        {
          "internalType": "bytes32",
          "name": "_node",
          "type": "bytes32"
        },
        {
          "internalType": "bytes32",
          "name": "_nameHash",
          "type": "bytes32"
        }
      ],
      "name": "getSubnodeHash",
      "outputs": [
        {
          "internalType": "bytes32",
          "name": "",
          "type": "bytes32"
        }
      ],
      "stateMutability": "pure",
      "type": "function"
    },
    {
      "inputs": [
        {
          "internalType": "bytes32",
          "name": "_node",
          "type": "bytes32"
        },
        {
          "internalType": "bytes32",
          "name": "_nameHash",
          "type": "bytes32"
        }
      ],
      "name": "getSubnodeOwner",
      "outputs": [
        {
          "internalType": "address",
          "name": "",
          "type": "address"
        }
      ],
      "stateMutability": "view",
      "type": "function"
    },
    {
      "inputs": [
        {
          "internalType": "bytes32",
          "name": "_node",
          "type": "bytes32"
        },
        {
          "internalType": "address",
          "name": "_chipId",
          "type": "address"
        },
        {
          "internalType": "address",
          "name": "_owner",
          "type": "address"
        }
      ],
      "name": "isValidChipState",
      "outputs": [
        {
          "internalType": "bool",
          "name": "",
          "type": "bool"
        }
      ],
      "stateMutability": "view",
      "type": "function"
    },
    {
      "inputs": [
        {
          "internalType": "bytes32",
          "name": "_node",
          "type": "bytes32"
        }
      ],
      "name": "recordExists",
      "outputs": [
        {
          "internalType": "bool",
          "name": "",
          "type": "bool"
        }
      ],
      "stateMutability": "view",
      "type": "function"
    },
    {
      "inputs": [
        {
          "internalType": "bytes32",
          "name": "",
          "type": "bytes32"
        }
      ],
      "name": "records",
      "outputs": [
        {
          "internalType": "address",
          "name": "owner",
          "type": "address"
        },
        {
          "internalType": "address",
          "name": "resolver",
          "type": "address"
        }
      ],
      "stateMutability": "view",
      "type": "function"
    },
    {
      "inputs": [
        {
          "internalType": "bytes32",
          "name": "_node",
          "type": "bytes32"
        },
        {
          "internalType": "address",
          "name": "_newOwner",
          "type": "address"
        }
      ],
      "name": "setNodeOwner",
      "outputs": [],
      "stateMutability": "nonpayable",
      "type": "function"
    }
  ],
  "transactionHash": "0x56d510bef6aa4011120efa89593ff54a1e4544c08b62d448e2a66d85d3bf5bd3",
  "args": [
    "0xf4276dAdd4d6CA059d9B5443B6Da34C4906FaA33",
    "0x15F490909EB5d9c240d2a3236710569290AFA8ce"
  ],
  "numDeployments": 1,
  "solcInputHash": "5fcfa18e4a4c3d18ea9c3144e86bb365",
  "bytecode": "0x60c060405234801561001057600080fd5b50604051610b16380380610b1683398101604081905261002f91610097565b6001600160a01b039182166080521660a05260008080526020527fad3228b676f7d3cd4284a5443f17f1962b36e491b30a40b2405849e597ba5fb580546001600160a01b031916331790556100d1565b6001600160a01b038116811461009457600080fd5b50565b600080604083850312156100aa57600080fd5b82516100b58161007f565b60208401519092506100c68161007f565b809150509250929050565b60805160a051610a126101046000396000818161012c015261035f01526000818161016b01526104b30152610a126000f3fe608060405234801561001057600080fd5b50600436106100b45760003560e01c8063a66dd8a311610071578063a66dd8a3146101e8578063ca6410c01461020b578063d9dfb90a1461021e578063deb931a214610271578063ea6ec3de1461029a578063f79fe538146102c657600080fd5b806301e64725146100b9578063098cd9d314610112578063107d0be11461012757806311e6575b146101665780637161ad191461018d5780639ccda3a7146101a0575b600080fd5b6100ed6100c73660046108d7565b600060208190529081526040902080546001909101546001600160a01b03918216911682565b604080516001600160a01b039384168152929091166020830152015b60405180910390f35b6101256101203660046108f0565b6102f1565b005b61014e7f000000000000000000000000000000000000000000000000000000000000000081565b6040516001600160a01b039091168152602001610109565b61014e7f000000000000000000000000000000000000000000000000000000000000000081565b61012561019b36600461092e565b6104a9565b6101da6101ae3660046108f0565b604080516020808201949094528082019290925280518083038201815260609092019052805191012090565b604051908152602001610109565b6101fb6101f636600461095a565b61065c565b6040519015158152602001610109565b6101da610219366004610996565b6106a9565b61014e61022c3660046108f0565b6040805160208082019490945280820192909252805180830382018152606090920181528151918301919091206000908152918290529020546001600160a01b031690565b61014e61027f3660046108d7565b6000908152602081905260409020546001600160a01b031690565b61014e6102a83660046108d7565b6000908152602081905260409020600101546001600160a01b031690565b6101fb6102d43660046108d7565b6000908152602081905260409020546001600160a01b0316151590565b60008281526020819052604090205482906001600160a01b03163381146103545760405162461bcd60e51b815260206004820152601260248201527126bab9ba103132903737b2329037bbb732b960711b60448201526064015b60405180910390fd5b336001600160a01b037f000000000000000000000000000000000000000000000000000000000000000016146103cc5760405162461bcd60e51b815260206004820181905260248201527f43616c6c6572206d75737420626520446576656c6f7065725265676973747279604482015260640161034b565b60408051602080820187905281830186905282518083038401815260609092018352815191810191909120600081815291829052919020546001600160a01b03166104525760405162461bcd60e51b815260206004820152601660248201527514dd589b9bd91948191bd95cc81b9bdd08195e1a5cdd60521b604482015260640161034b565b61045d816000610844565b610468816000610872565b604051600081528490829087907f3d599ae2b88b8766d9da5fd15cdbadf1de6d483307edf94b58ce54d88946124e9060200160405180910390a45050505050565b600082156104d7577f00000000000000000000000000000000000000000000000000000000000000006104f0565b6000838152602081905260409020546001600160a01b03165b9050336001600160a01b0382161461055f5760405162461bcd60e51b815260206004820152602c60248201527f43616c6c6572206d75737420626520436869705265676973747279206f72206f60448201526b776e6572206f66206e6f646560a01b606482015260840161034b565b6001600160a01b0382166105b55760405162461bcd60e51b815260206004820181905260248201527f4e6577206f776e65722063616e6e6f74206265206e756c6c2061646472657373604482015260640161034b565b6000838152602081905260409020546001600160a01b031661060f5760405162461bcd60e51b8152602060048201526013602482015272139bd91948191bd95cc81b9bdd08195e1a5cdd606a1b604482015260640161034b565b6106198383610844565b6040516001600160a01b038316815283907fd4735d920b0f87494915f556dd9b54c8f309026070caea5c737245152564d2669060200160405180910390a2505050565b6000838152602081905260408120546001600160a01b0383811691161480156106a157506000848152602081905260409020600101546001600160a01b038481169116145b949350505050565b60008481526020819052604081205485906001600160a01b03163381146107075760405162461bcd60e51b815260206004820152601260248201527126bab9ba103132903737b2329037bbb732b960711b604482015260640161034b565b6040805160208082018a9052818301899052825180830384018152606090920190925280519101206001600160a01b0386166107855760405162461bcd60e51b815260206004820181905260248201527f4e6577206f776e65722063616e6e6f74206265206e756c6c2061646472657373604482015260640161034b565b6000818152602081905260409020546001600160a01b0316156107e35760405162461bcd60e51b81526020600482015260166024820152755375626e6f646520616c72656164792065786973747360501b604482015260640161034b565b6107ed8187610844565b6107f78186610872565b6040516001600160a01b0387168152879082908a907f3d599ae2b88b8766d9da5fd15cdbadf1de6d483307edf94b58ce54d88946124e9060200160405180910390a4979650505050505050565b60009182526020829052604090912080546001600160a01b0319166001600160a01b03909216919091179055565b6000828152602081815260409182902060010180546001600160a01b0319166001600160a01b038516908117909155915191825283917f335721b01866dc23fbee8b6b2c7b1e14d6f05c28cd35a2c934239f94095602a0910160405180910390a25050565b6000602082840312156108e957600080fd5b5035919050565b6000806040838503121561090357600080fd5b50508035926020909101359150565b80356001600160a01b038116811461092957600080fd5b919050565b6000806040838503121561094157600080fd5b8235915061095160208401610912565b90509250929050565b60008060006060848603121561096f57600080fd5b8335925061097f60208501610912565b915061098d60408501610912565b90509250925092565b600080600080608085870312156109ac57600080fd5b84359350602085013592506109c360408601610912565b91506109d160608601610912565b90509295919450925056fea26469706673582212207ccf3aedc7de6bd5a612bf224c8f5781258bccdb4da3dcdeeee18b0366dc2fb564736f6c63430008110033"
}