{
  "address": "0x267D60501B88512c69C1e7E40bFe5E79F11Ad0f4",
  "abi": [
    {
      "inputs": [],
      "stateMutability": "nonpayable",
      "type": "constructor"
    },
    {
      "inputs": [
        {
          "internalType": "address",
          "name": "",
          "type": "address"
        },
        {
          "internalType": "address",
          "name": "",
          "type": "address"
        },
        {
          "internalType": "address",
          "name": "",
          "type": "address"
        },
        {
          "internalType": "address",
          "name": "",
          "type": "address"
        },
        {
          "internalType": "bytes",
          "name": "",
          "type": "bytes"
        },
        {
          "internalType": "bytes",
          "name": "",
          "type": "bytes"
        }
      ],
      "name": "authorizeTransfer",
      "outputs": [],
      "stateMutability": "nonpayable",
      "type": "function"
    }
  ],
  "transactionHash": "0x5a355bce3995000811dc7568082828850159337ff5562792522018cefb5fb07e",
  "args": [],
  "numDeployments": 1,
  "solcInputHash": "e447b785d12f2f17f3136e5a46204389",
  "bytecode": "0x6080806040523461001657610110908161001c8239f35b600080fdfe60806040526004361015601157600080fd5b6000803560e01c63f041198b14602657600080fd5b3460a75760c036600319011260a7576001600160a01b0360043581811603609f5760243581811603609f5760443581811603609f576064359081160360a75767ffffffffffffffff60843581811160a357608390369060040160aa565b505060a435908111609f57609a90369060040160aa565b505080f35b5080fd5b8280fd5b80fd5b9181601f8401121560d55782359167ffffffffffffffff831160d5576020838186019501011160d557565b600080fdfea2646970667358221220a1cc1eb60c65040be40042dc9f3dfdc5331b38828ebb0feae1b6c5c949239de064736f6c63430008180033"
}