{
  "address": "0x2b42B7966629ba467A49970b916f776aA97eC50B",
  "abi": [
    {
      "inputs": [
        {
          "internalType": "bytes32",
          "name": "_message",
          "type": "bytes32"
        },
        {
          "internalType": "bytes",
          "name": "_signature",
          "type": "bytes"
        },
        {
          "internalType": "address",
          "name": "_signer",
          "type": "address"
        }
      ],
      "name": "verify",
      "outputs": [
        {
          "internalType": "bool",
          "name": "",
          "type": "bool"
        }
      ],
      "stateMutability": "pure",
      "type": "function"
    }
  ],
  "transactionHash": "0xe998ffb07faf9d7e2f67d7feaea854ae10937bdf1cd2616e24201bca74b4029c",
  "args": [],
  "numDeployments": 1,
  "solcInputHash": "5fcfa18e4a4c3d18ea9c3144e86bb365",
  "bytecode": "0x608060405234801561001057600080fd5b50610447806100206000396000f3fe608060405234801561001057600080fd5b506004361061002b5760003560e01c8063823ac37314610030575b600080fd5b61004361003e366004610330565b610057565b604051901515815260200160405180910390f35b60006001600160a01b03821661006d858561007f565b6001600160a01b031614949350505050565b600080600061008e85856100a3565b9150915061009b816100e8565b509392505050565b60008082516041036100d95760208301516040840151606085015160001a6100cd8782858561023a565b945094505050506100e1565b506000905060025b9250929050565b60008160048111156100fc576100fc6103fb565b036101045750565b6001816004811115610118576101186103fb565b0361016a5760405162461bcd60e51b815260206004820152601860248201527f45434453413a20696e76616c6964207369676e6174757265000000000000000060448201526064015b60405180910390fd5b600281600481111561017e5761017e6103fb565b036101cb5760405162461bcd60e51b815260206004820152601f60248201527f45434453413a20696e76616c6964207369676e6174757265206c656e677468006044820152606401610161565b60038160048111156101df576101df6103fb565b036102375760405162461bcd60e51b815260206004820152602260248201527f45434453413a20696e76616c6964207369676e6174757265202773272076616c604482015261756560f01b6064820152608401610161565b50565b6000807f7fffffffffffffffffffffffffffffff5d576e7357a4501ddfe92f46681b20a083111561027157506000905060036102f5565b6040805160008082526020820180845289905260ff881692820192909252606081018690526080810185905260019060a0016020604051602081039080840390855afa1580156102c5573d6000803e3d6000fd5b5050604051601f1901519150506001600160a01b0381166102ee576000600192509250506102f5565b9150600090505b94509492505050565b634e487b7160e01b600052604160045260246000fd5b80356001600160a01b038116811461032b57600080fd5b919050565b60008060006060848603121561034557600080fd5b83359250602084013567ffffffffffffffff8082111561036457600080fd5b818601915086601f83011261037857600080fd5b81358181111561038a5761038a6102fe565b604051601f8201601f19908116603f011681019083821181831017156103b2576103b26102fe565b816040528281528960208487010111156103cb57600080fd5b8260208601602083013760006020848301015280965050505050506103f260408501610314565b90509250925092565b634e487b7160e01b600052602160045260246000fdfea2646970667358221220edd4759f1458854f351e13f7919276c2d8651ef9b5d4613d09e73f226adef60264736f6c63430008110033"
}