{
  "address": "0xb9D5DB94aE40cF31C1659dc33bB9c68CB2Fd8Ff1",
  "abi": [
    {
      "inputs": [
        {
          "internalType": "bytes32",
          "name": "_message",
          "type": "bytes32"
        },
        {
          "internalType": "bytes",
          "name": "_signature",
          "type": "bytes"
        },
        {
          "internalType": "address",
          "name": "_signer",
          "type": "address"
        }
      ],
      "name": "verify",
      "outputs": [
        {
          "internalType": "bool",
          "name": "",
          "type": "bool"
        }
      ],
      "stateMutability": "pure",
      "type": "function"
    }
  ],
  "transactionHash": "0x29ffbe514319a9e345d9d3bfd9cafda134628fb5675f074914079c90c7b4e487",
  "args": [],
  "numDeployments": 1,
  "solcInputHash": "e447b785d12f2f17f3136e5a46204389",
  "bytecode": "0x608080604052346100165761030f908161001c8239f35b600080fdfe6080600436101561000f57600080fd5b6000803560e01c63823ac3731461002557600080fd5b346100dd5760603660031901126100dd5767ffffffffffffffff6024358181116100e057366023820112156100e0578060040135918083116100e457601f8301601f19908116603f01168501908111858210176100e45760405281845236602483830101116100e05781839260246020930183870137840101526001600160a01b03604435818116939192908490036100dd5760206100d385856100cb866004356100f8565b939093610130565b6040519216148152f35b80fd5b8280fd5b634e487b7160e01b84526041600452602484fd5b90604181511460001461012657610122916020820151906060604084015193015160001a9061024a565b9091565b5050600090600290565b600581101561023457806101415750565b6001810361018e5760405162461bcd60e51b815260206004820152601860248201527f45434453413a20696e76616c6964207369676e617475726500000000000000006044820152606490fd5b600281036101db5760405162461bcd60e51b815260206004820152601f60248201527f45434453413a20696e76616c6964207369676e6174757265206c656e677468006044820152606490fd5b6003146101e457565b60405162461bcd60e51b815260206004820152602260248201527f45434453413a20696e76616c6964207369676e6174757265202773272076616c604482015261756560f01b6064820152608490fd5b634e487b7160e01b600052602160045260246000fd5b9291907f7fffffffffffffffffffffffffffffff5d576e7357a4501ddfe92f46681b20a083116102cd5791608094939160ff602094604051948552168484015260408301526060820152600093849182805260015afa156102c05781516001600160a01b038116156102ba579190565b50600190565b50604051903d90823e3d90fd5b5050505060009060039056fea2646970667358221220fe1bbb88d7ab0a8527c349633d848dc8e21684b35a047d56b55a1eaa7d42723164736f6c63430008180033"
}