{
  "address": "0xf9848471E28B0a5f24735De6D8Ce794f09dDB619",
  "abi": [
    {
      "inputs": [
        {
          "internalType": "address",
          "name": "_projectManager",
          "type": "address"
        },
        {
          "internalType": "contract IChipRegistry",
          "name": "_chipRegistry",
          "type": "address"
        },
        {
          "internalType": "contract IERS",
          "name": "_ers",
          "type": "address"
        },
        {
          "internalType": "contract IDeveloperRegistrar",
          "name": "_developerRegistrar",
          "type": "address"
        },
        {
          "internalType": "uint256",
          "name": "_maxBlockWindow",
          "type": "uint256"
        }
      ],
      "stateMutability": "nonpayable",
      "type": "constructor"
    },
    {
      "anonymous": false,
      "inputs": [
        {
          "indexed": true,
          "internalType": "address",
          "name": "previousOwner",
          "type": "address"
        },
        {
          "indexed": true,
          "internalType": "address",
          "name": "newOwner",
          "type": "address"
        }
      ],
      "name": "OwnershipTransferred",
      "type": "event"
    },
    {
      "anonymous": false,
      "inputs": [
        {
          "indexed": false,
          "internalType": "bytes32",
          "name": "_rootNode",
          "type": "bytes32"
        }
      ],
      "name": "RootNodeSet",
      "type": "event"
    },
    {
      "inputs": [],
      "name": "chipRegistry",
      "outputs": [
        {
          "internalType": "contract IChipRegistry",
          "name": "",
          "type": "address"
        }
      ],
      "stateMutability": "view",
      "type": "function"
    },
    {
      "inputs": [
        {
          "internalType": "address",
          "name": "_chipId",
          "type": "address"
        },
        {
          "internalType": "bytes32",
          "name": "_nameHash",
          "type": "bytes32"
        },
        {
          "components": [
            {
              "internalType": "uint256",
              "name": "developerIndex",
              "type": "uint256"
            },
            {
              "internalType": "bytes32",
              "name": "serviceId",
              "type": "bytes32"
            },
            {
              "internalType": "uint256",
              "name": "lockinPeriod",
              "type": "uint256"
            },
            {
              "internalType": "string",
              "name": "tokenUri",
              "type": "string"
            },
            {
              "internalType": "bytes32[]",
              "name": "developerProof",
              "type": "bytes32[]"
            }
          ],
          "internalType": "struct IChipRegistry.DeveloperMerkleInfo",
          "name": "_claimData",
          "type": "tuple"
        },
        {
          "components": [
            {
              "internalType": "bytes32",
              "name": "enrollmentId",
              "type": "bytes32"
            },
            {
              "internalType": "uint256",
              "name": "mIndex",
              "type": "uint256"
            },
            {
              "internalType": "bytes32[]",
              "name": "manufacturerProof",
              "type": "bytes32[]"
            }
          ],
          "internalType": "struct IChipRegistry.ManufacturerValidation",
          "name": "_manufacturerValidation",
          "type": "tuple"
        },
        {
          "internalType": "uint256",
          "name": "_commitBlock",
          "type": "uint256"
        },
        {
          "internalType": "bytes",
          "name": "_chipOwnershipProof",
          "type": "bytes"
        },
        {
          "internalType": "bytes",
          "name": "_developerInclusionProof",
          "type": "bytes"
        },
        {
          "internalType": "bytes",
          "name": "_developerCustodyProof",
          "type": "bytes"
        }
      ],
      "name": "claimChip",
      "outputs": [],
      "stateMutability": "nonpayable",
      "type": "function"
    },
    {
      "inputs": [],
      "name": "developerRegistrar",
      "outputs": [
        {
          "internalType": "contract IDeveloperRegistrar",
          "name": "",
          "type": "address"
        }
      ],
      "stateMutability": "view",
      "type": "function"
    },
    {
      "inputs": [],
      "name": "ers",
      "outputs": [
        {
          "internalType": "contract IERS",
          "name": "",
          "type": "address"
        }
      ],
      "stateMutability": "view",
      "type": "function"
    },
    {
      "inputs": [],
      "name": "maxBlockWindow",
      "outputs": [
        {
          "internalType": "uint256",
          "name": "",
          "type": "uint256"
        }
      ],
      "stateMutability": "view",
      "type": "function"
    },
    {
      "inputs": [],
      "name": "owner",
      "outputs": [
        {
          "internalType": "address",
          "name": "",
          "type": "address"
        }
      ],
      "stateMutability": "view",
      "type": "function"
    },
    {
      "inputs": [],
      "name": "renounceOwnership",
      "outputs": [],
      "stateMutability": "nonpayable",
      "type": "function"
    },
    {
      "inputs": [],
      "name": "rootNode",
      "outputs": [
        {
          "internalType": "bytes32",
          "name": "",
          "type": "bytes32"
        }
      ],
      "stateMutability": "view",
      "type": "function"
    },
    {
      "inputs": [
        {
          "internalType": "bytes32",
          "name": "_rootNode",
          "type": "bytes32"
        }
      ],
      "name": "setRootNode",
      "outputs": [],
      "stateMutability": "nonpayable",
      "type": "function"
    },
    {
      "inputs": [
        {
          "internalType": "address",
          "name": "newOwner",
          "type": "address"
        }
      ],
      "name": "transferOwnership",
      "outputs": [],
      "stateMutability": "nonpayable",
      "type": "function"
    }
  ],
  "transactionHash": "0x04f6865154f4e4eb6461cf86e5dfcb27753746143487f0af6976f89a635ee3f8",
  "args": [
    "0xa969B2687c5486491893a78dAfDE1A1617C2691a",
    "0xd1aB0240621Aa7C89b60f6D71013Bc62a43448FD",
    "0x8F6F9E681d34f5306b34C2a080eFc1bc59cb77Bf",
    "0x9f138288cf707f95026bcf0cb8c70418b648d459",
    "5"
  ],
  "numDeployments": 1,
  "solcInputHash": "5fcfa18e4a4c3d18ea9c3144e86bb365",
  "bytecode": "0x6101006040523480156200001257600080fd5b5060405162001361380380620013618339810160408190526200003591620000df565b84848484620000443362000076565b6200004f8462000076565b6001600160a01b0392831660805290821660a0521660c0525060e052506200015392505050565b600080546001600160a01b038381166001600160a01b0319831681178455604051919092169283917f8be0079c531659141344cd1fd0a4f28419497f9722a3daafe3b4186f6b6457e09190a35050565b6001600160a01b0381168114620000dc57600080fd5b50565b600080600080600060a08688031215620000f857600080fd5b85516200010581620000c6565b60208701519095506200011881620000c6565b60408701519094506200012b81620000c6565b60608701519093506200013e81620000c6565b80925050608086015190509295509295909350565b60805160a05160c05160e0516111b9620001a860003960008181610101015261027301526000818161017601526102c901526000818161013e015261056d01526000818160a8015261060801526111b96000f3fe608060405234801561001057600080fd5b506004361061009e5760003560e01c80638da5cb5b116100665780638da5cb5b146101605780639ae3774a14610171578063d20ab1d714610198578063f2fde38b146101ab578063faff50a8146101be57600080fd5b806311e6575b146100a35780633d5c45b5146100e75780635218574c146100fc578063715018a6146101315780637ac9d73814610139575b600080fd5b6100ca7f000000000000000000000000000000000000000000000000000000000000000081565b6040516001600160a01b0390911681526020015b60405180910390f35b6100fa6100f5366004610de6565b6101c7565b005b6101237f000000000000000000000000000000000000000000000000000000000000000081565b6040519081526020016100de565b6100fa6102b3565b6100ca7f000000000000000000000000000000000000000000000000000000000000000081565b6000546001600160a01b03166100ca565b6100ca7f000000000000000000000000000000000000000000000000000000000000000081565b6100fa6101a6366004610edc565b6102c7565b6100fa6101b9366004610ef5565b610407565b61012360015481565b6001600160a01b038816330361021d5760405162461bcd60e51b815260206004820152601660248201527521b434b81031b0b73737ba1037bbb71034ba39b2b63360511b60448201526064015b60405180910390fd5b6040805146602082015280820186905260608082018a9052339081901b6bffffffffffffffffffffffff19166080830152825160748184030181526094909201909252610299906001600160a01b038b169087907f00000000000000000000000000000000000000000000000000000000000000009088610480565b6102a88989838a8a8888610531565b505050505050505050565b6102bb610697565b6102c560006106f1565b565b7f00000000000000000000000000000000000000000000000000000000000000006001600160a01b031633146103845760405162461bcd60e51b815260206004820152605660248201527f6f6e6c79446576656c6f7065725265676973747261723a204f6e6c792074686560448201527f20636f6e7472616374277320446576656c6f706572205265676973747261722060648201527531b0b71031b0b636103a3434b990333ab731ba34b7b760511b608482015260a401610214565b600154156103cc5760405162461bcd60e51b8152602060048201526015602482015274149bdbdd081b9bd91948185b1c9958591e481cd95d605a1b6044820152606401610214565b60018190556040518181527f502693e2258520f4d18d6fa7678fbf02628ce8c5ea57d1901bccd512290e9a6e9060200160405180910390a150565b61040f610697565b6001600160a01b0381166104745760405162461bcd60e51b815260206004820152602660248201527f4f776e61626c653a206e6577206f776e657220697320746865207a65726f206160448201526564647265737360d01b6064820152608401610214565b61047d816106f1565b50565b61049d61048c83610741565b6001600160a01b038716908361077c565b6104dd5760405162461bcd60e51b8152602060048201526011602482015270496e76616c6964207369676e617475726560781b6044820152606401610214565b6104e78385610f10565b43111561052a5760405162461bcd60e51b815260206004820152601160248201527014da59db985d1d5c9948195e1c1a5c9959607a1b6044820152606401610214565b5050505050565b600154604051630329904360e61b81526004810191909152602481018790526001600160a01b03868116604483015288811660648301526000917f00000000000000000000000000000000000000000000000000000000000000009091169063ca6410c0906084016020604051808303816000875af11580156105b8573d6000803e3d6000fd5b505050506040513d601f19601f820116820180604052508101906105dc9190610f31565b905060006040518060600160405280886001600160a01b031681526020018381526020018781525090507f00000000000000000000000000000000000000000000000000000000000000006001600160a01b0316631d0c1dfe8a838888886040518663ffffffff1660e01b815260040161065a959493929190611006565b600060405180830381600087803b15801561067457600080fd5b505af1158015610688573d6000803e3d6000fd5b50505050505050505050505050565b6000546001600160a01b031633146102c55760405162461bcd60e51b815260206004820181905260248201527f4f776e61626c653a2063616c6c6572206973206e6f7420746865206f776e65726044820152606401610214565b600080546001600160a01b038381166001600160a01b0319831681178455604051919092169283917f8be0079c531659141344cd1fd0a4f28419497f9722a3daafe3b4186f6b6457e09190a35050565b600061074d82516107dd565b8260405160200161075f9291906110dd565b604051602081830303815290604052805190602001209050919050565b600080600061078b8585610870565b909250905060008160048111156107a4576107a4611138565b1480156107c25750856001600160a01b0316826001600160a01b0316145b806107d357506107d38686866108b5565b9695505050505050565b606060006107ea836109a1565b600101905060008167ffffffffffffffff81111561080a5761080a610b5a565b6040519080825280601f01601f191660200182016040528015610834576020820181803683370190505b5090508181016020015b600019016f181899199a1a9b1b9c1cb0b131b232b360811b600a86061a8153600a850494508461083e57509392505050565b60008082516041036108a65760208301516040840151606085015160001a61089a87828585610a7a565b945094505050506108ae565b506000905060025b9250929050565b6000806000856001600160a01b0316631626ba7e60e01b86866040516024016108df92919061114e565b60408051601f198184030181529181526020820180516001600160e01b03166001600160e01b031990941693909317909252905161091d9190611167565b600060405180830381855afa9150503d8060008114610958576040519150601f19603f3d011682016040523d82523d6000602084013e61095d565b606091505b509150915081801561097157506020815110155b80156107d357508051630b135d3f60e11b906109969083016020908101908401610f31565b149695505050505050565b60008072184f03e93ff9f4daa797ed6e38ed64bf6a1f0160401b83106109e05772184f03e93ff9f4daa797ed6e38ed64bf6a1f0160401b830492506040015b6d04ee2d6d415b85acef81000000008310610a0c576d04ee2d6d415b85acef8100000000830492506020015b662386f26fc100008310610a2a57662386f26fc10000830492506010015b6305f5e1008310610a42576305f5e100830492506008015b6127108310610a5657612710830492506004015b60648310610a68576064830492506002015b600a8310610a74576001015b92915050565b6000807f7fffffffffffffffffffffffffffffff5d576e7357a4501ddfe92f46681b20a0831115610ab15750600090506003610b35565b6040805160008082526020820180845289905260ff881692820192909252606081018690526080810185905260019060a0016020604051602081039080840390855afa158015610b05573d6000803e3d6000fd5b5050604051601f1901519150506001600160a01b038116610b2e57600060019250925050610b35565b9150600090505b94509492505050565b80356001600160a01b0381168114610b5557600080fd5b919050565b634e487b7160e01b600052604160045260246000fd5b60405160a0810167ffffffffffffffff81118282101715610b9357610b93610b5a565b60405290565b604051601f8201601f1916810167ffffffffffffffff81118282101715610bc257610bc2610b5a565b604052919050565b600067ffffffffffffffff831115610be457610be4610b5a565b610bf7601f8401601f1916602001610b99565b9050828152838383011115610c0b57600080fd5b828260208301376000602084830101529392505050565b600082601f830112610c3357600080fd5b8135602067ffffffffffffffff821115610c4f57610c4f610b5a565b8160051b610c5e828201610b99565b9283528481018201928281019087851115610c7857600080fd5b83870192505b84831015610c9757823582529183019190830190610c7e565b979650505050505050565b600060a08284031215610cb457600080fd5b610cbc610b70565b9050813581526020820135602082015260408201356040820152606082013567ffffffffffffffff80821115610cf157600080fd5b818401915084601f830112610d0557600080fd5b610d1485833560208501610bca565b60608401526080840135915080821115610d2d57600080fd5b50610d3a84828501610c22565b60808301525092915050565b600060608284031215610d5857600080fd5b6040516060810167ffffffffffffffff8282108183111715610d7c57610d7c610b5a565b8160405282935084358352602085013560208401526040850135915080821115610da557600080fd5b50610db285828601610c22565b6040830152505092915050565b600082601f830112610dd057600080fd5b610ddf83833560208501610bca565b9392505050565b600080600080600080600080610100898b031215610e0357600080fd5b610e0c89610b3e565b975060208901359650604089013567ffffffffffffffff80821115610e3057600080fd5b610e3c8c838d01610ca2565b975060608b0135915080821115610e5257600080fd5b610e5e8c838d01610d46565b965060808b0135955060a08b0135915080821115610e7b57600080fd5b610e878c838d01610dbf565b945060c08b0135915080821115610e9d57600080fd5b610ea98c838d01610dbf565b935060e08b0135915080821115610ebf57600080fd5b50610ecc8b828c01610dbf565b9150509295985092959890939650565b600060208284031215610eee57600080fd5b5035919050565b600060208284031215610f0757600080fd5b610ddf82610b3e565b80820180821115610a7457634e487b7160e01b600052601160045260246000fd5b600060208284031215610f4357600080fd5b5051919050565b60005b83811015610f65578181015183820152602001610f4d565b50506000910152565b60008151808452610f86816020860160208601610f4a565b601f01601f19169290920160200192915050565b600081518084526020808501945080840160005b83811015610fca57815187529582019590820190600101610fae565b509495945050505050565b80518252602081015160208301526000604082015160606040850152610ffe6060850182610f9a565b949350505050565b600060018060a01b03808816835260a060208401528087511660a084015250602086015160c08301526040860151606060e0840152805161010084015260208101516101208401526040810151610140840152606081015160a06101608501526110746101a0850182610f6e565b90506080820151915060ff19848203016101808501526110948183610f9a565b91505082810360408401526110a98187610fd5565b905082810360608401526110bd8186610f6e565b905082810360808401526110d18185610f6e565b98975050505050505050565b7f19457468657265756d205369676e6564204d6573736167653a0a00000000000081526000835161111581601a850160208801610f4a565b83519083019061112c81601a840160208801610f4a565b01601a01949350505050565b634e487b7160e01b600052602160045260246000fd5b828152604060208201526000610ffe6040830184610f6e565b60008251611179818460208701610f4a565b919091019291505056fea2646970667358221220869a6758fe10c972b43a69f2ab74b356d6b4bcc204edfc3e28f69771ce7e4f8c64736f6c63430008110033"
}