{
  "address": "0xfBbe380985E7AB80Cd0dECaDBf6F85CF72b683fE",
  "abi": [
    {
      "inputs": [
        {
          "internalType": "contract IDeveloperRegistry",
          "name": "_developerRegistry",
          "type": "address"
        },
        {
          "internalType": "address",
          "name": "_nameCoordinator",
          "type": "address"
        }
      ],
      "stateMutability": "nonpayable",
      "type": "constructor"
    },
    {
      "anonymous": false,
      "inputs": [
        {
          "indexed": false,
          "internalType": "address",
          "name": "newNameCoordinator",
          "type": "address"
        }
      ],
      "name": "NameCoordinatorUpdated",
      "type": "event"
    },
    {
      "anonymous": false,
      "inputs": [
        {
          "indexed": true,
          "internalType": "address",
          "name": "previousOwner",
          "type": "address"
        },
        {
          "indexed": true,
          "internalType": "address",
          "name": "newOwner",
          "type": "address"
        }
      ],
      "name": "OwnershipTransferred",
      "type": "event"
    },
    {
      "inputs": [
        {
          "internalType": "bytes32",
          "name": "_developerName",
          "type": "bytes32"
        },
        {
          "internalType": "bytes",
          "name": "_nameApprovalProof",
          "type": "bytes"
        }
      ],
      "name": "claimName",
      "outputs": [],
      "stateMutability": "nonpayable",
      "type": "function"
    },
    {
      "inputs": [],
      "name": "developerRegistry",
      "outputs": [
        {
          "internalType": "contract IDeveloperRegistry",
          "name": "",
          "type": "address"
        }
      ],
      "stateMutability": "view",
      "type": "function"
    },
    {
      "inputs": [],
      "name": "nameCoordinator",
      "outputs": [
        {
          "internalType": "address",
          "name": "",
          "type": "address"
        }
      ],
      "stateMutability": "view",
      "type": "function"
    },
    {
      "inputs": [],
      "name": "owner",
      "outputs": [
        {
          "internalType": "address",
          "name": "",
          "type": "address"
        }
      ],
      "stateMutability": "view",
      "type": "function"
    },
    {
      "inputs": [
        {
          "internalType": "address",
          "name": "_developerOwner",
          "type": "address"
        }
      ],
      "name": "removeNameClaim",
      "outputs": [],
      "stateMutability": "nonpayable",
      "type": "function"
    },
    {
      "inputs": [],
      "name": "renounceOwnership",
      "outputs": [],
      "stateMutability": "nonpayable",
      "type": "function"
    },
    {
      "inputs": [
        {
          "internalType": "address",
          "name": "newOwner",
          "type": "address"
        }
      ],
      "name": "transferOwnership",
      "outputs": [],
      "stateMutability": "nonpayable",
      "type": "function"
    },
    {
      "inputs": [
        {
          "internalType": "address",
          "name": "_newNameCoordinator",
          "type": "address"
        }
      ],
      "name": "updateNameCoordinator",
      "outputs": [],
      "stateMutability": "nonpayable",
      "type": "function"
    }
  ],
  "transactionHash": "0xf352983306d5152868558e885b06c306fa3ae6976c35d65101316d548699faf8",
  "args": [
    "0xb267F3D848c6387E2181391FDB7986c7Cc49ACF3",
    "0x2764b37E4d74EEb5961429B034CBa75A93BF5199"
  ],
  "numDeployments": 1,
  "solcInputHash": "5fcfa18e4a4c3d18ea9c3144e86bb365",
  "bytecode": "0x60a060405234801561001057600080fd5b50604051610c45380380610c4583398101604081905261002f916100c8565b61003833610060565b6001600160a01b03918216608052600180546001600160a01b03191691909216179055610102565b600080546001600160a01b038381166001600160a01b0319831681178455604051919092169283917f8be0079c531659141344cd1fd0a4f28419497f9722a3daafe3b4186f6b6457e09190a35050565b6001600160a01b03811681146100c557600080fd5b50565b600080604083850312156100db57600080fd5b82516100e6816100b0565b60208401519092506100f7816100b0565b809150509250929050565b608051610b1b61012a60003960008181609201528181610212015261029b0152610b1b6000f3fe608060405234801561001057600080fd5b50600436106100885760003560e01c80638da5cb5b1161005b5780638da5cb5b14610100578063bae7fdd414610111578063e8b9bd1114610124578063f2fde38b1461013757600080fd5b8063107d0be11461008d57806338dbf152146100d05780635da93044146100e5578063715018a6146100f8575b600080fd5b6100b47f000000000000000000000000000000000000000000000000000000000000000081565b6040516001600160a01b03909116815260200160405180910390f35b6100e36100de3660046108f6565b61014a565b005b6100e36100f33660046109b1565b610274565b6100e36102fa565b6000546001600160a01b03166100b4565b6001546100b4906001600160a01b031681565b6100e36101323660046109b1565b61030e565b6100e36101453660046109b1565b6103c0565b60405133606081901b6bffffffffffffffffffffffff19166020830152603482018490529060009061018d90605401604051602081830303815290604052610439565b6001549091506101a7906001600160a01b03168285610474565b6101ec5760405162461bcd60e51b8152602060048201526011602482015270496e76616c6964207369676e617475726560781b60448201526064015b60405180910390fd5b6040516312c85ed760e11b81526001600160a01b038381166004830152602482018690527f00000000000000000000000000000000000000000000000000000000000000001690632590bdae90604401600060405180830381600087803b15801561025657600080fd5b505af115801561026a573d6000803e3d6000fd5b5050505050505050565b61027c6104d5565b604051630cc2a61f60e11b81526001600160a01b0382811660048301527f000000000000000000000000000000000000000000000000000000000000000016906319854c3e90602401600060405180830381600087803b1580156102df57600080fd5b505af11580156102f3573d6000803e3d6000fd5b5050505050565b6103026104d5565b61030c600061052f565b565b6103166104d5565b6001600160a01b03811661036c5760405162461bcd60e51b815260206004820152601e60248201527f416464726573732063616e6e6f74206265207a65726f2061646472657373000060448201526064016101e3565b600180546001600160a01b0319166001600160a01b0383169081179091556040519081527f70a4c123acda37162efe6adf1cd1786c0402ea17bd34fd467b2be53d66dad09e9060200160405180910390a150565b6103c86104d5565b6001600160a01b03811661042d5760405162461bcd60e51b815260206004820152602660248201527f4f776e61626c653a206e6577206f776e657220697320746865207a65726f206160448201526564647265737360d01b60648201526084016101e3565b6104368161052f565b50565b6000610445825161057f565b82604051602001610457929190610a05565b604051602081830303815290604052805190602001209050919050565b60008060006104838585610612565b9092509050600081600481111561049c5761049c610a60565b1480156104ba5750856001600160a01b0316826001600160a01b0316145b806104cb57506104cb868686610657565b9695505050505050565b6000546001600160a01b0316331461030c5760405162461bcd60e51b815260206004820181905260248201527f4f776e61626c653a2063616c6c6572206973206e6f7420746865206f776e657260448201526064016101e3565b600080546001600160a01b038381166001600160a01b0319831681178455604051919092169283917f8be0079c531659141344cd1fd0a4f28419497f9722a3daafe3b4186f6b6457e09190a35050565b6060600061058c83610743565b600101905060008167ffffffffffffffff8111156105ac576105ac6108e0565b6040519080825280601f01601f1916602001820160405280156105d6576020820181803683370190505b5090508181016020015b600019016f181899199a1a9b1b9c1cb0b131b232b360811b600a86061a8153600a85049450846105e057509392505050565b60008082516041036106485760208301516040840151606085015160001a61063c8782858561081c565b94509450505050610650565b506000905060025b9250929050565b6000806000856001600160a01b0316631626ba7e60e01b8686604051602401610681929190610a76565b60408051601f198184030181529181526020820180516001600160e01b03166001600160e01b03199094169390931790925290516106bf9190610ab0565b600060405180830381855afa9150503d80600081146106fa576040519150601f19603f3d011682016040523d82523d6000602084013e6106ff565b606091505b509150915081801561071357506020815110155b80156104cb57508051630b135d3f60e11b906107389083016020908101908401610acc565b149695505050505050565b60008072184f03e93ff9f4daa797ed6e38ed64bf6a1f0160401b83106107825772184f03e93ff9f4daa797ed6e38ed64bf6a1f0160401b830492506040015b6d04ee2d6d415b85acef810000000083106107ae576d04ee2d6d415b85acef8100000000830492506020015b662386f26fc1000083106107cc57662386f26fc10000830492506010015b6305f5e10083106107e4576305f5e100830492506008015b61271083106107f857612710830492506004015b6064831061080a576064830492506002015b600a8310610816576001015b92915050565b6000807f7fffffffffffffffffffffffffffffff5d576e7357a4501ddfe92f46681b20a083111561085357506000905060036108d7565b6040805160008082526020820180845289905260ff881692820192909252606081018690526080810185905260019060a0016020604051602081039080840390855afa1580156108a7573d6000803e3d6000fd5b5050604051601f1901519150506001600160a01b0381166108d0576000600192509250506108d7565b9150600090505b94509492505050565b634e487b7160e01b600052604160045260246000fd5b6000806040838503121561090957600080fd5b82359150602083013567ffffffffffffffff8082111561092857600080fd5b818501915085601f83011261093c57600080fd5b81358181111561094e5761094e6108e0565b604051601f8201601f19908116603f01168101908382118183101715610976576109766108e0565b8160405282815288602084870101111561098f57600080fd5b8260208601602083013760006020848301015280955050505050509250929050565b6000602082840312156109c357600080fd5b81356001600160a01b03811681146109da57600080fd5b9392505050565b60005b838110156109fc5781810151838201526020016109e4565b50506000910152565b7f19457468657265756d205369676e6564204d6573736167653a0a000000000000815260008351610a3d81601a8501602088016109e1565b835190830190610a5481601a8401602088016109e1565b01601a01949350505050565b634e487b7160e01b600052602160045260246000fd5b8281526040602082015260008251806040840152610a9b8160608501602087016109e1565b601f01601f1916919091016060019392505050565b60008251610ac28184602087016109e1565b9190910192915050565b600060208284031215610ade57600080fd5b505191905056fea2646970667358221220876e0e1a90b9abf2812b9989c6539764a525b1a0f89bb0e3549937f89af4243364736f6c63430008110033"
}