{
  "address": "0x274Eb212F85e6FbE81176c0C137A0E27C1Fa92Fe",
  "abi": [
    {
      "inputs": [
        {
          "internalType": "address",
          "name": "_developerRegistrar",
          "type": "address"
        },
        {
          "internalType": "contract IDeveloperRegistry",
          "name": "_developerRegistry",
          "type": "address"
        }
      ],
      "stateMutability": "nonpayable",
      "type": "constructor"
    },
    {
      "anonymous": false,
      "inputs": [
        {
          "indexed": true,
          "internalType": "address",
          "name": "developerRegistrar",
          "type": "address"
        }
      ],
      "name": "DeveloperRegistrarDeployed",
      "type": "event"
    },
    {
      "inputs": [],
      "name": "deployDeveloperRegistrar",
      "outputs": [
        {
          "internalType": "address",
          "name": "",
          "type": "address"
        }
      ],
      "stateMutability": "nonpayable",
      "type": "function"
    },
    {
      "inputs": [],
      "name": "developerRegistrar",
      "outputs": [
        {
          "internalType": "address",
          "name": "",
          "type": "address"
        }
      ],
      "stateMutability": "view",
      "type": "function"
    },
    {
      "inputs": [],
      "name": "developerRegistry",
      "outputs": [
        {
          "internalType": "contract IDeveloperRegistry",
          "name": "",
          "type": "address"
        }
      ],
      "stateMutability": "view",
      "type": "function"
    }
  ],
  "transactionHash": "0x66311ebf82609e0b39f4ee53c83a6ba9697b32a86deb3e62e3cd8d2dedc28906",
  "args": [
    "0xe3A9ef540dBF15542C8285BdAcfF0007F4C86454",
    "0xA5e2abF386F6FB55F24A5EB9F4Df05358fEc5220"
  ],
  "numDeployments": 1,
  "solcInputHash": "e447b785d12f2f17f3136e5a46204389",
  "bytecode": "0x60c03461009157601f61031038819003918201601f19168301916001600160401b038311848410176100965780849260409485528339810103126100915780516001600160a01b03918282168203610091576020015191821682036100915760805260a05260405161026390816100ad8239608051818181609501526101b7015260a051818181605c01526101fa0152f35b600080fd5b634e487b7160e01b600052604160045260246000fdfe608080604052600436101561001357600080fd5b600090813560e01c908163107d0be1146101e6575080639ae3774a146101a15763dfa7ae9e1461004257600080fd5b3461019e578060031936011261019e576001600160a01b037f00000000000000000000000000000000000000000000000000000000000000008116330361015a576e5af43d82803e903d91602b57fd5bf37f0000000000000000000000000000000000000000000000000000000000000000763d602d80600a3d3981f3363d3d373d3d3d363d7300000062ffffff8260881c1617845260781b176020526037600983f01690811561011c57816020927f0b6eaa7bdea370b3832b506e82023004c63fd014419699bbf51df6d9763e9c1b6040519380a28152f35b60405162461bcd60e51b8152602060048201526016602482015275115490cc4c4d8dce8818dc99585d194819985a5b195960521b6044820152606490fd5b606460405162461bcd60e51b815260206004820152602060248201527f43616c6c6572206d75737420626520446576656c6f70657252656769737472796044820152fd5b80fd5b503461019e578060031936011261019e576040517f00000000000000000000000000000000000000000000000000000000000000006001600160a01b03168152602090f35b9050346102295781600319360112610229577f00000000000000000000000000000000000000000000000000000000000000006001600160a01b03168152602090f35b5080fdfea2646970667358221220a624aec29c19a11049cc82f6c47fd10128e7214d4d3d235df16239ed5b383c8f64736f6c63430008180033"
}