{
  "address": "0x1e3F1C5B5bC5a77CD5d57ce591DAf60772233dA7",
  "abi": [
    {
      "inputs": [
        {
          "internalType": "contract IDeveloperRegistry",
          "name": "_developerRegistry",
          "type": "address"
        },
        {
          "internalType": "address",
          "name": "_nameCoordinator",
          "type": "address"
        }
      ],
      "stateMutability": "nonpayable",
      "type": "constructor"
    },
    {
      "inputs": [],
      "name": "InvalidShortString",
      "type": "error"
    },
    {
      "inputs": [
        {
          "internalType": "string",
          "name": "str",
          "type": "string"
        }
      ],
      "name": "StringTooLong",
      "type": "error"
    },
    {
      "anonymous": false,
      "inputs": [],
      "name": "EIP712DomainChanged",
      "type": "event"
    },
    {
      "anonymous": false,
      "inputs": [
        {
          "indexed": false,
          "internalType": "address",
          "name": "newNameCoordinator",
          "type": "address"
        }
      ],
      "name": "NameCoordinatorUpdated",
      "type": "event"
    },
    {
      "anonymous": false,
      "inputs": [
        {
          "indexed": true,
          "internalType": "address",
          "name": "previousOwner",
          "type": "address"
        },
        {
          "indexed": true,
          "internalType": "address",
          "name": "newOwner",
          "type": "address"
        }
      ],
      "name": "OwnershipTransferStarted",
      "type": "event"
    },
    {
      "anonymous": false,
      "inputs": [
        {
          "indexed": true,
          "internalType": "address",
          "name": "previousOwner",
          "type": "address"
        },
        {
          "indexed": true,
          "internalType": "address",
          "name": "newOwner",
          "type": "address"
        }
      ],
      "name": "OwnershipTransferred",
      "type": "event"
    },
    {
      "inputs": [],
      "name": "EIP712_SIGNATURE_DOMAIN",
      "outputs": [
        {
          "internalType": "string",
          "name": "",
          "type": "string"
        }
      ],
      "stateMutability": "view",
      "type": "function"
    },
    {
      "inputs": [],
      "name": "EIP712_SIGNATURE_VERSION",
      "outputs": [
        {
          "internalType": "string",
          "name": "",
          "type": "string"
        }
      ],
      "stateMutability": "view",
      "type": "function"
    },
    {
      "inputs": [],
      "name": "acceptOwnership",
      "outputs": [],
      "stateMutability": "nonpayable",
      "type": "function"
    },
    {
      "inputs": [
        {
          "internalType": "bytes32",
          "name": "_developerName",
          "type": "bytes32"
        },
        {
          "internalType": "uint256",
          "name": "_proofTimestamp",
          "type": "uint256"
        },
        {
          "internalType": "bytes",
          "name": "_nameApprovalProof",
          "type": "bytes"
        }
      ],
      "name": "claimName",
      "outputs": [],
      "stateMutability": "nonpayable",
      "type": "function"
    },
    {
      "inputs": [],
      "name": "developerRegistry",
      "outputs": [
        {
          "internalType": "contract IDeveloperRegistry",
          "name": "",
          "type": "address"
        }
      ],
      "stateMutability": "view",
      "type": "function"
    },
    {
      "inputs": [],
      "name": "eip712Domain",
      "outputs": [
        {
          "internalType": "bytes1",
          "name": "fields",
          "type": "bytes1"
        },
        {
          "internalType": "string",
          "name": "name",
          "type": "string"
        },
        {
          "internalType": "string",
          "name": "version",
          "type": "string"
        },
        {
          "internalType": "uint256",
          "name": "chainId",
          "type": "uint256"
        },
        {
          "internalType": "address",
          "name": "verifyingContract",
          "type": "address"
        },
        {
          "internalType": "bytes32",
          "name": "salt",
          "type": "bytes32"
        },
        {
          "internalType": "uint256[]",
          "name": "extensions",
          "type": "uint256[]"
        }
      ],
      "stateMutability": "view",
      "type": "function"
    },
    {
      "inputs": [],
      "name": "nameCoordinator",
      "outputs": [
        {
          "internalType": "address",
          "name": "",
          "type": "address"
        }
      ],
      "stateMutability": "view",
      "type": "function"
    },
    {
      "inputs": [],
      "name": "owner",
      "outputs": [
        {
          "internalType": "address",
          "name": "",
          "type": "address"
        }
      ],
      "stateMutability": "view",
      "type": "function"
    },
    {
      "inputs": [],
      "name": "pendingOwner",
      "outputs": [
        {
          "internalType": "address",
          "name": "",
          "type": "address"
        }
      ],
      "stateMutability": "view",
      "type": "function"
    },
    {
      "inputs": [
        {
          "internalType": "address",
          "name": "_developerOwner",
          "type": "address"
        }
      ],
      "name": "removeNameClaim",
      "outputs": [],
      "stateMutability": "nonpayable",
      "type": "function"
    },
    {
      "inputs": [],
      "name": "renounceOwnership",
      "outputs": [],
      "stateMutability": "nonpayable",
      "type": "function"
    },
    {
      "inputs": [
        {
          "internalType": "address",
          "name": "newOwner",
          "type": "address"
        }
      ],
      "name": "transferOwnership",
      "outputs": [],
      "stateMutability": "nonpayable",
      "type": "function"
    },
    {
      "inputs": [
        {
          "internalType": "address",
          "name": "_newNameCoordinator",
          "type": "address"
        }
      ],
      "name": "updateNameCoordinator",
      "outputs": [],
      "stateMutability": "nonpayable",
      "type": "function"
    }
  ],
  "transactionHash": "0xe7cdeb8e65645ae5bc25d248b9f3e7ff318cb57b3899f76c0b55ac5e7c8e89af",
  "args": [
    "0x0FCb2A0df07b00f84e651a9a68c9B38543560590",
    "0x914Cce99BB910e073e5507fb127469f6FB7B5490"
  ],
  "numDeployments": 1,
  "solcInputHash": "506b2add1b56cef4fbe0ce691febffd1",
  "bytecode": "0x610180346200020e576001600160401b0362001452601f38829003908101601f1916840190838211858310176200021357808591604094859485528339810103126200020e5782516001600160a01b039390919084831683036200020e5760200151908482168092036200020e578051916200007b8362000229565b6003835260208301916245525360e81b835280516200009a8162000229565b600581526020810191640322e302e360dc1b835260018060a01b03199283600154166001556000998a549033868316178c553391167f8be0079c531659141344cd1fd0a4f28419497f9722a3daafe3b4186f6b6457e08c80a3620000fe8762000245565b95610120968752620001108462000422565b97610140988952519020928360e0525190209061010099828b524660a05281519260208401947f8b73c3c69bb8fe3d512ecc4cf759cc79239f7b179b0ffacaa9a75d522b39400f86528385015260608401524660808401523060a084015260a0835260c0830199838b10908b1117620001fa57508890525190206080523060c0526101609485526004541617600455610e7a9485620005d8863960805185610c8b015260a05185610d57015260c05185610c55015260e05185610cda01525184610d00015251836105dd015251826106070152518181816103be0152818161089101526109030152f35b634e487b7160e01b81526041600452602490fd5b600080fd5b634e487b7160e01b600052604160045260246000fd5b604081019081106001600160401b038211176200021357604052565b805160209081811015620002e25750601f8251116200028157808251920151908083106200027257501790565b82600019910360031b1b161790565b90604051809263305a27a960e01b82528060048301528251908160248401526000935b828510620002c8575050604492506000838284010152601f80199101168101030190fd5b8481018201518686016044015293810193859350620002a4565b906001600160401b0382116200021357600254926001938481811c9116801562000417575b838210146200040157601f8111620003c7575b5081601f84116001146200035b57509282939183926000946200034f575b50501b916000199060031b1c19161760025560ff90565b01519250388062000338565b919083601f198116600260005284600020946000905b88838310620003ac575050501062000392575b505050811b0160025560ff90565b015160001960f88460031b161c1916905538808062000384565b85870151885590960195948501948793509081019062000371565b600260005284601f84600020920160051c820191601f860160051c015b828110620003f45750506200031a565b60008155018590620003e4565b634e487b7160e01b600052602260045260246000fd5b90607f169062000307565b80516020919082811015620004b2575090601f8251116200045157808251920151908083106200027257501790565b90604051809263305a27a960e01b82528060048301528251908160248401526000935b82851062000498575050604492506000838284010152601f80199101168101030190fd5b848101820151868601604401529381019385935062000474565b6001600160401b03811162000213576003928354926001938481811c91168015620005cc575b838210146200040157601f811162000593575b5081601f84116001146200052a57509282939183926000946200051e575b50501b9160001990841b1c191617905560ff90565b01519250388062000509565b919083601f1981168760005284600020946000905b888383106200057857505050106200055f575b505050811b01905560ff90565b015160001983861b60f8161c1916905538808062000552565b8587015188559096019594850194879350908101906200053f565b8560005284601f84600020920160051c820191601f860160051c015b828110620005bf575050620004eb565b60008155018590620005af565b90607f1690620004d856fe60806040908082526004908136101561001757600080fd5b600092833560e01c918263107d0be1146108ef575081635da930441461085e578163715018a6146107f857816379ba50971461072c5781637bb5cb3b146106e757816384b0196e146105c65781638da5cb5b1461059e578163abeb1d3a14610278578163bae7fdd41461024f578163ce810b6414610208578163e30c3978146101df578163e8b9bd1114610126575063f2fde38b146100b557600080fd5b3461012257602036600319011261012257356001600160a01b038181169182900361011e576100e26109f6565b600180546001600160a01b031916831790558254167f38d16b8cac22d99fc7c124b9cd0de2d3fa1faef420bfe791d8c362d765e227008380a380f35b8280fd5b5080fd5b90503461011e57602036600319011261011e5781356001600160a01b03811692908390036101db576101566109f6565b82156101995780546001600160a01b03191683179055519081527f70a4c123acda37162efe6adf1cd1786c0402ea17bd34fd467b2be53d66dad09e90602090a180f35b6020606492519162461bcd60e51b8352820152601e60248201527f416464726573732063616e6e6f74206265207a65726f206164647265737300006044820152fd5b8380fd5b83903461012257816003193601126101225760015490516001600160a01b039091168152602090f35b839034610122578160031936011261012257805161024b916102298261095c565b600382526245525360e81b6020830152519182916020835260208301906109b6565b0390f35b9190503461011e578260031936011261011e575490516001600160a01b03909116815260209150f35b839150346101225760603660031901126101225767ffffffffffffffff92803591906024604435813587821161059a573660238301121561059a5781840135976102c18961099a565b986102ce87519a8b610978565b808a526020933686838301011161059657818a928c87898195019101378b01015262015180820180831161058457421161054e57855190838201927fc20c71951ed329d00fcccce9e5a135ab0b74bc99462f3ea2c979d5035e28ed048452338884015288606084015260808301526080825260a08201908282109082111761053a578652519020604290610360610c52565b9086519161190160f01b835260028301526022820152209660018060a01b03978885541661038e8383610d7d565b600581959295101561052857908b8b939215958661051c575b50508415610469575b5050505015610435575084957f000000000000000000000000000000000000000000000000000000000000000016803b1561043157859283604492865197889586946312c85ed760e11b865233908601528401525af190811561042857506104155750f35b61041e90610932565b6104255780f35b80fd5b513d84823e3d90fd5b8580fd5b90601191606494519362461bcd60e51b855284015282015270496e76616c6964207369676e617475726560781b6044820152fd5b8293945088516104a88161049a89820194630b135d3f60e11b998a87528c8401528d604484015260648301906109b6565b03601f198101835282610978565b51915afa903d15610515573d6104bd8161099a565b906104ca88519283610978565b81523d898583013e5b82610508575b826104ea575b5050888781806103b0565b9091508281805181010312610504578201511488806104df565b8780fd5b91508282511015916104d9565b60606104d3565b16821494508b8d6103a7565b634e487b7160e01b8b5260218852868bfd5b84604187634e487b7160e01b600052526000fd5b855162461bcd60e51b81528086018490526011818601527045787069726564207369676e617475726560781b6044820152606490fd5b634e487b7160e01b8952601186528489fd5b8980fd5b8680fd5b839034610122578160031936011261012257905490516001600160a01b039091168152602090f35b90503461011e578260031936011261011e576106017f0000000000000000000000000000000000000000000000000000000000000000610a4e565b9261062b7f0000000000000000000000000000000000000000000000000000000000000000610b7a565b90825192602092602085019585871067ffffffffffffffff8811176106d2575092602061068883889661067b998b9996528686528151998a99600f60f81b8b5260e0868c015260e08b01906109b6565b91898303908a01526109b6565b924660608801523060808801528460a088015286840360c088015251928381520193925b8281106106bb57505050500390f35b8351855286955093810193928101926001016106ac565b604190634e487b7160e01b6000525260246000fd5b839034610122578160031936011261012257805161024b916107088261095c565b60058252640322e302e360dc1b6020830152519182916020835260208301906109b6565b90503461011e578260031936011261011e57600154916001600160a01b039133838516036107a35750506bffffffffffffffffffffffff60a01b8092166001556000549133908316176000553391167f8be0079c531659141344cd1fd0a4f28419497f9722a3daafe3b4186f6b6457e0600080a380f35b906020608492519162461bcd60e51b8352820152602960248201527f4f776e61626c6532537465703a2063616c6c6572206973206e6f7420746865206044820152683732bb9037bbb732b960b91b6064820152fd5b83346104255780600319360112610425576108116109f6565b600180546001600160a01b0319908116909155600080549182168155906001600160a01b03167f8be0079c531659141344cd1fd0a4f28419497f9722a3daafe3b4186f6b6457e08280a380f35b90503461011e57602036600319011261011e578282356001600160a01b038181169182900361011e5761088f6109f6565b7f00000000000000000000000000000000000000000000000000000000000000001693843b1561011e576024908385519687948593630cc2a61f60e11b85528401525af190811561042857506108e3575080f35b6108ec90610932565b80f35b8490346101225781600319360112610122577f00000000000000000000000000000000000000000000000000000000000000006001600160a01b03168152602090f35b67ffffffffffffffff811161094657604052565b634e487b7160e01b600052604160045260246000fd5b6040810190811067ffffffffffffffff82111761094657604052565b90601f8019910116810190811067ffffffffffffffff82111761094657604052565b67ffffffffffffffff811161094657601f01601f191660200190565b919082519283825260005b8481106109e2575050826000602080949584010152601f8019910116010190565b6020818301810151848301820152016109c1565b6000546001600160a01b03163303610a0a57565b606460405162461bcd60e51b815260206004820152602060248201527f4f776e61626c653a2063616c6c6572206973206e6f7420746865206f776e65726044820152fd5b60ff8114610a8c5760ff811690601f8211610a7a5760405191610a708361095c565b8252602082015290565b604051632cd44ac360e21b8152600490fd5b5060405160006002549060018260011c9060018416938415610b70575b6020948584108114610b5c5783875286949392918115610b3c5750600114610add575b5050610ada92500382610978565b90565b9093915060026000527f405787fa12a823e0f2b7631cc41b3ba8828b3321ca811111fa75cd3aa3bb5ace936000915b818310610b24575050610ada93508201013880610acc565b85548784018501529485019486945091830191610b0c565b915050610ada94925060ff191682840152151560051b8201013880610acc565b634e487b7160e01b85526022600452602485fd5b91607f1691610aa9565b60ff8114610b9c5760ff811690601f8211610a7a5760405191610a708361095c565b5060405160006003549060018260011c9060018416938415610c48575b6020948584108114610b5c5783875286949392918115610b3c5750600114610be9575050610ada92500382610978565b9093915060036000527fc2575a0e9e593c00f959f8c92f12db2869c3395a3b0502d05e2516446f71f85b936000915b818310610c30575050610ada93508201013880610acc565b85548784018501529485019486945091830191610c18565b91607f1691610bb9565b307f00000000000000000000000000000000000000000000000000000000000000006001600160a01b03161480610d54575b15610cad577f000000000000000000000000000000000000000000000000000000000000000090565b60405160208101907f8b73c3c69bb8fe3d512ecc4cf759cc79239f7b179b0ffacaa9a75d522b39400f82527f000000000000000000000000000000000000000000000000000000000000000060408201527f000000000000000000000000000000000000000000000000000000000000000060608201524660808201523060a082015260a0815260c0810181811067ffffffffffffffff8211176109465760405251902090565b507f00000000000000000000000000000000000000000000000000000000000000004614610c84565b906041815114600014610dab57610da7916020820151906060604084015193015160001a90610db5565b9091565b5050600090600290565b9291907f7fffffffffffffffffffffffffffffff5d576e7357a4501ddfe92f46681b20a08311610e385791608094939160ff602094604051948552168484015260408301526060820152600093849182805260015afa15610e2b5781516001600160a01b03811615610e25579190565b50600190565b50604051903d90823e3d90fd5b5050505060009060039056fea2646970667358221220b2a0d3d16f2011b07455fcd9718e06c704f430b23d7cf3398f87cc8692d5cd0464736f6c63430008180033"
}