{
  "address": "0xFdAC66e782D6C3f98ca7EE282F9f3D51d6e5D285",
  "abi": [
    {
      "inputs": [],
      "stateMutability": "nonpayable",
      "type": "constructor"
    },
    {
      "inputs": [
        {
          "internalType": "address",
          "name": "",
          "type": "address"
        },
        {
          "internalType": "address",
          "name": "",
          "type": "address"
        },
        {
          "internalType": "address",
          "name": "",
          "type": "address"
        },
        {
          "internalType": "bytes",
          "name": "",
          "type": "bytes"
        },
        {
          "internalType": "bytes",
          "name": "",
          "type": "bytes"
        }
      ],
      "name": "authorizeTransfer",
      "outputs": [],
      "stateMutability": "nonpayable",
      "type": "function"
    }
  ],
  "transactionHash": "0x4d4549bfcfe39778fb0eaebc495329d453b11328112ca682e24ba02bf93d3b4f",
  "args": [],
  "numDeployments": 1,
  "solcInputHash": "5fcfa18e4a4c3d18ea9c3144e86bb365",
  "bytecode": "0x608060405234801561001057600080fd5b50610186806100206000396000f3fe608060405234801561001057600080fd5b506004361061002b5760003560e01c8063f31924f414610030575b600080fd5b61004761003e3660046100ae565b50505050505050565b005b80356001600160a01b038116811461006057600080fd5b919050565b60008083601f84011261007757600080fd5b50813567ffffffffffffffff81111561008f57600080fd5b6020830191508360208285010111156100a757600080fd5b9250929050565b600080600080600080600060a0888a0312156100c957600080fd5b6100d288610049565b96506100e060208901610049565b95506100ee60408901610049565b9450606088013567ffffffffffffffff8082111561010b57600080fd5b6101178b838c01610065565b909650945060808a013591508082111561013057600080fd5b5061013d8a828b01610065565b989b979a5095985093969295929350505056fea26469706673582212204e6b06f80f0fc9034f79c11489c8ec140c14a0695e9bfe4a8ae6a36a6055894564736f6c63430008110033"
}