{
  "address": "0x72921933c5448A253f6Fa8b90f6b4Be43b1AFaa3",
  "abi": [
    {
      "inputs": [],
      "stateMutability": "nonpayable",
      "type": "constructor"
    },
    {
      "inputs": [
        {
          "internalType": "address",
          "name": "",
          "type": "address"
        },
        {
          "internalType": "address",
          "name": "",
          "type": "address"
        },
        {
          "internalType": "address",
          "name": "",
          "type": "address"
        },
        {
          "internalType": "bytes",
          "name": "",
          "type": "bytes"
        },
        {
          "internalType": "bytes",
          "name": "",
          "type": "bytes"
        }
      ],
      "name": "authorizeTransfer",
      "outputs": [],
      "stateMutability": "nonpayable",
      "type": "function"
    }
  ],
  "transactionHash": "0xf1ba5b6c18104d5df95050b4e327d6b2660c20f5c82ba5a7f3e64199020bb7eb",
  "args": [],
  "numDeployments": 1,
  "solcInputHash": "506b2add1b56cef4fbe0ce691febffd1",
  "bytecode": "0x6080806040523461001657610106908161001c8239f35b600080fdfe60806040526004361015601157600080fd5b6000803560e01c63f31924f414602657600080fd5b34609d5760a0366003190112609d576001600160a01b03600435818116036095576024358181160360955760443590811603609d5767ffffffffffffffff606435818111609957607990369060040160a0565b5050608435908111609557609090369060040160a0565b505080f35b5080fd5b8280fd5b80fd5b9181601f8401121560cb5782359167ffffffffffffffff831160cb576020838186019501011160cb57565b600080fdfea2646970667358221220b2ed8019fbc17716c5e2793828258f7de71572008ae5f1bf572c2858bc62daa564736f6c63430008180033"
}