{
  "address": "0xB1c96841390142D2e9E5F43270BB778B651DB9C4",
  "abi": [
    {
      "inputs": [
        {
          "internalType": "address",
          "name": "_projectManager",
          "type": "address"
        },
        {
          "internalType": "contract IChipRegistry",
          "name": "_chipRegistry",
          "type": "address"
        },
        {
          "internalType": "contract IERS",
          "name": "_ers",
          "type": "address"
        },
        {
          "internalType": "contract IDeveloperRegistrar",
          "name": "_developerRegistrar",
          "type": "address"
        }
      ],
      "stateMutability": "nonpayable",
      "type": "constructor"
    },
    {
      "anonymous": false,
      "inputs": [
        {
          "indexed": true,
          "internalType": "address",
          "name": "previousOwner",
          "type": "address"
        },
        {
          "indexed": true,
          "internalType": "address",
          "name": "newOwner",
          "type": "address"
        }
      ],
      "name": "OwnershipTransferred",
      "type": "event"
    },
    {
      "anonymous": false,
      "inputs": [
        {
          "indexed": false,
          "internalType": "bytes32",
          "name": "_rootNode",
          "type": "bytes32"
        }
      ],
      "name": "RootNodeSet",
      "type": "event"
    },
    {
      "inputs": [],
      "name": "chipRegistry",
      "outputs": [
        {
          "internalType": "contract IChipRegistry",
          "name": "",
          "type": "address"
        }
      ],
      "stateMutability": "view",
      "type": "function"
    },
    {
      "inputs": [
        {
          "components": [
            {
              "internalType": "address",
              "name": "chipId",
              "type": "address"
            },
            {
              "internalType": "bytes32",
              "name": "chipNameHash",
              "type": "bytes32"
            },
            {
              "components": [
                {
                  "internalType": "uint256",
                  "name": "developerIndex",
                  "type": "uint256"
                },
                {
                  "internalType": "bytes32",
                  "name": "serviceId",
                  "type": "bytes32"
                },
                {
                  "internalType": "uint256",
                  "name": "lockinPeriod",
                  "type": "uint256"
                },
                {
                  "internalType": "string",
                  "name": "tokenUri",
                  "type": "string"
                },
                {
                  "internalType": "bytes32[]",
                  "name": "developerProof",
                  "type": "bytes32[]"
                }
              ],
              "internalType": "struct IChipRegistry.DeveloperMerkleInfo",
              "name": "developerMerkleInfo",
              "type": "tuple"
            },
            {
              "components": [
                {
                  "internalType": "bytes32",
                  "name": "enrollmentId",
                  "type": "bytes32"
                },
                {
                  "internalType": "uint256",
                  "name": "mIndex",
                  "type": "uint256"
                },
                {
                  "internalType": "bytes32[]",
                  "name": "manufacturerProof",
                  "type": "bytes32[]"
                }
              ],
              "internalType": "struct IChipRegistry.ManufacturerValidation",
              "name": "manufacturerValidation",
              "type": "tuple"
            },
            {
              "internalType": "bytes",
              "name": "developerInclusionProof",
              "type": "bytes"
            },
            {
              "internalType": "bytes",
              "name": "developerCustodyProof",
              "type": "bytes"
            }
          ],
          "internalType": "struct RedirectProjectRegistrar.ProjectChipClaim[]",
          "name": "_claimData",
          "type": "tuple[]"
        }
      ],
      "name": "claimChips",
      "outputs": [],
      "stateMutability": "nonpayable",
      "type": "function"
    },
    {
      "inputs": [],
      "name": "developerRegistrar",
      "outputs": [
        {
          "internalType": "contract IDeveloperRegistrar",
          "name": "",
          "type": "address"
        }
      ],
      "stateMutability": "view",
      "type": "function"
    },
    {
      "inputs": [],
      "name": "ers",
      "outputs": [
        {
          "internalType": "contract IERS",
          "name": "",
          "type": "address"
        }
      ],
      "stateMutability": "view",
      "type": "function"
    },
    {
      "inputs": [],
      "name": "owner",
      "outputs": [
        {
          "internalType": "address",
          "name": "",
          "type": "address"
        }
      ],
      "stateMutability": "view",
      "type": "function"
    },
    {
      "inputs": [],
      "name": "renounceOwnership",
      "outputs": [],
      "stateMutability": "nonpayable",
      "type": "function"
    },
    {
      "inputs": [],
      "name": "rootNode",
      "outputs": [
        {
          "internalType": "bytes32",
          "name": "",
          "type": "bytes32"
        }
      ],
      "stateMutability": "view",
      "type": "function"
    },
    {
      "inputs": [
        {
          "internalType": "bytes32",
          "name": "_rootNode",
          "type": "bytes32"
        }
      ],
      "name": "setRootNode",
      "outputs": [],
      "stateMutability": "nonpayable",
      "type": "function"
    },
    {
      "inputs": [
        {
          "internalType": "address",
          "name": "newOwner",
          "type": "address"
        }
      ],
      "name": "transferOwnership",
      "outputs": [],
      "stateMutability": "nonpayable",
      "type": "function"
    }
  ],
  "transactionHash": "0x692ddaacda7bc9328b9ec476a6695008f93300ab2545fe371a1d2fba65b1c65e",
  "args": [
    "0xa969B2687c5486491893a78dAfDE1A1617C2691a",
    "0xd1aB0240621Aa7C89b60f6D71013Bc62a43448FD",
    "0x8F6F9E681d34f5306b34C2a080eFc1bc59cb77Bf",
    "0x9f138288cF707F95026Bcf0cb8c70418b648d459"
  ],
  "numDeployments": 1,
  "solcInputHash": "5fcfa18e4a4c3d18ea9c3144e86bb365",
  "bytecode": "0x60e060405234801561001057600080fd5b50604051610de6380380610de683398101604081905261002f916100d0565b8383838361003c33610068565b61004584610068565b6001600160a01b0392831660805290821660a0521660c0525061012f9350505050565b600080546001600160a01b038381166001600160a01b0319831681178455604051919092169283917f8be0079c531659141344cd1fd0a4f28419497f9722a3daafe3b4186f6b6457e09190a35050565b6001600160a01b03811681146100cd57600080fd5b50565b600080600080608085870312156100e657600080fd5b84516100f1816100b8565b6020860151909450610102816100b8565b6040860151909350610113816100b8565b6060860151909250610124816100b8565b939692955090935050565b60805160a05160c051610c7561017160003960008181610136015261022e01526000818160fe0152610480015260008181609d015261051b0152610c756000f3fe608060405234801561001057600080fd5b50600436106100935760003560e01c80638da5cb5b116100665780638da5cb5b146101205780639ae3774a14610131578063d20ab1d714610158578063f2fde38b1461016b578063faff50a81461017e57600080fd5b806311e6575b1461009857806370ed6ca5146100dc578063715018a6146100f15780637ac9d738146100f9575b600080fd5b6100bf7f000000000000000000000000000000000000000000000000000000000000000081565b6040516001600160a01b0390911681526020015b60405180910390f35b6100ef6100ea3660046105fa565b610195565b005b6100ef610218565b6100bf7f000000000000000000000000000000000000000000000000000000000000000081565b6000546001600160a01b03166100bf565b6100bf7f000000000000000000000000000000000000000000000000000000000000000081565b6100ef61016636600461066f565b61022c565b6100ef6101793660046106a4565b610371565b61018760015481565b6040519081526020016100d3565b61019d6103ea565b60005b818110156102135760008383838181106101bc576101bc6106c6565b90506020028101906101ce91906106dc565b6101d7906109a4565b905061020081600001518260200151338460400151856060015186608001518760a00151610444565b508061020b81610a76565b9150506101a0565b505050565b6102206103ea565b61022a60006105aa565b565b7f00000000000000000000000000000000000000000000000000000000000000006001600160a01b031633146102ee5760405162461bcd60e51b815260206004820152605660248201527f6f6e6c79446576656c6f7065725265676973747261723a204f6e6c792074686560448201527f20636f6e7472616374277320446576656c6f706572205265676973747261722060648201527531b0b71031b0b636103a3434b990333ab731ba34b7b760511b608482015260a4015b60405180910390fd5b600154156103365760405162461bcd60e51b8152602060048201526015602482015274149bdbdd081b9bd91948185b1c9958591e481cd95d605a1b60448201526064016102e5565b60018190556040518181527f502693e2258520f4d18d6fa7678fbf02628ce8c5ea57d1901bccd512290e9a6e9060200160405180910390a150565b6103796103ea565b6001600160a01b0381166103de5760405162461bcd60e51b815260206004820152602660248201527f4f776e61626c653a206e6577206f776e657220697320746865207a65726f206160448201526564647265737360d01b60648201526084016102e5565b6103e7816105aa565b50565b6000546001600160a01b0316331461022a5760405162461bcd60e51b815260206004820181905260248201527f4f776e61626c653a2063616c6c6572206973206e6f7420746865206f776e657260448201526064016102e5565b600154604051630329904360e61b81526004810191909152602481018790526001600160a01b03868116604483015288811660648301526000917f00000000000000000000000000000000000000000000000000000000000000009091169063ca6410c0906084016020604051808303816000875af11580156104cb573d6000803e3d6000fd5b505050506040513d601f19601f820116820180604052508101906104ef9190610a9d565b905060006040518060600160405280886001600160a01b031681526020018381526020018781525090507f00000000000000000000000000000000000000000000000000000000000000006001600160a01b0316631d0c1dfe8a838888886040518663ffffffff1660e01b815260040161056d959493929190610b68565b600060405180830381600087803b15801561058757600080fd5b505af115801561059b573d6000803e3d6000fd5b50505050505050505050505050565b600080546001600160a01b038381166001600160a01b0319831681178455604051919092169283917f8be0079c531659141344cd1fd0a4f28419497f9722a3daafe3b4186f6b6457e09190a35050565b6000806020838503121561060d57600080fd5b823567ffffffffffffffff8082111561062557600080fd5b818501915085601f83011261063957600080fd5b81358181111561064857600080fd5b8660208260051b850101111561065d57600080fd5b60209290920196919550909350505050565b60006020828403121561068157600080fd5b5035919050565b80356001600160a01b038116811461069f57600080fd5b919050565b6000602082840312156106b657600080fd5b6106bf82610688565b9392505050565b634e487b7160e01b600052603260045260246000fd5b6000823560be198336030181126106f257600080fd5b9190910192915050565b634e487b7160e01b600052604160045260246000fd5b60405160a0810167ffffffffffffffff81118282101715610735576107356106fc565b60405290565b60405160c0810167ffffffffffffffff81118282101715610735576107356106fc565b604051601f8201601f1916810167ffffffffffffffff81118282101715610787576107876106fc565b604052919050565b600067ffffffffffffffff8311156107a9576107a96106fc565b6107bc601f8401601f191660200161075e565b90508281528383830111156107d057600080fd5b828260208301376000602084830101529392505050565b600082601f8301126107f857600080fd5b8135602067ffffffffffffffff821115610814576108146106fc565b8160051b61082382820161075e565b928352848101820192828101908785111561083d57600080fd5b83870192505b8483101561085c57823582529183019190830190610843565b979650505050505050565b600060a0828403121561087957600080fd5b610881610712565b9050813581526020820135602082015260408201356040820152606082013567ffffffffffffffff808211156108b657600080fd5b818401915084601f8301126108ca57600080fd5b6108d98583356020850161078f565b606084015260808401359150808211156108f257600080fd5b506108ff848285016107e7565b60808301525092915050565b60006060828403121561091d57600080fd5b6040516060810167ffffffffffffffff8282108183111715610941576109416106fc565b816040528293508435835260208501356020840152604085013591508082111561096a57600080fd5b50610977858286016107e7565b6040830152505092915050565b600082601f83011261099557600080fd5b6106bf8383356020850161078f565b600060c082360312156109b657600080fd5b6109be61073b565b6109c783610688565b815260208301356020820152604083013567ffffffffffffffff808211156109ee57600080fd5b6109fa36838701610867565b60408401526060850135915080821115610a1357600080fd5b610a1f3683870161090b565b60608401526080850135915080821115610a3857600080fd5b610a4436838701610984565b608084015260a0850135915080821115610a5d57600080fd5b50610a6a36828601610984565b60a08301525092915050565b600060018201610a9657634e487b7160e01b600052601160045260246000fd5b5060010190565b600060208284031215610aaf57600080fd5b5051919050565b6000815180845260005b81811015610adc57602081850181015186830182015201610ac0565b506000602082860101526020601f19601f83011685010191505092915050565b600081518084526020808501945080840160005b83811015610b2c57815187529582019590820190600101610b10565b509495945050505050565b80518252602081015160208301526000604082015160606040850152610b606060850182610afc565b949350505050565b600060018060a01b03808816835260a060208401528087511660a084015250602086015160c08301526040860151606060e0840152805161010084015260208101516101208401526040810151610140840152606081015160a0610160850152610bd66101a0850182610ab6565b90506080820151915060ff1984820301610180850152610bf68183610afc565b9150508281036040840152610c0b8187610b37565b90508281036060840152610c1f8186610ab6565b90508281036080840152610c338185610ab6565b9897505050505050505056fea26469706673582212200e38e69dbf982c56c2525ac48ed925ec149cbcd16818102c2b2306608c47d81864736f6c63430008110033"
}