{
  "address": "0x7d483293BB2BB9E98987980015d8C753B32C4d7B",
  "abi": [
    {
      "inputs": [
        {
          "internalType": "contract IChipRegistry",
          "name": "_chipRegistry",
          "type": "address"
        },
        {
          "internalType": "uint256",
          "name": "_maxBlockWindow",
          "type": "uint256"
        }
      ],
      "stateMutability": "nonpayable",
      "type": "constructor"
    },
    {
      "inputs": [],
      "name": "InvalidShortString",
      "type": "error"
    },
    {
      "inputs": [
        {
          "internalType": "string",
          "name": "str",
          "type": "string"
        }
      ],
      "name": "StringTooLong",
      "type": "error"
    },
    {
      "anonymous": false,
      "inputs": [],
      "name": "EIP712DomainChanged",
      "type": "event"
    },
    {
      "anonymous": false,
      "inputs": [
        {
          "indexed": true,
          "internalType": "address",
          "name": "chipId",
          "type": "address"
        },
        {
          "indexed": true,
          "internalType": "bytes32",
          "name": "newPrimaryService",
          "type": "bytes32"
        },
        {
          "indexed": false,
          "internalType": "bytes32",
          "name": "oldPrimaryService",
          "type": "bytes32"
        },
        {
          "indexed": false,
          "internalType": "uint256",
          "name": "serviceTimelock",
          "type": "uint256"
        }
      ],
      "name": "PrimaryServiceUpdated",
      "type": "event"
    },
    {
      "anonymous": false,
      "inputs": [
        {
          "indexed": true,
          "internalType": "address",
          "name": "chipId",
          "type": "address"
        },
        {
          "indexed": true,
          "internalType": "bytes32",
          "name": "serviceId",
          "type": "bytes32"
        }
      ],
      "name": "SecondaryServiceAdded",
      "type": "event"
    },
    {
      "anonymous": false,
      "inputs": [
        {
          "indexed": true,
          "internalType": "address",
          "name": "chipId",
          "type": "address"
        },
        {
          "indexed": true,
          "internalType": "bytes32",
          "name": "serviceId",
          "type": "bytes32"
        }
      ],
      "name": "SecondaryServiceRemoved",
      "type": "event"
    },
    {
      "anonymous": false,
      "inputs": [
        {
          "indexed": true,
          "internalType": "bytes32",
          "name": "serviceId",
          "type": "bytes32"
        },
        {
          "indexed": true,
          "internalType": "address",
          "name": "owner",
          "type": "address"
        }
      ],
      "name": "ServiceCreated",
      "type": "event"
    },
    {
      "anonymous": false,
      "inputs": [
        {
          "indexed": true,
          "internalType": "bytes32",
          "name": "serviceId",
          "type": "bytes32"
        },
        {
          "indexed": false,
          "internalType": "address",
          "name": "oldOwner",
          "type": "address"
        },
        {
          "indexed": false,
          "internalType": "address",
          "name": "newOwner",
          "type": "address"
        }
      ],
      "name": "ServiceOwnershipTransferred",
      "type": "event"
    },
    {
      "anonymous": false,
      "inputs": [
        {
          "indexed": true,
          "internalType": "bytes32",
          "name": "serviceId",
          "type": "bytes32"
        },
        {
          "indexed": true,
          "internalType": "bytes32",
          "name": "recordType",
          "type": "bytes32"
        },
        {
          "indexed": false,
          "internalType": "bytes",
          "name": "content",
          "type": "bytes"
        },
        {
          "indexed": false,
          "internalType": "bool",
          "name": "appendId",
          "type": "bool"
        }
      ],
      "name": "ServiceRecordAdded",
      "type": "event"
    },
    {
      "anonymous": false,
      "inputs": [
        {
          "indexed": true,
          "internalType": "bytes32",
          "name": "serviceId",
          "type": "bytes32"
        },
        {
          "indexed": true,
          "internalType": "bytes32",
          "name": "recordType",
          "type": "bytes32"
        },
        {
          "indexed": false,
          "internalType": "bytes",
          "name": "newContent",
          "type": "bytes"
        },
        {
          "indexed": false,
          "internalType": "bool",
          "name": "appendId",
          "type": "bool"
        }
      ],
      "name": "ServiceRecordEdited",
      "type": "event"
    },
    {
      "anonymous": false,
      "inputs": [
        {
          "indexed": true,
          "internalType": "bytes32",
          "name": "serviceId",
          "type": "bytes32"
        },
        {
          "indexed": true,
          "internalType": "bytes32",
          "name": "recordType",
          "type": "bytes32"
        }
      ],
      "name": "ServiceRecordRemoved",
      "type": "event"
    },
    {
      "inputs": [],
      "name": "EIP712_SIGNATURE_DOMAIN",
      "outputs": [
        {
          "internalType": "string",
          "name": "",
          "type": "string"
        }
      ],
      "stateMutability": "view",
      "type": "function"
    },
    {
      "inputs": [],
      "name": "EIP712_SIGNATURE_VERSION",
      "outputs": [
        {
          "internalType": "string",
          "name": "",
          "type": "string"
        }
      ],
      "stateMutability": "view",
      "type": "function"
    },
    {
      "inputs": [
        {
          "internalType": "address",
          "name": "_chipId",
          "type": "address"
        },
        {
          "internalType": "bytes32",
          "name": "_serviceId",
          "type": "bytes32"
        },
        {
          "internalType": "uint256",
          "name": "_commitBlock",
          "type": "uint256"
        },
        {
          "internalType": "bytes",
          "name": "_signature",
          "type": "bytes"
        }
      ],
      "name": "addSecondaryService",
      "outputs": [],
      "stateMutability": "nonpayable",
      "type": "function"
    },
    {
      "inputs": [
        {
          "internalType": "bytes32",
          "name": "_serviceId",
          "type": "bytes32"
        },
        {
          "components": [
            {
              "internalType": "bytes32",
              "name": "recordType",
              "type": "bytes32"
            },
            {
              "internalType": "bytes",
              "name": "content",
              "type": "bytes"
            },
            {
              "internalType": "bool",
              "name": "appendId",
              "type": "bool"
            }
          ],
          "internalType": "struct ServicesRegistry.ServiceRecord[]",
          "name": "_serviceRecords",
          "type": "tuple[]"
        }
      ],
      "name": "addServiceRecords",
      "outputs": [],
      "stateMutability": "nonpayable",
      "type": "function"
    },
    {
      "inputs": [],
      "name": "chipRegistry",
      "outputs": [
        {
          "internalType": "contract IChipRegistry",
          "name": "",
          "type": "address"
        }
      ],
      "stateMutability": "view",
      "type": "function"
    },
    {
      "inputs": [
        {
          "internalType": "address",
          "name": "",
          "type": "address"
        }
      ],
      "name": "chipServices",
      "outputs": [
        {
          "internalType": "bytes32",
          "name": "primaryService",
          "type": "bytes32"
        },
        {
          "internalType": "uint256",
          "name": "serviceTimelock",
          "type": "uint256"
        }
      ],
      "stateMutability": "view",
      "type": "function"
    },
    {
      "inputs": [
        {
          "internalType": "bytes32",
          "name": "_serviceId",
          "type": "bytes32"
        },
        {
          "components": [
            {
              "internalType": "bytes32",
              "name": "recordType",
              "type": "bytes32"
            },
            {
              "internalType": "bytes",
              "name": "content",
              "type": "bytes"
            },
            {
              "internalType": "bool",
              "name": "appendId",
              "type": "bool"
            }
          ],
          "internalType": "struct ServicesRegistry.ServiceRecord[]",
          "name": "_serviceRecords",
          "type": "tuple[]"
        }
      ],
      "name": "createService",
      "outputs": [],
      "stateMutability": "nonpayable",
      "type": "function"
    },
    {
      "inputs": [
        {
          "internalType": "bytes32",
          "name": "_serviceId",
          "type": "bytes32"
        },
        {
          "components": [
            {
              "internalType": "bytes32",
              "name": "recordType",
              "type": "bytes32"
            },
            {
              "internalType": "bytes",
              "name": "content",
              "type": "bytes"
            },
            {
              "internalType": "bool",
              "name": "appendId",
              "type": "bool"
            }
          ],
          "internalType": "struct ServicesRegistry.ServiceRecord[]",
          "name": "_serviceRecords",
          "type": "tuple[]"
        }
      ],
      "name": "editServiceRecords",
      "outputs": [],
      "stateMutability": "nonpayable",
      "type": "function"
    },
    {
      "inputs": [],
      "name": "eip712Domain",
      "outputs": [
        {
          "internalType": "bytes1",
          "name": "fields",
          "type": "bytes1"
        },
        {
          "internalType": "string",
          "name": "name",
          "type": "string"
        },
        {
          "internalType": "string",
          "name": "version",
          "type": "string"
        },
        {
          "internalType": "uint256",
          "name": "chainId",
          "type": "uint256"
        },
        {
          "internalType": "address",
          "name": "verifyingContract",
          "type": "address"
        },
        {
          "internalType": "bytes32",
          "name": "salt",
          "type": "bytes32"
        },
        {
          "internalType": "uint256[]",
          "name": "extensions",
          "type": "uint256[]"
        }
      ],
      "stateMutability": "view",
      "type": "function"
    },
    {
      "inputs": [
        {
          "internalType": "address",
          "name": "",
          "type": "address"
        },
        {
          "internalType": "bytes32",
          "name": "",
          "type": "bytes32"
        }
      ],
      "name": "enrolledServices",
      "outputs": [
        {
          "internalType": "bool",
          "name": "",
          "type": "bool"
        }
      ],
      "stateMutability": "view",
      "type": "function"
    },
    {
      "inputs": [
        {
          "internalType": "address",
          "name": "_chipId",
          "type": "address"
        }
      ],
      "name": "getAllChipServiceData",
      "outputs": [
        {
          "components": [
            {
              "components": [
                {
                  "internalType": "bytes32",
                  "name": "serviceId",
                  "type": "bytes32"
                },
                {
                  "components": [
                    {
                      "internalType": "bytes32",
                      "name": "recordType",
                      "type": "bytes32"
                    },
                    {
                      "internalType": "bytes",
                      "name": "content",
                      "type": "bytes"
                    }
                  ],
                  "internalType": "struct IServicesRegistry.Record[]",
                  "name": "records",
                  "type": "tuple[]"
                }
              ],
              "internalType": "struct IServicesRegistry.Service",
              "name": "primaryService",
              "type": "tuple"
            },
            {
              "internalType": "uint256",
              "name": "serviceTimelock",
              "type": "uint256"
            },
            {
              "components": [
                {
                  "internalType": "bytes32",
                  "name": "serviceId",
                  "type": "bytes32"
                },
                {
                  "components": [
                    {
                      "internalType": "bytes32",
                      "name": "recordType",
                      "type": "bytes32"
                    },
                    {
                      "internalType": "bytes",
                      "name": "content",
                      "type": "bytes"
                    }
                  ],
                  "internalType": "struct IServicesRegistry.Record[]",
                  "name": "records",
                  "type": "tuple[]"
                }
              ],
              "internalType": "struct IServicesRegistry.Service[]",
              "name": "secondaryServices",
              "type": "tuple[]"
            }
          ],
          "internalType": "struct IServicesRegistry.ExpandedChipServices",
          "name": "",
          "type": "tuple"
        }
      ],
      "stateMutability": "view",
      "type": "function"
    },
    {
      "inputs": [
        {
          "internalType": "address",
          "name": "_chipId",
          "type": "address"
        }
      ],
      "name": "getChipSecondaryServices",
      "outputs": [
        {
          "internalType": "bytes32[]",
          "name": "",
          "type": "bytes32[]"
        }
      ],
      "stateMutability": "view",
      "type": "function"
    },
    {
      "inputs": [
        {
          "internalType": "address",
          "name": "_chipId",
          "type": "address"
        }
      ],
      "name": "getPrimaryServiceContent",
      "outputs": [
        {
          "components": [
            {
              "internalType": "bytes32",
              "name": "recordType",
              "type": "bytes32"
            },
            {
              "internalType": "bytes",
              "name": "content",
              "type": "bytes"
            }
          ],
          "internalType": "struct IServicesRegistry.Record[]",
          "name": "",
          "type": "tuple[]"
        }
      ],
      "stateMutability": "view",
      "type": "function"
    },
    {
      "inputs": [
        {
          "internalType": "address",
          "name": "_chipId",
          "type": "address"
        },
        {
          "internalType": "bytes32",
          "name": "_recordType",
          "type": "bytes32"
        }
      ],
      "name": "getPrimaryServiceContentByRecordtype",
      "outputs": [
        {
          "internalType": "bytes",
          "name": "",
          "type": "bytes"
        }
      ],
      "stateMutability": "view",
      "type": "function"
    },
    {
      "inputs": [
        {
          "internalType": "address",
          "name": "_chipId",
          "type": "address"
        },
        {
          "internalType": "bytes32",
          "name": "_serviceId",
          "type": "bytes32"
        }
      ],
      "name": "getServiceContent",
      "outputs": [
        {
          "components": [
            {
              "internalType": "bytes32",
              "name": "recordType",
              "type": "bytes32"
            },
            {
              "internalType": "bytes",
              "name": "content",
              "type": "bytes"
            }
          ],
          "internalType": "struct IServicesRegistry.Record[]",
          "name": "records",
          "type": "tuple[]"
        }
      ],
      "stateMutability": "view",
      "type": "function"
    },
    {
      "inputs": [
        {
          "internalType": "bytes32",
          "name": "_serviceId",
          "type": "bytes32"
        }
      ],
      "name": "getServiceInfo",
      "outputs": [
        {
          "components": [
            {
              "internalType": "address",
              "name": "owner",
              "type": "address"
            },
            {
              "internalType": "bytes32[]",
              "name": "recordTypes",
              "type": "bytes32[]"
            }
          ],
          "internalType": "struct ServicesRegistry.ServiceInfo",
          "name": "",
          "type": "tuple"
        }
      ],
      "stateMutability": "view",
      "type": "function"
    },
    {
      "inputs": [
        {
          "internalType": "bytes32",
          "name": "_serviceId",
          "type": "bytes32"
        }
      ],
      "name": "isService",
      "outputs": [
        {
          "internalType": "bool",
          "name": "",
          "type": "bool"
        }
      ],
      "stateMutability": "view",
      "type": "function"
    },
    {
      "inputs": [],
      "name": "maxBlockWindow",
      "outputs": [
        {
          "internalType": "uint256",
          "name": "",
          "type": "uint256"
        }
      ],
      "stateMutability": "view",
      "type": "function"
    },
    {
      "inputs": [
        {
          "internalType": "address",
          "name": "_chipId",
          "type": "address"
        },
        {
          "internalType": "bytes32",
          "name": "_serviceId",
          "type": "bytes32"
        },
        {
          "internalType": "uint256",
          "name": "_commitBlock",
          "type": "uint256"
        },
        {
          "internalType": "bytes",
          "name": "_signature",
          "type": "bytes"
        }
      ],
      "name": "removeSecondaryService",
      "outputs": [],
      "stateMutability": "nonpayable",
      "type": "function"
    },
    {
      "inputs": [
        {
          "internalType": "bytes32",
          "name": "_serviceId",
          "type": "bytes32"
        },
        {
          "internalType": "bytes32[]",
          "name": "_recordTypes",
          "type": "bytes32[]"
        }
      ],
      "name": "removeServiceRecords",
      "outputs": [],
      "stateMutability": "nonpayable",
      "type": "function"
    },
    {
      "inputs": [
        {
          "internalType": "bytes32",
          "name": "",
          "type": "bytes32"
        }
      ],
      "name": "serviceInfo",
      "outputs": [
        {
          "internalType": "address",
          "name": "owner",
          "type": "address"
        }
      ],
      "stateMutability": "view",
      "type": "function"
    },
    {
      "inputs": [
        {
          "internalType": "bytes32",
          "name": "",
          "type": "bytes32"
        },
        {
          "internalType": "bytes32",
          "name": "",
          "type": "bytes32"
        }
      ],
      "name": "serviceRecords",
      "outputs": [
        {
          "internalType": "bool",
          "name": "enabled",
          "type": "bool"
        },
        {
          "internalType": "bool",
          "name": "appendId",
          "type": "bool"
        },
        {
          "internalType": "bytes",
          "name": "content",
          "type": "bytes"
        }
      ],
      "stateMutability": "view",
      "type": "function"
    },
    {
      "inputs": [
        {
          "internalType": "address",
          "name": "_chipId",
          "type": "address"
        },
        {
          "internalType": "bytes32",
          "name": "_serviceId",
          "type": "bytes32"
        },
        {
          "internalType": "uint256",
          "name": "_timelock",
          "type": "uint256"
        }
      ],
      "name": "setInitialService",
      "outputs": [],
      "stateMutability": "nonpayable",
      "type": "function"
    },
    {
      "inputs": [
        {
          "internalType": "address",
          "name": "_chipId",
          "type": "address"
        },
        {
          "internalType": "bytes32",
          "name": "_serviceId",
          "type": "bytes32"
        },
        {
          "internalType": "uint256",
          "name": "_newTimelock",
          "type": "uint256"
        },
        {
          "internalType": "uint256",
          "name": "_commitBlock",
          "type": "uint256"
        },
        {
          "internalType": "bytes",
          "name": "_signature",
          "type": "bytes"
        }
      ],
      "name": "setNewPrimaryService",
      "outputs": [],
      "stateMutability": "nonpayable",
      "type": "function"
    },
    {
      "inputs": [
        {
          "internalType": "bytes32",
          "name": "_serviceId",
          "type": "bytes32"
        },
        {
          "internalType": "address",
          "name": "_newOwner",
          "type": "address"
        }
      ],
      "name": "setServiceOwner",
      "outputs": [],
      "stateMutability": "nonpayable",
      "type": "function"
    },
    {
      "inputs": [
        {
          "internalType": "bytes4",
          "name": "_interfaceId",
          "type": "bytes4"
        }
      ],
      "name": "supportsInterface",
      "outputs": [
        {
          "internalType": "bool",
          "name": "",
          "type": "bool"
        }
      ],
      "stateMutability": "view",
      "type": "function"
    }
  ],
  "transactionHash": "0x303e374ba10334898aeee4e81c6d27d5cc1b2ff3f80323ba44504ea7ec08a428",
  "args": [
    "0x4EED142581c111860f6323168dC60c3eFCa3af24",
    "5"
  ],
  "numDeployments": 1,
  "solcInputHash": "506b2add1b56cef4fbe0ce691febffd1",
  "bytecode": "0x6101a034620001d357620032e2906001600160401b0390601f38849003908101601f191682019083821183831017620001bd5780839160409687948552833981010312620001d3578051906001600160a01b0382168203620001d357602001519083516200006d81620001d8565b60038152602081016245525360e81b815285516200008b81620001d8565b6005815260208101640322e302e360dc1b8152620000a984620001f4565b92610120938452620000bb83620003c7565b94610140958652519020918260e052519020610100978189524660a05280519160208301937f8b73c3c69bb8fe3d512ecc4cf759cc79239f7b179b0ffacaa9a75d522b39400f85528284015260608301524660808301523060a083015260a0825260c082019782891090891117620001bd578790525190206080523060c052610160928352610180938452612d6d958662000575873960805186612b45015260a05186612c10015260c05186612b0f015260e05186612b9401525185612bba01525184610cde01525183610d0701525182818161042601528181610af201528181610ded0152818161173a01526117fc01525181818161057501526114f80152f35b634e487b7160e01b600052604160045260246000fd5b600080fd5b604081019081106001600160401b03821117620001bd57604052565b8051602091908281101562000293575090601f8251116200023257808251920151908083106200022357501790565b82600019910360031b1b161790565b90604051809263305a27a960e01b82528060048301528251908160248401526000935b82851062000279575050604492506000838284010152601f80199101168101030190fd5b848101820151868601604401529381019385935062000255565b6001600160401b038111620001bd576000928354926001938481811c91168015620003bc575b83821014620003a857601f811162000372575b5081601f84116001146200030b57509282939183928694620002ff575b50501b916000199060031b1c191617905560ff90565b015192503880620002e9565b919083601f1981168780528488209488905b888383106200035757505050106200033d575b505050811b01905560ff90565b015160001960f88460031b161c1916905538808062000330565b8587015188559096019594850194879350908101906200031d565b85805284601f848820920160051c820191601f860160051c015b8281106200039c575050620002cc565b8781550185906200038c565b634e487b7160e01b86526022600452602486fd5b90607f1690620002b9565b805160209081811015620004555750601f825111620003f457808251920151908083106200022357501790565b90604051809263305a27a960e01b82528060048301528251908160248401526000935b8285106200043b575050604492506000838284010152601f80199101168101030190fd5b848101820151868601604401529381019385935062000417565b9192916001600160401b038111620001bd5760019182548381811c9116801562000569575b828210146200055357601f81116200051a575b5080601f8311600114620004cd575081929394600092620004c1575b5050600019600383901b1c191690821b17905560ff90565b015190503880620004a9565b90601f198316958460005282600020926000905b8882106200050257505083859697106200033d57505050811b01905560ff90565b808785968294968601518155019501930190620004e1565b8360005283601f83600020920160051c820191601f850160051c015b828110620005465750506200048d565b6000815501849062000536565b634e487b7160e01b600052602260045260246000fd5b90607f16906200047a56fe608080604052600436101561001357600080fd5b60003560e01c908162679882146117bf5750806301ffc9a71461176957806311e6575b146117245780631740152b146116d75780631b3e1a70146116a35780632106bb5f146116495780632747dee0146115cc5780632986b6dc1461151b5780635218574c146114e057806352e69be5146111bf57806357d601141461117c5780637bb5cb3b146111365780637fd3576a1461101e5780638025c93b14610dbf57806384b0196e14610cc5578063882f071214610c8757806398d070a914610ab3578063c3f8060714610980578063c4007b56146108da578063c5c6337e146107c0578063ce810b641461077c578063d1f22ac814610700578063d5ab08c0146103b2578063da80a855146101ba578063e45f7a4d1461017a5763fd2773991461013c57600080fd5b3461017557602036600319011261017557600480356000908152602091825260409020546001600160a01b031615156040519015158152f35b600080fd5b34610175576040366003190112610175576101b66101a261019961198e565b6024359061201d565b604051918291602083526020830190611b5b565b0390f35b3461017557602080600319360112610175576101d461198e565b6060604080516101e381611ab3565b6101eb612003565b8152600085820152015260018060a01b03811690816000526002835260406000209161021b600284549401611ed4565b908382519361022985611f27565b946102376040519687611b1f565b808652601f19948561024883611f27565b018960005b82811061038a5750505060005b828110610334575050509061026e9161201d565b6040519461027b86611ace565b8552858501526000526002845260019160016040600020015490604051946102a286611ab3565b8552858501918252604085019081526102cc60405195878752516060888801526080870190611c99565b9151604086015251948285830301606086015285519182815281810182808560051b8401019801946000925b85841061030557888a0389f35b9091929394959685806103218c8686869f030188528b51611c99565b9b990197969591909101930191906102f8565b819293945061034881600193999899611fef565b51610353818761201d565b6040519161036083611ace565b82528b8201526103708289611fef565b5261037b8188611fef565b5001908793929196959661025a565b9091929394955061039c989798612003565b82828a010152019089899594939298979861024d565b346101755760a0366003190112610175576103cb61198e565b6024803591604435606435608435926001600160401b0393848111610175576103f89036906004016119a4565b604051630a57ebcf60e11b81526001600160a01b0384811660048301819052986020969394929091878284817f000000000000000000000000000000000000000000000000000000000000000085165afa9081156106f457610465926000926106c5575b50163314611cd8565b88600052600286526040600020976001895499015442111561068157428811156106255760008b8152600460205260409020546104ac906001600160a01b03161515611d24565b896000526003875260406000208b600052875260ff604060002054166105cd576104d8898c1415611d69565b60405190878201927f28dacd5f66d77836d0f0111ce36dd85c45495be9694eee0fec0cc837e4979eaf84528560408401528c60608401528960808401526080835260a0830191838310908311176105b95750604098969361056a7f53f39806c40465aec03c3bd0917801234d18e06a7eea54747ee77b045e5490e39b99979461059a9794610572948d5251902061213a565b933691611dc4565b927f000000000000000000000000000000000000000000000000000000000000000092612160565b85600052600281528160018560002089815501558351928352820152a3005b634e487b7160e01b60009081526041600452fd5b60405162461bcd60e51b815260048101889052602b818401527f5072696d61727920736572766963652063616e6e6f74206265207365636f6e6460448201526a617279207365727669636560a81b6064820152608490fd5b60405162461bcd60e51b815260048101889052602f818401527f54696d656c6f636b206d7573742062652067726561746572207468616e20637560448201526e07272656e742074696d657374616d7608c1b6064820152608490fd5b60405162461bcd60e51b8152600481018890526018818401527f54696d656c6f636b20686173206e6f74206578706972656400000000000000006044820152606490fd5b6106e6919250893d8b116106ed575b6106de8183611b1f565b810190611cb9565b908d61045c565b503d6106d4565b6040513d6000823e3d90fd5b34610175576040366003190112610175576004356000526005602052604060002060243560005260205260ff60406000206101b6600161075383549361074c6040518094819301611c03565b0382611b1f565b6040519383818695161515855260081c1615156020840152606060408401526060830190611a8e565b34610175576000366003190112610175576101b660405161079c81611ace565b600381526245525360e81b6020820152604051918291602083526020830190611a8e565b34610175576107ce36611a1c565b82156108a1576000838152600460205260409020546001600160a01b031661085c57600083815260046020526040812080546001600160a01b031916331790555b81811061083f5733847f08a12c03383a5318df698bc9ac078681c15266f759745be5694da94fe5c30a6f600080a3005b806108566108506001938587611eb2565b8661231d565b0161080f565b60405162461bcd60e51b815260206004820152601760248201527f53657276696365496420616c72656164792074616b656e0000000000000000006044820152606490fd5b60405162461bcd60e51b8152602060048201526011602482015270125b9d985b1a590814d95c9d9a58d95259607a1b6044820152606490fd5b3461017557602080600319360112610175576108f4612003565b50600435600052600481526040600020906040519161091283611ace565b80546001600160a01b03908116845291600191610930908301611ed4565b81850190815260405193828552606085019551168285015251936040808501528451809152816080850195019160005b82811061096d5785870386f35b8351875295810195928101928401610960565b34610175576040366003190112610175576004356001600160a01b0360243581811690819003610175578260005260046020526109c582604060002054163314611e66565b8015610a7c57803314610a2c577f290c0cf26a546d6ef32f2ca926b6c56fbc9df7e22b896843e84d075a6f2531f0916040918460005260046020528260002091825492826bffffffffffffffffffffffff60a01b85161790558351921682526020820152a2005b60405162461bcd60e51b815260206004820152602260248201527f4f6c6420616e64206e6577206f776e6572206172652073616d65206164647265604482015261737360f01b6064820152608490fd5b60405162461bcd60e51b815260206004820152600f60248201526e496e76616c6964206164647265737360881b6044820152606490fd5b3461017557610ac1366119d1565b604051630a57ebcf60e11b81526001600160a01b0380871660048301819052959660209590949092909186826024817f000000000000000000000000000000000000000000000000000000000000000085165afa9081156106f457610b3092600092610c685750163314611cd8565b600087815260046020526040902054610b53906001600160a01b03161515611d24565b8560005260038552604060002087600052855260ff6040600020541615610c2c5790610572610bcc94939261056a604051888101907f26b2d8c6349a9f95540bab93c701ddb54e7878c11e57e71a11474b00335e062a82528560408201528b606082015260608152610bc481611ae9565b51902061213a565b8160005260028152610be5836002604060002001612810565b81600052600381526040600020908360005252604060002060ff1981541690557f1a8b1e7bb77ec8d99f90848cc973531f30dfe9a050f7c6dee0085de4a6841441600080a3005b60405162461bcd60e51b815260048101869052601460248201527314d95c9d9a58d9481b9bdd08195b9c9bdb1b195960621b6044820152606490fd5b610c80919250883d8a116106ed576106de8183611b1f565b908a61045c565b34610175576020366003190112610175576101b66101a2610ca661198e565b6001600160a01b0381166000908152600260205260409020549061201d565b3461017557600036600319011261017557610d60610d027f000000000000000000000000000000000000000000000000000000000000000061294a565b610d2b7f0000000000000000000000000000000000000000000000000000000000000000612a4b565b60405190610d3882611b04565b60008252610d6e602091604051958695600f60f81b875260e0602088015260e0870190611a8e565b908582036040870152611a8e565b466060850152306080850152600060a085015283810360c08501526020808451928381520193019160005b828110610da857505050500390f35b835185528695509381019392810192600101610d99565b3461017557606036600319011261017557610dd861198e565b602480359160443591906001600160a01b03907f000000000000000000000000000000000000000000000000000000000000000082163303610fda578315610f965716918260005260209160028352604060002054610f5357600085815260046020526040902054610e54906001600160a01b03161515611d24565b60405190610e6182611b04565b6000825260405191610e7283611ab3565b86835260028584019385855260408101928352876000528187526040600020905181556001945160018201550190518051926001600160401b0384116105b957600160401b84116105b9575085908254848455808510610f26575b5001906000528460002060005b838110610f155788887f53f39806c40465aec03c3bd0917801234d18e06a7eea54747ee77b045e5490e360408a8a82519160008352820152a3005b825182820155918601918401610eda565b8360005285858460002092830192015b828110610f44575050610ecd565b60008155899450879101610f36565b82601b6064926040519262461bcd60e51b845260048401528201527f5072696d617279207365727669636520616c72656164792073657400000000006044820152fd5b60405162461bcd60e51b815260206004820152601b818501527f54696d656c6f636b2063616e6e6f742062652073657420746f203000000000006044820152606490fd5b60405162461bcd60e51b815260206004820152601b818501527f43616c6c6572206d7573742062652043686970526567697374727900000000006044820152606490fd5b346101755761102c36611a1c565b9091806000526020906004825261105160018060a01b03604060002054163314611e66565b8060005260059160058152604060002060005b85811061106d57005b80600191861b8801358060005283855261108e60ff60406000205416611f7d565b8560005260048552826110a78282604060002001612810565b8160005284865280604060002060008155016110c38154611bc9565b806110f8575b505050857f063995d2515db887d14c261591ccefb724b7b1bf93349a9fb100f80950579bc1600080a301611064565b600092601f808311881461111357505050555b8980806110c9565b839161112f9186949585528b852095018d1c8501908501611fd8565b555561110b565b34610175576000366003190112610175576101b660405161115681611ace565b60058152640322e302e360dc1b6020820152604051918291602083526020830190611a8e565b34610175576020366003190112610175576001600160a01b0361119d61198e565b1660005260026020526040806000206001815491015482519182526020820152f35b34610175576111cd36611a1c565b908260005260046020526111ef60018060a01b03604060002054163314611e66565b6111f882611f27565b916112066040519384611b1f565b80835261121281611f27565b601f190136602085013783600052600560205260406000209360005b8281106112825761123e8561274c565b61124457005b60405162461bcd60e51b81526020600482015260166024820152754475706c6963617465207265636f726420747970657360501b6044820152606490fd5b61128d818486611eb2565b35906112b16112aa6112a0838789611eb2565b6020810190611f3e565b3691611dc4565b916112c860406112c284888a611eb2565b01611f70565b9281600052886020526112e260ff60406000205416611f7d565b81600052886020526001604060002001908051916001600160401b0383116114ca578a8188946113138d9454611bc9565b601f811161148d575b506020601f82116001146113dd57886113c1957f52f34e0475385ce89e2c293d20b537a7cf2a69fd805f398a5e28e89b43ea6165979560019c9561137c868d976113ac976000916113d2575b508160011b916000199060031b1c19161790565b90555b846000526020526113a78560406000209061ff00825491151560081b169061ff001916179055565b611fef565b52604051928392604084526040840190611a8e565b90151560208301520390a30161122e565b90508a015138611368565b98939291908160005260206000209960005b601f198316811061146057507f52f34e0475385ce89e2c293d20b537a7cf2a69fd805f398a5e28e89b43ea616596946113c196948a94600185819f8f966113ac98601f19811610611447575b5050811b01905561137f565b8b015160001960f88460031b161c19169055388061143b565b9350935093955093959697602060018192858a015181550193019101938995938e928e949a9998966113ef565b6114ba90836000526020600020601f840160051c810191602085106114c0575b601f0160051c0190611fd8565b8e61131c565b90915081906114ad565b634e487b7160e01b600052604160045260246000fd5b346101755760003660031901126101755760206040517f00000000000000000000000000000000000000000000000000000000000000008152f35b346101755760403660031901126101755761153461198e565b60018060a01b0381166000526115b76020916002835260406000205460005260058352604060002060243560005283526115a5604060002060016040805161157b81611ab3565b6115ac84549460ff86161515835260ff8a84019660081c1615158652835196878096819301611c03565b0384611b1f565b0152511515916125f4565b906101b6604051928284938452830190611a8e565b3461017557602080600319360112610175576001600160a01b036115ee61198e565b16600052600281526116066002604060002001611ed4565b906040519181839283018184528251809152816040850193019160005b82811061163257505050500390f35b835185528695509381019392810192600101611623565b346101755761165736611a1c565b919081600052600460205261167a60018060a01b03604060002054163314611e66565b60005b83811061168657005b8061169d6116976001938786611eb2565b8561231d565b0161167d565b34610175576020366003190112610175576004356000526004602052602060018060a01b0360406000205416604051908152f35b34610175576040366003190112610175576001600160a01b036116f861198e565b1660005260036020526040600020602435600052602052602060ff604060002054166040519015158152f35b34610175576000366003190112610175576040517f00000000000000000000000000000000000000000000000000000000000000006001600160a01b03168152602090f35b346101755760203660031901126101755760043563ffffffff60e01b8116809103610175576020906338f4712160e01b81149081156117ae575b506040519015158152f35b6301ffc9a760e01b149050826117a3565b34610175576117cd366119d1565b630a57ebcf60e11b86526001600160a01b038086166004880181905294969495602095909492939186826024817f000000000000000000000000000000000000000000000000000000000000000085165afa9081156106f45761183a92600092610c685750163314611cd8565b60008781526004602052604090205461185d906001600160a01b03161515611d24565b8560005260038552604060002087600052855260ff6040600020541661194957906105726118e694939287600052600287526118a06040600020548a1415611d69565b61056a604051888101907ff3a784c6474ac7cfbdc3b984248c996647155d25e2f12746b3a7c3f213955b5682528560408201528b606082015260608152610bc481611ae9565b81600052600281526118ff836002604060002001611e29565b816000526003815260406000209083600052526040600020600160ff198254161790557f5140dfab464d70ce9e562700386509d78cbef35ca3ec862d06a5a62cfe0828bd600080a3005b60405162461bcd60e51b815260048101869052601860248201527f5365727669636520616c726561647920656e726f6c6c656400000000000000006044820152606490fd5b600435906001600160a01b038216820361017557565b9181601f84011215610175578235916001600160401b038311610175576020838186019501011161017557565b906080600319830112610175576004356001600160a01b038116810361017557916024359160443591606435906001600160401b03821161017557611a18916004016119a4565b9091565b604060031982011261017557600435916024356001600160401b039283821161017557806023830112156101755781600401359384116101755760248460051b83010111610175576024019190565b60005b838110611a7e5750506000910152565b8181015183820152602001611a6e565b90602091611aa781518092818552858086019101611a6b565b601f01601f1916010190565b606081019081106001600160401b038211176114ca57604052565b604081019081106001600160401b038211176114ca57604052565b608081019081106001600160401b038211176114ca57604052565b602081019081106001600160401b038211176114ca57604052565b90601f801991011681019081106001600160401b038211176114ca57604052565b6001600160401b0381116114ca57601f01601f191660200190565b908082519081815260208091019281808460051b8301019501936000915b848310611b895750505050505090565b9091929394958480611bb9600193601f198682030187528a51836040918051845201519181858201520190611a8e565b9801930193019194939290611b79565b90600182811c92168015611bf9575b6020831014611be357565b634e487b7160e01b600052602260045260246000fd5b91607f1691611bd8565b805460009392611c1282611bc9565b91828252602093600191600181169081600014611c7a5750600114611c39575b5050505050565b90939495506000929192528360002092846000945b838610611c6657505050500101903880808080611c32565b805485870183015294019385908201611c4e565b60ff19168685015250505090151560051b010191503880808080611c32565b9060406020611cb693805184520151918160208201520190611b5b565b90565b9081602091031261017557516001600160a01b03811681036101755790565b15611cdf57565b60405162461bcd60e51b815260206004820152601960248201527f43616c6c6572206d7573742062652063686970206f776e6572000000000000006044820152606490fd5b15611d2b57565b60405162461bcd60e51b815260206004820152601660248201527514d95c9d9a58d948191bd95cc81b9bdd08195e1a5cdd60521b6044820152606490fd5b15611d7057565b60405162461bcd60e51b815260206004820152602660248201527f5365727669636520616c726561647920736574206173207072696d617279207360448201526565727669636560d01b6064820152608490fd5b929192611dd082611b40565b91611dde6040519384611b1f565b829481845281830111610175578281602093846000960137010152565b8054821015611e135760005260206000200190600090565b634e487b7160e01b600052603260045260246000fd5b805490600160401b8210156114ca5781611e4b916001611e6294018155611dfb565b819391549060031b91821b91600019901b19161790565b9055565b15611e6d57565b60405162461bcd60e51b815260206004820152601c60248201527f43616c6c6572206d7573742062652073657276696365206f776e6572000000006044820152606490fd5b9190811015611e135760051b81013590605e1981360301821215610175570190565b90604051918281549182825260209260208301916000526020600020936000905b828210611f0d57505050611f0b92500383611b1f565b565b855484526001958601958895509381019390910190611ef5565b6001600160401b0381116114ca5760051b60200190565b903590601e198136030182121561017557018035906001600160401b0382116101755760200191813603831361017557565b3580151581036101755790565b15611f8457565b60405162461bcd60e51b815260206004820152602660248201527f5265636f7264207479706520646f6573206e6f7420657869737420666f72207360448201526565727669636560d01b6064820152608490fd5b818110611fe3575050565b60008155600101611fd8565b8051821015611e135760209160051b010190565b6040519061201082611ace565b6060602083600081520152565b919060009281845260209360048552600192604061203f600182852001611ed4565b9687519461204c86611f27565b9461205984519687611b1f565b868652601f1961206888611f27565b0183825b828110612124575050508599815b88811061208d5750505050505050505050565b806120998b9284611fef565b518885526005875287852081865287526120f66115a588858b808a206120ea8251916120c483611ab3565b80549560ff908188161515855284019660081c1615158652835196878096819301611c03565b015251151590886125f4565b88519161210283611ace565b825287820152612112828b611fef565b5261211d818a611fef565b500161207a565b61212c612003565b82828b01015201849061206c565b604290612145612b0c565b906040519161190160f01b8352600283015260228201522090565b93919361216d8382612c74565b6005819592951015612307571593846122f1575b50831561222a575b505050156121f15781018091116121db5743116121a257565b60405162461bcd60e51b815260206004820152601160248201527014da59db985d1d5c9948195e1c1a5c9959607a1b6044820152606490fd5b634e487b7160e01b600052601160045260246000fd5b60405162461bcd60e51b8152602060048201526011602482015270496e76616c6964207369676e617475726560781b6044820152606490fd5b9091925060405161226d8161225f6020820194630b135d3f60e11b968787526024840152604060448401526064830190611a8e565b03601f198101835282611b1f565b6000938492839251915afa913d156122e9573d9061228a82611b40565b916122986040519384611b1f565b82523d81602084013e5b836122db575b836122b9575b505050388080612189565b909192506020828051810103126122d8575060200151143880806122ae565b80fd5b9250602081511015926122a8565b6060906122a2565b6001600160a01b03848116911614935038612181565b634e487b7160e01b600052602160045260246000fd5b60008181526020906005825260409182822094803595868452825260ff84842054166125a1578181016123508183611f3e565b92908682019361235f85611f70565b90885161236b81611ab3565b6123c961238860019586948585528b850196151587523691611dc4565b828c019081528c8b5260058a528b8b208e8c528a528b8b2092518354955161ffff1990961660ff911515919091161794151560081b61ff0016949094178255565b0190518051906001600160401b03821161258d579082916123ec8d959454611bc9565b601f811161255f575b508890601f83116001146124b65794612475948b989461245d857fc70cc7355ddca0e6f68110cc6f29656168733ba67474f66a59b53d481040fb309f9c99966124809f9660609f9c9861247098926124ab575b50508160011b916000199060031b1c19161790565b90555b8d89526004885289892001611e29565b611f3e565b809781959293611f70565b92865198878a98895288015287870137848401860152151590830152601f01601f19168101030190a3565b015190503880612448565b838b52898b209190601f1984168c5b81811061253857509486857fc70cc7355ddca0e6f68110cc6f29656168733ba67474f66a59b53d481040fb309f9c9994956124809f9c989660609f9c98956124759b96612470991061251f575b505050811b019055612460565b015160001960f88460031b161c19169055388080612512565b93878496979899508d92939491839286015181550195019301908f979695949392916124c5565b61258790848c528a8c20601f850160051c8101918c86106114c057601f0160051c0190611fd8565b386123f5565b634e487b7160e01b89526041600452602489fd5b835162461bcd60e51b815260048101839052602660248201527f5265636f7264207479706520616c72656164792065786973747320666f72207360448201526565727669636560d01b6064820152608490fd5b6040519192916001600160a01b039091169061260f81611ab3565b602a8152602092838201926040368537825115611e135760308453825160019060011015611e1357607860218501536029905b8082116126da57505061269757156126915792611cb692916126859460405195836126768895518092888089019101611a6b565b84019151809386840190611a6b565b01038084520182611b1f565b50505090565b6064846040519062461bcd60e51b825280600483015260248201527f537472696e67733a20686578206c656e67746820696e73756666696369656e746044820152fd5b9091600f81166010811015612737578551841015612737576f181899199a1a9b1b9c1cb0b131b232b360811b901a85840188015360041c918015612722576000190190612642565b60246000634e487b7160e01b81526011600452fd5b60246000634e487b7160e01b81526032600452fd5b8051156127de5760005b815160001981019081116121db578110156127d7576127758183611fef565b51600190818301908184116121db578291925b612798575b505050600101612756565b909380959295518610156127ce576127b08682611fef565b5182146127c65791949193918201919081612788565b505092505090565b9382955061278d565b5050600090565b60405162461bcd60e51b815260206004820152600a6024820152694120697320656d70747960b01b6044820152606490fd5b604051809282549384835260208093016000938585526020852090855b88811061293657505050906128488161284d94930382611b1f565b612c36565b61288e5760405162461bcd60e51b8152602060048201526015602482015274313cba32b99999103737ba1034b71030b93930bc9760591b6044820152606490fd5b60001993808501908111612922578082036128e1575b505081549081156128cd57508201916128bd8383611dfb565b909182549160031b1b1916905555565b634e487b7160e01b81526031600452602490fd5b6128fc916128f26129199286611dfb565b9390549186611dfb565b91909360031b1c9083549060031b91821b91600019901b19161790565b905538806128a4565b634e487b7160e01b83526011600452602483fd5b82548452928101926001928301920161282d565b60ff81146129885760ff811690601f8211612976576040519161296c83611ace565b8252602082015290565b604051632cd44ac360e21b8152600490fd5b506040516000816000549161299c83611bc9565b80835292602090600190818116908115612a2757506001146129c7575b5050611cb692500382611b1f565b915092600080527f290decd9548b62a8d60345a988386fc84ba6bc95484008f6362f93160ef3e563936000925b828410612a0f5750611cb694505050810160200138806129b9565b855487850183015294850194869450928101926129f4565b91505060209250611cb694915060ff191682840152151560051b82010138806129b9565b60ff8114612a6d5760ff811690601f8211612976576040519161296c83611ace565b50604051600081600191600154612a8381611bc9565b8084529360209160018116908115612a275750600114612aab575050611cb692500382611b1f565b91509260016000527fb10e2d527612073b26eecdfd717e6a320cf44b4afac2b0732d9fcbe2b7fa0cf6936000925b828410612af45750611cb694505050810160200138806129b9565b85548785018301529485019486945092810192612ad9565b307f00000000000000000000000000000000000000000000000000000000000000006001600160a01b03161480612c0d575b15612b67577f000000000000000000000000000000000000000000000000000000000000000090565b60405160208101907f8b73c3c69bb8fe3d512ecc4cf759cc79239f7b179b0ffacaa9a75d522b39400f82527f000000000000000000000000000000000000000000000000000000000000000060408201527f000000000000000000000000000000000000000000000000000000000000000060608201524660808201523060a082015260a0815260c081018181106001600160401b038211176114ca5760405251902090565b507f00000000000000000000000000000000000000000000000000000000000000004614612b3e565b9081519160005b838110612c51575050505060001990600090565b82612c5c8284611fef565b5114612c6a57600101612c3d565b9250505090600190565b906041815114600014612c9e57611a18916020820151906060604084015193015160001a90612ca8565b5050600090600290565b9291907f7fffffffffffffffffffffffffffffff5d576e7357a4501ddfe92f46681b20a08311612d2b5791608094939160ff602094604051948552168484015260408301526060820152600093849182805260015afa15612d1e5781516001600160a01b03811615612d18579190565b50600190565b50604051903d90823e3d90fd5b5050505060009060039056fea2646970667358221220d6d5b40c082412778e93af64a5b0e6486e1576a0fb01f1b86ad741aa8388ad1164736f6c63430008180033"
}