{
  "address": "0xD9eF91DCeeA24f98eE0C8fd06319da6A6ECd7e15",
  "abi": [
    {
      "inputs": [
        {
          "internalType": "contract IChipRegistry",
          "name": "_chipRegistry",
          "type": "address"
        },
        {
          "internalType": "contract ITSMRegistrar",
          "name": "_tsmRegistrar",
          "type": "address"
        },
        {
          "internalType": "contract IERS",
          "name": "_ers",
          "type": "address"
        },
        {
          "internalType": "contract IManufacturerRegistry",
          "name": "_manufacturerRegistry",
          "type": "address"
        },
        {
          "internalType": "contract ITransferPolicy",
          "name": "_transferPolicy",
          "type": "address"
        },
        {
          "internalType": "uint256",
          "name": "_maxBlockWindow",
          "type": "uint256"
        }
      ],
      "stateMutability": "nonpayable",
      "type": "constructor"
    },
    {
      "anonymous": false,
      "inputs": [
        {
          "indexed": false,
          "internalType": "uint256",
          "name": "maxBlockWindow",
          "type": "uint256"
        }
      ],
      "name": "NewMaxBlockWindowSet",
      "type": "event"
    },
    {
      "anonymous": false,
      "inputs": [
        {
          "indexed": true,
          "internalType": "contract ITransferPolicy",
          "name": "transferPolicy",
          "type": "address"
        }
      ],
      "name": "NewTransferPolicySet",
      "type": "event"
    },
    {
      "anonymous": false,
      "inputs": [
        {
          "indexed": true,
          "internalType": "address",
          "name": "previousOwner",
          "type": "address"
        },
        {
          "indexed": true,
          "internalType": "address",
          "name": "newOwner",
          "type": "address"
        }
      ],
      "name": "OwnershipTransferred",
      "type": "event"
    },
    {
      "anonymous": false,
      "inputs": [
        {
          "indexed": true,
          "internalType": "address",
          "name": "projectRegistrar",
          "type": "address"
        },
        {
          "indexed": true,
          "internalType": "address",
          "name": "owner",
          "type": "address"
        }
      ],
      "name": "ProjectRegistrarDeployed",
      "type": "event"
    },
    {
      "inputs": [
        {
          "internalType": "address",
          "name": "_projectManager",
          "type": "address"
        },
        {
          "internalType": "string",
          "name": "_projectClaimDataUri",
          "type": "string"
        },
        {
          "internalType": "bytes32",
          "name": "_nameHash",
          "type": "bytes32"
        },
        {
          "internalType": "bytes32",
          "name": "_merkleRoot",
          "type": "bytes32"
        },
        {
          "internalType": "address",
          "name": "_projectPublicKey",
          "type": "address"
        },
        {
          "internalType": "address",
          "name": "_provingChip",
          "type": "address"
        },
        {
          "components": [
            {
              "internalType": "uint256",
              "name": "tsmIndex",
              "type": "uint256"
            },
            {
              "internalType": "bytes32",
              "name": "serviceId",
              "type": "bytes32"
            },
            {
              "internalType": "uint256",
              "name": "lockinPeriod",
              "type": "uint256"
            },
            {
              "internalType": "string",
              "name": "tokenUri",
              "type": "string"
            },
            {
              "internalType": "bytes32[]",
              "name": "tsmProof",
              "type": "bytes32[]"
            }
          ],
          "internalType": "struct IChipRegistry.TSMMerkleInfo",
          "name": "_tsmMerkleInfo",
          "type": "tuple"
        },
        {
          "components": [
            {
              "internalType": "bytes32",
              "name": "enrollmentId",
              "type": "bytes32"
            },
            {
              "internalType": "uint256",
              "name": "mIndex",
              "type": "uint256"
            },
            {
              "internalType": "bytes32[]",
              "name": "manufacturerProof",
              "type": "bytes32[]"
            }
          ],
          "internalType": "struct IChipRegistry.ManufacturerValidation",
          "name": "_manufacturerValidation",
          "type": "tuple"
        },
        {
          "internalType": "bytes",
          "name": "_chipOwnershipProof",
          "type": "bytes"
        },
        {
          "internalType": "bytes",
          "name": "_projectOwnershipProof",
          "type": "bytes"
        }
      ],
      "name": "addProject",
      "outputs": [],
      "stateMutability": "nonpayable",
      "type": "function"
    },
    {
      "inputs": [],
      "name": "chipRegistry",
      "outputs": [
        {
          "internalType": "contract IChipRegistry",
          "name": "",
          "type": "address"
        }
      ],
      "stateMutability": "view",
      "type": "function"
    },
    {
      "inputs": [],
      "name": "ers",
      "outputs": [
        {
          "internalType": "contract IERS",
          "name": "",
          "type": "address"
        }
      ],
      "stateMutability": "view",
      "type": "function"
    },
    {
      "inputs": [],
      "name": "manufacturerRegistry",
      "outputs": [
        {
          "internalType": "contract IManufacturerRegistry",
          "name": "",
          "type": "address"
        }
      ],
      "stateMutability": "view",
      "type": "function"
    },
    {
      "inputs": [],
      "name": "maxBlockWindow",
      "outputs": [
        {
          "internalType": "uint256",
          "name": "",
          "type": "uint256"
        }
      ],
      "stateMutability": "view",
      "type": "function"
    },
    {
      "inputs": [],
      "name": "owner",
      "outputs": [
        {
          "internalType": "address",
          "name": "",
          "type": "address"
        }
      ],
      "stateMutability": "view",
      "type": "function"
    },
    {
      "inputs": [],
      "name": "renounceOwnership",
      "outputs": [],
      "stateMutability": "nonpayable",
      "type": "function"
    },
    {
      "inputs": [
        {
          "internalType": "uint256",
          "name": "_maxBlockWindow",
          "type": "uint256"
        }
      ],
      "name": "setMaxBlockWindow",
      "outputs": [],
      "stateMutability": "nonpayable",
      "type": "function"
    },
    {
      "inputs": [
        {
          "internalType": "contract ITransferPolicy",
          "name": "_transferPolicy",
          "type": "address"
        }
      ],
      "name": "setTransferPolicy",
      "outputs": [],
      "stateMutability": "nonpayable",
      "type": "function"
    },
    {
      "inputs": [
        {
          "internalType": "address",
          "name": "newOwner",
          "type": "address"
        }
      ],
      "name": "transferOwnership",
      "outputs": [],
      "stateMutability": "nonpayable",
      "type": "function"
    },
    {
      "inputs": [],
      "name": "transferPolicy",
      "outputs": [
        {
          "internalType": "contract ITransferPolicy",
          "name": "",
          "type": "address"
        }
      ],
      "stateMutability": "view",
      "type": "function"
    },
    {
      "inputs": [],
      "name": "tsmRegistrar",
      "outputs": [
        {
          "internalType": "contract ITSMRegistrar",
          "name": "",
          "type": "address"
        }
      ],
      "stateMutability": "view",
      "type": "function"
    }
  ],
  "transactionHash": "0xb5d237d80e397fb292369ba286015d5ad0df0c04992906861f4a77c79883a0ac",
  "args": [
    "0x7C3b3756e01fF450e56bfCcde521A58522666323",
    "0xc098a32aa1425e86809a8e2D95A42d387C005Fd9",
    "0x4e1Ce5AbB20892405020b29de0c13AA20190C205",
    "0x590E78e95F3ceeF32eA9f079d517B5D741385e52",
    "0x0000000000000000000000000000000000000000",
    "5"
  ],
  "numDeployments": 2,
  "solcInputHash": "bb6fe39446f2961421663670160bba2b",
  "bytecode": "0x6101006040523480156200001257600080fd5b5060405162002980380380620029808339810160408190526200003591620000e3565b62000040336200007a565b600180546001600160a01b0319166001600160a01b0393841617905594811660805292831660a052821660e0521660c0526002556200016b565b600080546001600160a01b038381166001600160a01b0319831681178455604051919092169283917f8be0079c531659141344cd1fd0a4f28419497f9722a3daafe3b4186f6b6457e09190a35050565b6001600160a01b0381168114620000e057600080fd5b50565b60008060008060008060c08789031215620000fd57600080fd5b86516200010a81620000ca565b60208801519096506200011d81620000ca565b60408801519095506200013081620000ca565b60608801519094506200014381620000ca565b60808801519093506200015681620000ca565b8092505060a087015190509295509295509295565b60805160a05160c05160e0516127b9620001c76000396000818160ce015261062c0152600081816101b9015261073e0152600081816101f30152818161075f01526107fe015260008181610113015261071d01526127b96000f3fe60806040523480156200001157600080fd5b5060043610620000c35760003560e01c806370f2b25a116200007a57806370f2b25a1462000192578063715018a614620001a95780637ac9d73814620001b35780638da5cb5b14620001db578063beb9a06714620001ed578063f2fde38b146200021557600080fd5b80630fd6061214620000c857806311e6575b146200010d5780633f60d2c2146200013557806345cceb2a146200014e5780635218574c14620001655780635c101e66146200017e575b600080fd5b620000f07f000000000000000000000000000000000000000000000000000000000000000081565b6040516001600160a01b0390911681526020015b60405180910390f35b620000f07f000000000000000000000000000000000000000000000000000000000000000081565b6200014c6200014636600462000df7565b6200022c565b005b6200014c6200015f366004620010a5565b62000280565b6200016f60025481565b60405190815260200162000104565b600154620000f0906001600160a01b031681565b6200014c620001a3366004620011d4565b6200036a565b6200014c620003af565b620000f07f000000000000000000000000000000000000000000000000000000000000000081565b6000546001600160a01b0316620000f0565b620000f07f000000000000000000000000000000000000000000000000000000000000000081565b6200014c6200022636600462000df7565b620003c7565b6200023662000446565b600180546001600160a01b0319166001600160a01b0383169081179091556040517fd6a0936c2479c09d562d76c52bed0fecd4f4b7be05923d92d4f9bba510cfea6f90600090a250565b6001600160a01b038a16620002dc5760405162461bcd60e51b815260206004820152601f60248201527f496e76616c69642070726f6a656374206d616e6167657220616464726573730060448201526064015b60405180910390fd5b6001600160a01b0386166200033f5760405162461bcd60e51b815260206004820152602260248201527f496e76616c69642070726f6a656374207075626c6963206b6579206164647265604482015261737360f01b6064820152608401620002d3565b6200034e8583898787620004a2565b6200035e8a888a89858e62000717565b50505050505050505050565b6200037462000446565b60028190556040518181527f8c9c6f3dfbc1f462e63a252aef12c012b825f567a6d53bef96762faef878bc6a9060200160405180910390a150565b620003b962000446565b620003c56000620008b6565b565b620003d162000446565b6001600160a01b038116620004385760405162461bcd60e51b815260206004820152602660248201527f4f776e61626c653a206e6577206f776e657220697320746865207a65726f206160448201526564647265737360d01b6064820152608401620002d3565b6200044381620008b6565b50565b6000546001600160a01b03163314620003c55760405162461bcd60e51b815260206004820181905260248201527f4f776e61626c653a2063616c6c6572206973206e6f7420746865206f776e65726044820152606401620002d3565b6000620004ec4633604051602001620004d792919091825260601b6bffffffffffffffffffffffff1916602082015260340190565b60405160208183030381529060405262000906565b9050620005046001600160a01b038716828762000945565b620005525760405162461bcd60e51b815260206004820152601c60248201527f496e76616c69642063686970206f776e6572736869702070726f6f66000000006044820152606401620002d3565b60008360000151878460000151866040015187602001518860600151604051602001620005859695949392919062001214565b604051602081830303815290604052805190602001209050620005ae84608001518683620009af565b620006065760405162461bcd60e51b815260206004820152602160248201527f496e76616c69642063686970207472656520696e636c7573696f6e2070726f6f6044820152603360f91b6064820152608401620002d3565b82516020840151604080860151905163185b9eb960e11b81526000936001600160a01b037f000000000000000000000000000000000000000000000000000000000000000016936330b73d729362000664938e91906004016200126a565b602060405180830381865afa15801562000682573d6000803e3d6000fd5b505050506040513d601f19601f82011682018060405250810190620006a89190620012d0565b9050806200070d5760405162461bcd60e51b815260206004820152602b60248201527f43686970206e6f7420656e726f6c6c65642077697468204d616e75666163747560448201526a726572526567697374727960a81b6064820152608401620002d3565b5050505050505050565b600085877f00000000000000000000000000000000000000000000000000000000000000007f00000000000000000000000000000000000000000000000000000000000000007f00000000000000000000000000000000000000000000000000000000000000006002546040516200078f9062000dd3565b6001600160a01b039586168152938516602085015291841660408401529092166060820152608081019190915260a0018190604051809103906000f5905080158015620007e0573d6000803e3d6000fd5b5060015460405163ec4939d160e01b81529192506001600160a01b037f000000000000000000000000000000000000000000000000000000000000000081169263ec4939d19262000843928a9287928d928c929116908b908b9060040162001322565b600060405180830381600087803b1580156200085e57600080fd5b505af115801562000873573d6000803e3d6000fd5b50506040513392506001600160a01b03841691507f14a6db83c750b5f47f3b2f0813e6a985cf9365ef20ce51a9ea7de5684928475f90600090a350505050505050565b600080546001600160a01b038381166001600160a01b0319831681178455604051919092169283917f8be0079c531659141344cd1fd0a4f28419497f9722a3daafe3b4186f6b6457e09190a35050565b6000620009148251620009c7565b826040516020016200092892919062001387565b604051602081830303815290604052805190602001209050919050565b600080600062000956858562000a61565b90925090506000816004811115620009725762000972620013e6565b148015620009915750856001600160a01b0316826001600160a01b0316145b80620009a55750620009a586868662000aaa565b9695505050505050565b600082620009be858462000ba0565b14949350505050565b60606000620009d68362000bf6565b600101905060008167ffffffffffffffff811115620009f957620009f962000e29565b6040519080825280601f01601f19166020018201604052801562000a24576020820181803683370190505b5090508181016020015b600019016f181899199a1a9b1b9c1cb0b131b232b360811b600a86061a8153600a850494508462000a2e57509392505050565b600080825160410362000a9b5760208301516040840151606085015160001a62000a8e8782858562000cd6565b9450945050505062000aa3565b506000905060025b9250929050565b6000806000856001600160a01b0316631626ba7e60e01b868660405160240162000ad6929190620013fc565b60408051601f198184030181529181526020820180516001600160e01b03166001600160e01b031990941693909317909252905162000b1691906200141f565b600060405180830381855afa9150503d806000811462000b53576040519150601f19603f3d011682016040523d82523d6000602084013e62000b58565b606091505b509150915081801562000b6d57506020815110155b8015620009a557508051630b135d3f60e11b9062000b9590830160209081019084016200143d565b149695505050505050565b600081815b845181101562000bee5762000bd78286838151811062000bc95762000bc962001457565b602002602001015162000d9f565b91508062000be5816200146d565b91505062000ba5565b509392505050565b60008072184f03e93ff9f4daa797ed6e38ed64bf6a1f0160401b831062000c365772184f03e93ff9f4daa797ed6e38ed64bf6a1f0160401b830492506040015b6d04ee2d6d415b85acef8100000000831062000c63576d04ee2d6d415b85acef8100000000830492506020015b662386f26fc10000831062000c8257662386f26fc10000830492506010015b6305f5e100831062000c9b576305f5e100830492506008015b612710831062000cb057612710830492506004015b6064831062000cc3576064830492506002015b600a831062000cd0576001015b92915050565b6000807f7fffffffffffffffffffffffffffffff5d576e7357a4501ddfe92f46681b20a083111562000d0f575060009050600362000d96565b6040805160008082526020820180845289905260ff881692820192909252606081018690526080810185905260019060a0016020604051602081039080840390855afa15801562000d64573d6000803e3d6000fd5b5050604051601f1901519150506001600160a01b03811662000d8f5760006001925092505062000d96565b9150600090505b94509492505050565b600081831062000dbd57600082815260208490526040902062000dcc565b60008381526020839052604090205b9392505050565b6112ee806200149683390190565b6001600160a01b03811681146200044357600080fd5b60006020828403121562000e0a57600080fd5b813562000dcc8162000de1565b803562000e248162000de1565b919050565b634e487b7160e01b600052604160045260246000fd5b604051601f8201601f1916810167ffffffffffffffff8111828210171562000e6b5762000e6b62000e29565b604052919050565b600082601f83011262000e8557600080fd5b813567ffffffffffffffff81111562000ea25762000ea262000e29565b62000eb7601f8201601f191660200162000e3f565b81815284602083860101111562000ecd57600080fd5b816020850160208301376000918101602001919091529392505050565b600082601f83011262000efc57600080fd5b8135602067ffffffffffffffff82111562000f1b5762000f1b62000e29565b8160051b62000f2c82820162000e3f565b928352848101820192828101908785111562000f4757600080fd5b83870192505b8483101562000f685782358252918301919083019062000f4d565b979650505050505050565b600060a0828403121562000f8657600080fd5b60405160a0810167ffffffffffffffff828210818311171562000fad5762000fad62000e29565b81604052829350843583526020850135602084015260408501356040840152606085013591508082111562000fe157600080fd5b62000fef8683870162000e73565b606084015260808501359150808211156200100957600080fd5b50620010188582860162000eea565b6080830152505092915050565b6000606082840312156200103857600080fd5b6040516060810167ffffffffffffffff82821081831117156200105f576200105f62000e29565b81604052829350843583526020850135602084015260408501359150808211156200108957600080fd5b50620010988582860162000eea565b6040830152505092915050565b6000806000806000806000806000806101408b8d031215620010c657600080fd5b620010d18b62000e17565b995060208b013567ffffffffffffffff80821115620010ef57600080fd5b620010fd8e838f0162000e73565b9a5060408d0135995060608d013598506200111b60808e0162000e17565b97506200112b60a08e0162000e17565b965060c08d01359150808211156200114257600080fd5b620011508e838f0162000f73565b955060e08d01359150808211156200116757600080fd5b620011758e838f0162001025565b94506101008d01359150808211156200118d57600080fd5b6200119b8e838f0162000e73565b93506101208d0135915080821115620011b357600080fd5b50620011c28d828e0162000e73565b9150509295989b9194979a5092959850565b600060208284031215620011e757600080fd5b5035919050565b60005b838110156200120b578181015183820152602001620011f1565b50506000910152565b8681526bffffffffffffffffffffffff198660601b1660208201528460348201528360548201528260748201526000825162001258816094850160208701620011ee565b91909101609401979650505050505050565b84815260208082018590526001600160a01b038416604083015260806060830181905283519083018190526000918481019160a0850190845b81811015620012c157845183529383019391830191600101620012a3565b50909998505050505050505050565b600060208284031215620012e357600080fd5b8151801515811462000dcc57600080fd5b600081518084526200130e816020860160208601620011ee565b601f01601f19169290920160200192915050565b8781526001600160a01b0387811660208301526040820187905285811660608301528416608082015260e060a082018190526000906200136590830185620012f4565b82810360c0840152620013798185620012f4565b9a9950505050505050505050565b7f19457468657265756d205369676e6564204d6573736167653a0a000000000000815260008351620013c181601a850160208801620011ee565b835190830190620013da81601a840160208801620011ee565b01601a01949350505050565b634e487b7160e01b600052602160045260246000fd5b828152604060208201526000620014176040830184620012f4565b949350505050565b6000825162001433818460208701620011ee565b9190910192915050565b6000602082840312156200145057600080fd5b5051919050565b634e487b7160e01b600052603260045260246000fd5b6000600182016200148e57634e487b7160e01b600052601160045260246000fd5b506001019056fe6101006040523480156200001257600080fd5b50604051620012ee380380620012ee8339810160408190526200003591620000d8565b62000040336200006f565b6200004b856200006f565b6001600160a01b0393841660805291831660a05290911660c05260e052506200014c565b600080546001600160a01b038381166001600160a01b0319831681178455604051919092169283917f8be0079c531659141344cd1fd0a4f28419497f9722a3daafe3b4186f6b6457e09190a35050565b6001600160a01b0381168114620000d557600080fd5b50565b600080600080600060a08688031215620000f157600080fd5b8551620000fe81620000bf565b60208701519095506200011181620000bf565b60408701519094506200012481620000bf565b60608701519093506200013781620000bf565b80925050608086015190509295509295909350565b60805160a05160c05160e05161114d620001a1600039600081816101010152610273015260008181610176015261041701526000818161013e01526102d501526000818160a80152610370015261114d6000f3fe608060405234801561001057600080fd5b506004361061009e5760003560e01c80638da5cb5b116100665780638da5cb5b14610160578063beb9a06714610171578063d20ab1d714610198578063f2fde38b146101ab578063faff50a8146101be57600080fd5b806311e6575b146100a35780633d5c45b5146100e75780635218574c146100fc578063715018a6146101315780637ac9d73814610139575b600080fd5b6100ca7f000000000000000000000000000000000000000000000000000000000000000081565b6040516001600160a01b0390911681526020015b60405180910390f35b6100fa6100f5366004610d7a565b6101c7565b005b6101237f000000000000000000000000000000000000000000000000000000000000000081565b6040519081526020016100de565b6100fa610401565b6100ca7f000000000000000000000000000000000000000000000000000000000000000081565b6000546001600160a01b03166100ca565b6100ca7f000000000000000000000000000000000000000000000000000000000000000081565b6100fa6101a6366004610e70565b610415565b6100fa6101b9366004610e89565b610501565b61012360015481565b6001600160a01b038816330361021d5760405162461bcd60e51b815260206004820152601660248201527521b434b81031b0b73737ba1037bbb71034ba39b2b63360511b60448201526064015b60405180910390fd5b6040805146602082015280820186905260608082018a9052339081901b6bffffffffffffffffffffffff19166080830152825160748184030181526094909201909252610299906001600160a01b038b169087907f0000000000000000000000000000000000000000000000000000000000000000908861057a565b600154604051630329904360e61b81526004810191909152602481018990526001600160a01b0382811660448301528a811660648301526000917f00000000000000000000000000000000000000000000000000000000000000009091169063ca6410c0906084016020604051808303816000875af1158015610320573d6000803e3d6000fd5b505050506040513d601f19601f820116820180604052508101906103449190610ea4565b905060006040518060600160405280846001600160a01b031681526020018381526020018a81525090507f00000000000000000000000000000000000000000000000000000000000000006001600160a01b0316631d0c1dfe8c838b89896040518663ffffffff1660e01b81526004016103c2959493929190610f79565b600060405180830381600087803b1580156103dc57600080fd5b505af11580156103f0573d6000803e3d6000fd5b505050505050505050505050505050565b61040961062b565b6104136000610685565b565b7f00000000000000000000000000000000000000000000000000000000000000006001600160a01b031633146104c65760405162461bcd60e51b815260206004820152604a60248201527f6f6e6c7954534d5265676973747261723a204f6e6c792074686520636f6e747260448201527f61637427732054534d205265676973747261722063616e2063616c6c207468696064820152693990333ab731ba34b7b760b11b608482015260a401610214565b60018190556040518181527f502693e2258520f4d18d6fa7678fbf02628ce8c5ea57d1901bccd512290e9a6e9060200160405180910390a150565b61050961062b565b6001600160a01b03811661056e5760405162461bcd60e51b815260206004820152602660248201527f4f776e61626c653a206e6577206f776e657220697320746865207a65726f206160448201526564647265737360d01b6064820152608401610214565b61057781610685565b50565b610597610586836106d5565b6001600160a01b0387169083610710565b6105d75760405162461bcd60e51b8152602060048201526011602482015270496e76616c6964207369676e617475726560781b6044820152606401610214565b6105e18385611050565b4311156106245760405162461bcd60e51b815260206004820152601160248201527014da59db985d1d5c9948195e1c1a5c9959607a1b6044820152606401610214565b5050505050565b6000546001600160a01b031633146104135760405162461bcd60e51b815260206004820181905260248201527f4f776e61626c653a2063616c6c6572206973206e6f7420746865206f776e65726044820152606401610214565b600080546001600160a01b038381166001600160a01b0319831681178455604051919092169283917f8be0079c531659141344cd1fd0a4f28419497f9722a3daafe3b4186f6b6457e09190a35050565b60006106e18251610771565b826040516020016106f3929190611071565b604051602081830303815290604052805190602001209050919050565b600080600061071f8585610804565b90925090506000816004811115610738576107386110cc565b1480156107565750856001600160a01b0316826001600160a01b0316145b806107675750610767868686610849565b9695505050505050565b6060600061077e83610935565b600101905060008167ffffffffffffffff81111561079e5761079e610aee565b6040519080825280601f01601f1916602001820160405280156107c8576020820181803683370190505b5090508181016020015b600019016f181899199a1a9b1b9c1cb0b131b232b360811b600a86061a8153600a85049450846107d257509392505050565b600080825160410361083a5760208301516040840151606085015160001a61082e87828585610a0e565b94509450505050610842565b506000905060025b9250929050565b6000806000856001600160a01b0316631626ba7e60e01b86866040516024016108739291906110e2565b60408051601f198184030181529181526020820180516001600160e01b03166001600160e01b03199094169390931790925290516108b191906110fb565b600060405180830381855afa9150503d80600081146108ec576040519150601f19603f3d011682016040523d82523d6000602084013e6108f1565b606091505b509150915081801561090557506020815110155b801561076757508051630b135d3f60e11b9061092a9083016020908101908401610ea4565b149695505050505050565b60008072184f03e93ff9f4daa797ed6e38ed64bf6a1f0160401b83106109745772184f03e93ff9f4daa797ed6e38ed64bf6a1f0160401b830492506040015b6d04ee2d6d415b85acef810000000083106109a0576d04ee2d6d415b85acef8100000000830492506020015b662386f26fc1000083106109be57662386f26fc10000830492506010015b6305f5e10083106109d6576305f5e100830492506008015b61271083106109ea57612710830492506004015b606483106109fc576064830492506002015b600a8310610a08576001015b92915050565b6000807f7fffffffffffffffffffffffffffffff5d576e7357a4501ddfe92f46681b20a0831115610a455750600090506003610ac9565b6040805160008082526020820180845289905260ff881692820192909252606081018690526080810185905260019060a0016020604051602081039080840390855afa158015610a99573d6000803e3d6000fd5b5050604051601f1901519150506001600160a01b038116610ac257600060019250925050610ac9565b9150600090505b94509492505050565b80356001600160a01b0381168114610ae957600080fd5b919050565b634e487b7160e01b600052604160045260246000fd5b60405160a0810167ffffffffffffffff81118282101715610b2757610b27610aee565b60405290565b604051601f8201601f1916810167ffffffffffffffff81118282101715610b5657610b56610aee565b604052919050565b600067ffffffffffffffff831115610b7857610b78610aee565b610b8b601f8401601f1916602001610b2d565b9050828152838383011115610b9f57600080fd5b828260208301376000602084830101529392505050565b600082601f830112610bc757600080fd5b8135602067ffffffffffffffff821115610be357610be3610aee565b8160051b610bf2828201610b2d565b9283528481018201928281019087851115610c0c57600080fd5b83870192505b84831015610c2b57823582529183019190830190610c12565b979650505050505050565b600060a08284031215610c4857600080fd5b610c50610b04565b9050813581526020820135602082015260408201356040820152606082013567ffffffffffffffff80821115610c8557600080fd5b818401915084601f830112610c9957600080fd5b610ca885833560208501610b5e565b60608401526080840135915080821115610cc157600080fd5b50610cce84828501610bb6565b60808301525092915050565b600060608284031215610cec57600080fd5b6040516060810167ffffffffffffffff8282108183111715610d1057610d10610aee565b8160405282935084358352602085013560208401526040850135915080821115610d3957600080fd5b50610d4685828601610bb6565b6040830152505092915050565b600082601f830112610d6457600080fd5b610d7383833560208501610b5e565b9392505050565b600080600080600080600080610100898b031215610d9757600080fd5b610da089610ad2565b975060208901359650604089013567ffffffffffffffff80821115610dc457600080fd5b610dd08c838d01610c36565b975060608b0135915080821115610de657600080fd5b610df28c838d01610cda565b965060808b0135955060a08b0135915080821115610e0f57600080fd5b610e1b8c838d01610d53565b945060c08b0135915080821115610e3157600080fd5b610e3d8c838d01610d53565b935060e08b0135915080821115610e5357600080fd5b50610e608b828c01610d53565b9150509295985092959890939650565b600060208284031215610e8257600080fd5b5035919050565b600060208284031215610e9b57600080fd5b610d7382610ad2565b600060208284031215610eb657600080fd5b5051919050565b60005b83811015610ed8578181015183820152602001610ec0565b50506000910152565b60008151808452610ef9816020860160208601610ebd565b601f01601f19169290920160200192915050565b600081518084526020808501945080840160005b83811015610f3d57815187529582019590820190600101610f21565b509495945050505050565b80518252602081015160208301526000604082015160606040850152610f716060850182610f0d565b949350505050565b600060018060a01b03808816835260a060208401528087511660a084015250602086015160c08301526040860151606060e0840152805161010084015260208101516101208401526040810151610140840152606081015160a0610160850152610fe76101a0850182610ee1565b90506080820151915060ff19848203016101808501526110078183610f0d565b915050828103604084015261101c8187610f48565b905082810360608401526110308186610ee1565b905082810360808401526110448185610ee1565b98975050505050505050565b80820180821115610a0857634e487b7160e01b600052601160045260246000fd5b7f19457468657265756d205369676e6564204d6573736167653a0a0000000000008152600083516110a981601a850160208801610ebd565b8351908301906110c081601a840160208801610ebd565b01601a01949350505050565b634e487b7160e01b600052602160045260246000fd5b828152604060208201526000610f716040830184610ee1565b6000825161110d818460208701610ebd565b919091019291505056fea264697066735822122053105d076a90f6dfd526b83ec053fc8d007019fffbb267129034eb2679700c4564736f6c63430008110033a26469706673582212208c064e50be1273ae6834a2d7c6a4390f22f6e849c4ea959d7539a08a0f98a91164736f6c63430008110033"
}