{
  "address": "0x590E78e95F3ceeF32eA9f079d517B5D741385e52",
  "abi": [
    {
      "inputs": [
        {
          "internalType": "address",
          "name": "_governance",
          "type": "address"
        }
      ],
      "stateMutability": "nonpayable",
      "type": "constructor"
    },
    {
      "anonymous": false,
      "inputs": [
        {
          "indexed": true,
          "internalType": "bytes32",
          "name": "manufacturerId",
          "type": "bytes32"
        },
        {
          "indexed": true,
          "internalType": "bytes32",
          "name": "enrollmentId",
          "type": "bytes32"
        },
        {
          "indexed": false,
          "internalType": "bytes32",
          "name": "merkleRoot",
          "type": "bytes32"
        },
        {
          "indexed": false,
          "internalType": "address",
          "name": "manufacturerCertSigner",
          "type": "address"
        },
        {
          "indexed": false,
          "internalType": "address",
          "name": "authModel",
          "type": "address"
        },
        {
          "indexed": false,
          "internalType": "string",
          "name": "chipValidationDataUri",
          "type": "string"
        },
        {
          "indexed": false,
          "internalType": "string",
          "name": "bootloaderApp",
          "type": "string"
        },
        {
          "indexed": false,
          "internalType": "string",
          "name": "chipModel",
          "type": "string"
        }
      ],
      "name": "EnrollmentAdded",
      "type": "event"
    },
    {
      "anonymous": false,
      "inputs": [
        {
          "indexed": true,
          "internalType": "bytes32",
          "name": "manufacturerId",
          "type": "bytes32"
        },
        {
          "indexed": false,
          "internalType": "address",
          "name": "owner",
          "type": "address"
        }
      ],
      "name": "ManufacturerAdded",
      "type": "event"
    },
    {
      "anonymous": false,
      "inputs": [
        {
          "indexed": true,
          "internalType": "bytes32",
          "name": "manufacturerId",
          "type": "bytes32"
        },
        {
          "indexed": false,
          "internalType": "address",
          "name": "newOwner",
          "type": "address"
        }
      ],
      "name": "ManufacturerOwnerUpdated",
      "type": "event"
    },
    {
      "anonymous": false,
      "inputs": [
        {
          "indexed": true,
          "internalType": "bytes32",
          "name": "manufacturerId",
          "type": "bytes32"
        }
      ],
      "name": "ManufacturerRemoved",
      "type": "event"
    },
    {
      "anonymous": false,
      "inputs": [
        {
          "indexed": true,
          "internalType": "address",
          "name": "previousOwner",
          "type": "address"
        },
        {
          "indexed": true,
          "internalType": "address",
          "name": "newOwner",
          "type": "address"
        }
      ],
      "name": "OwnershipTransferred",
      "type": "event"
    },
    {
      "inputs": [
        {
          "internalType": "bytes32",
          "name": "_manufacturerId",
          "type": "bytes32"
        },
        {
          "internalType": "bytes32",
          "name": "_merkleRoot",
          "type": "bytes32"
        },
        {
          "internalType": "address",
          "name": "_certSigner",
          "type": "address"
        },
        {
          "internalType": "address",
          "name": "_authModel",
          "type": "address"
        },
        {
          "internalType": "string",
          "name": "_chipValidationDataUri",
          "type": "string"
        },
        {
          "internalType": "string",
          "name": "_bootloaderApp",
          "type": "string"
        },
        {
          "internalType": "string",
          "name": "_chipModel",
          "type": "string"
        }
      ],
      "name": "addChipEnrollment",
      "outputs": [
        {
          "internalType": "bytes32",
          "name": "enrollmentId",
          "type": "bytes32"
        }
      ],
      "stateMutability": "nonpayable",
      "type": "function"
    },
    {
      "inputs": [
        {
          "internalType": "bytes32",
          "name": "_manufacturerId",
          "type": "bytes32"
        },
        {
          "internalType": "address",
          "name": "_owner",
          "type": "address"
        }
      ],
      "name": "addManufacturer",
      "outputs": [],
      "stateMutability": "nonpayable",
      "type": "function"
    },
    {
      "inputs": [
        {
          "internalType": "bytes32",
          "name": "_enrollmentId",
          "type": "bytes32"
        }
      ],
      "name": "getEnrollmentBootloaderApp",
      "outputs": [
        {
          "internalType": "string",
          "name": "",
          "type": "string"
        }
      ],
      "stateMutability": "view",
      "type": "function"
    },
    {
      "inputs": [
        {
          "internalType": "bytes32",
          "name": "_enrollmentId",
          "type": "bytes32"
        }
      ],
      "name": "getEnrollmentInfo",
      "outputs": [
        {
          "components": [
            {
              "internalType": "uint256",
              "name": "manufacturerId",
              "type": "uint256"
            },
            {
              "internalType": "bytes32",
              "name": "merkleRoot",
              "type": "bytes32"
            },
            {
              "internalType": "address",
              "name": "manufacturerCertSigner",
              "type": "address"
            },
            {
              "internalType": "address",
              "name": "authModel",
              "type": "address"
            },
            {
              "internalType": "string",
              "name": "chipValidationDataUri",
              "type": "string"
            },
            {
              "internalType": "string",
              "name": "bootloaderApp",
              "type": "string"
            },
            {
              "internalType": "string",
              "name": "chipModel",
              "type": "string"
            }
          ],
          "internalType": "struct ManufacturerRegistry.EnrollmentInfo",
          "name": "",
          "type": "tuple"
        }
      ],
      "stateMutability": "view",
      "type": "function"
    },
    {
      "inputs": [
        {
          "internalType": "bytes32",
          "name": "_manufacturerId",
          "type": "bytes32"
        }
      ],
      "name": "getManufacturerInfo",
      "outputs": [
        {
          "components": [
            {
              "internalType": "address",
              "name": "owner",
              "type": "address"
            },
            {
              "internalType": "bool",
              "name": "registered",
              "type": "bool"
            },
            {
              "internalType": "bytes32[]",
              "name": "enrollments",
              "type": "bytes32[]"
            },
            {
              "internalType": "uint256",
              "name": "nonce",
              "type": "uint256"
            }
          ],
          "internalType": "struct ManufacturerRegistry.ManufacturerInfo",
          "name": "",
          "type": "tuple"
        }
      ],
      "stateMutability": "view",
      "type": "function"
    },
    {
      "inputs": [
        {
          "internalType": "bytes32",
          "name": "_enrollmentId",
          "type": "bytes32"
        },
        {
          "internalType": "uint256",
          "name": "_index",
          "type": "uint256"
        },
        {
          "internalType": "address",
          "name": "_chipId",
          "type": "address"
        },
        {
          "internalType": "bytes32[]",
          "name": "_merkleProof",
          "type": "bytes32[]"
        }
      ],
      "name": "isEnrolledChip",
      "outputs": [
        {
          "internalType": "bool",
          "name": "",
          "type": "bool"
        }
      ],
      "stateMutability": "view",
      "type": "function"
    },
    {
      "inputs": [],
      "name": "owner",
      "outputs": [
        {
          "internalType": "address",
          "name": "",
          "type": "address"
        }
      ],
      "stateMutability": "view",
      "type": "function"
    },
    {
      "inputs": [
        {
          "internalType": "bytes32",
          "name": "_manufacturerId",
          "type": "bytes32"
        }
      ],
      "name": "removeManufacturer",
      "outputs": [],
      "stateMutability": "nonpayable",
      "type": "function"
    },
    {
      "inputs": [],
      "name": "renounceOwnership",
      "outputs": [],
      "stateMutability": "nonpayable",
      "type": "function"
    },
    {
      "inputs": [
        {
          "internalType": "address",
          "name": "newOwner",
          "type": "address"
        }
      ],
      "name": "transferOwnership",
      "outputs": [],
      "stateMutability": "nonpayable",
      "type": "function"
    },
    {
      "inputs": [
        {
          "internalType": "bytes32",
          "name": "_manufacturerId",
          "type": "bytes32"
        },
        {
          "internalType": "address",
          "name": "_newOwner",
          "type": "address"
        }
      ],
      "name": "updateManufacturerOwner",
      "outputs": [],
      "stateMutability": "nonpayable",
      "type": "function"
    }
  ],
  "transactionHash": "0xf9d69345ecf0841444a71ba0936035585d92a6513ad17dfd3040321f2974fd2d",
  "args": [
    "0xa969B2687c5486491893a78dAfDE1A1617C2691a"
  ],
  "numDeployments": 2,
  "solcInputHash": "bb6fe39446f2961421663670160bba2b",
  "bytecode": "0x60806040523480156200001157600080fd5b506040516200159f3803806200159f833981016040819052620000349162000182565b6200003f3362000051565b6200004a81620000a1565b50620001b4565b600080546001600160a01b038381166001600160a01b0319831681178455604051919092169283917f8be0079c531659141344cd1fd0a4f28419497f9722a3daafe3b4186f6b6457e09190a35050565b620000ab62000124565b6001600160a01b038116620001165760405162461bcd60e51b815260206004820152602660248201527f4f776e61626c653a206e6577206f776e657220697320746865207a65726f206160448201526564647265737360d01b60648201526084015b60405180910390fd5b620001218162000051565b50565b6000546001600160a01b03163314620001805760405162461bcd60e51b815260206004820181905260248201527f4f776e61626c653a2063616c6c6572206973206e6f7420746865206f776e657260448201526064016200010d565b565b6000602082840312156200019557600080fd5b81516001600160a01b0381168114620001ad57600080fd5b9392505050565b6113db80620001c46000396000f3fe608060405234801561001057600080fd5b50600436106100a95760003560e01c80638da5cb5b116100715780638da5cb5b14610127578063b411453e14610142578063cb24968b14610162578063dd5818bf14610182578063f2fde38b146101a2578063f78fd99c146101b557600080fd5b8063141a81ec146100ae57806330b73d72146100c357806331eea999146100eb578063715018a61461010c5780637a68595714610114575b600080fd5b6100c16100bc366004610dae565b6101c8565b005b6100d66100d1366004610dda565b6102bc565b60405190151581526020015b60405180910390f35b6100fe6100f9366004610eba565b610362565b6040519081526020016100e2565b6100c161069f565b6100c1610122366004610f8b565b6106b3565b6000546040516001600160a01b0390911681526020016100e2565b610155610150366004610f8b565b610765565b6040516100e29190610fea565b610175610170366004610f8b565b61077a565b6040516100e29190610ffd565b610195610190366004610f8b565b61084d565b6040516100e2919061107a565b6100c16101b0366004611112565b610ab4565b6100c16101c3366004610dae565b610b2d565b60008281526002602052604090205482906001600160a01b031633146102095760405162461bcd60e51b81526004016102009061112d565b60405180910390fd5b6001600160a01b0382166102575760405162461bcd60e51b8152602060048201526015602482015274496e76616c6964206f776e6572206164647265737360581b6044820152606401610200565b60008381526002602090815260409182902080546001600160a01b0319166001600160a01b038616908117909155915191825284917face09bbc6d41ebb5ce374e9ad13c0b1661a8acdd0684d10c05fc6ad536f676b7910160405180910390a2505050565b600085815260016020818152604080842090920154915183916102fe91899189910191825260601b6bffffffffffffffffffffffff1916602082015260340190565b604051602081830303815290604052805190602001209050610356858580806020026020016040519081016040528093929190818152602001838360200280828437600092019190915250869250859150610c539050565b98975050505050505050565b60008a8152600260205260408120548b906001600160a01b0316331461039a5760405162461bcd60e51b81526004016102009061112d565b6001600160a01b038a166103fb5760405162461bcd60e51b815260206004820152602260248201527f496e76616c6964206365727469666963617465207369676e6572206164647265604482015261737360f01b6064820152608401610200565b6001600160a01b0389166104515760405162461bcd60e51b815260206004820152601a60248201527f496e76616c69642061757468206d6f64656c20616464726573730000000000006044820152606401610200565b8b600260008e815260200190815260200160002060020154604051602001610483929190918252602082015260400190565b60408051601f19818403018152828252805160209182012060e0840183528f84528382018f90526001600160a01b03808f16858501528d1660608501528251601f8c018390048302810183019093528a835294506080830191908b908b9081908401838280828437600092019190915250505090825250604080516020601f8a0181900481028201810190925288815291810191908990899081908401838280828437600092019190915250505090825250604080516020601f880181900481028201810190925286815291810191908790879081908401838280828437600092018290525093909452505084815260016020818152604092839020855181559085015191810191909155908301516002820180546001600160a01b039283166001600160a01b0319918216179091556060850151600384018054919093169116179055608083015190915060048201906105de9082611214565b5060a082015160058201906105f39082611214565b5060c082015160068201906106089082611214565b50505060008c8152600260208181526040832060018082018054918201815585529184209091018590558e835201805491610642836112d4565b9190505550818c7f1c498db0fc50a7fdde1f52c8a36cbe3da147d2264ca265b8320e5716617afc578d8d8d8d8d8d8d8d8d60405161068899989796959493929190611324565b60405180910390a3509a9950505050505050505050565b6106a7610c69565b6106b16000610cc3565b565b6106bb610c69565b6000818152600260205260409020546001600160a01b031661071f5760405162461bcd60e51b815260206004820152601b60248201527f4d616e756661637475726572206e6f74207265676973746572656400000000006044820152606401610200565b60008181526002602052604080822080546001600160a01b03191690555182917f48910a214ac1a6bbe2b7ffbb88675f986ca3b00c69cdcfead531903bdb67240391a250565b60606107708261084d565b60a0015192915050565b6107b0604051806080016040528060006001600160a01b0316815260200160001515815260200160608152602001600081525090565b600082815260026020908152604091829020825160808101845281546001600160a01b0381168252600160a01b900460ff161515818401526001820180548551818602810186018752818152929593949386019383018282801561083357602002820191906000526020600020905b81548152602001906001019080831161081f575b505050505081526020016002820154815250509050919050565b6108a26040518060e00160405280600081526020016000801916815260200160006001600160a01b0316815260200160006001600160a01b031681526020016060815260200160608152602001606081525090565b600082815260016020818152604092839020835160e08101855281548152928101549183019190915260028101546001600160a01b0390811693830193909352600381015490921660608201526004820180549192916080840191906109079061118b565b80601f01602080910402602001604051908101604052809291908181526020018280546109339061118b565b80156109805780601f1061095557610100808354040283529160200191610980565b820191906000526020600020905b81548152906001019060200180831161096357829003601f168201915b505050505081526020016005820180546109999061118b565b80601f01602080910402602001604051908101604052809291908181526020018280546109c59061118b565b8015610a125780601f106109e757610100808354040283529160200191610a12565b820191906000526020600020905b8154815290600101906020018083116109f557829003601f168201915b50505050508152602001600682018054610a2b9061118b565b80601f0160208091040260200160405190810160405280929190818152602001828054610a579061118b565b8015610aa45780601f10610a7957610100808354040283529160200191610aa4565b820191906000526020600020905b815481529060010190602001808311610a8757829003601f168201915b5050505050815250509050919050565b610abc610c69565b6001600160a01b038116610b215760405162461bcd60e51b815260206004820152602660248201527f4f776e61626c653a206e6577206f776e657220697320746865207a65726f206160448201526564647265737360d01b6064820152608401610200565b610b2a81610cc3565b50565b610b35610c69565b600082815260026020526040902054600160a01b900460ff1615610b9b5760405162461bcd60e51b815260206004820152601f60248201527f4d616e75666163747572657220616c72656164792072656769737465726564006044820152606401610200565b6001600160a01b038116610be95760405162461bcd60e51b8152602060048201526015602482015274496e76616c6964206f776e6572206164647265737360581b6044820152606401610200565b60008281526002602090815260409182902080546001600160a81b0319166001600160a01b038516908117600160a01b17909155915191825283917f56064d5f340b863b4eb087df53070487478538930bc4b7c4cc46e04f7d42fb4b910160405180910390a25050565b600082610c608584610d13565b14949350505050565b6000546001600160a01b031633146106b15760405162461bcd60e51b815260206004820181905260248201527f4f776e61626c653a2063616c6c6572206973206e6f7420746865206f776e65726044820152606401610200565b600080546001600160a01b038381166001600160a01b0319831681178455604051919092169283917f8be0079c531659141344cd1fd0a4f28419497f9722a3daafe3b4186f6b6457e09190a35050565b600081815b8451811015610d5857610d4482868381518110610d3757610d3761138f565b6020026020010151610d60565b915080610d50816112d4565b915050610d18565b509392505050565b6000818310610d7c576000828152602084905260409020610d8b565b60008381526020839052604090205b9392505050565b80356001600160a01b0381168114610da957600080fd5b919050565b60008060408385031215610dc157600080fd5b82359150610dd160208401610d92565b90509250929050565b600080600080600060808688031215610df257600080fd5b8535945060208601359350610e0960408701610d92565b9250606086013567ffffffffffffffff80821115610e2657600080fd5b818801915088601f830112610e3a57600080fd5b813581811115610e4957600080fd5b8960208260051b8501011115610e5e57600080fd5b9699959850939650602001949392505050565b60008083601f840112610e8357600080fd5b50813567ffffffffffffffff811115610e9b57600080fd5b602083019150836020828501011115610eb357600080fd5b9250929050565b60008060008060008060008060008060e08b8d031215610ed957600080fd5b8a35995060208b01359850610ef060408c01610d92565b9750610efe60608c01610d92565b965060808b013567ffffffffffffffff80821115610f1b57600080fd5b610f278e838f01610e71565b909850965060a08d0135915080821115610f4057600080fd5b610f4c8e838f01610e71565b909650945060c08d0135915080821115610f6557600080fd5b50610f728d828e01610e71565b915080935050809150509295989b9194979a5092959850565b600060208284031215610f9d57600080fd5b5035919050565b6000815180845260005b81811015610fca57602081850181015186830182015201610fae565b506000602082860101526020601f19601f83011685010191505092915050565b602081526000610d8b6020830184610fa4565b602080825282516001600160a01b03168282015282810151151560408084019190915283015160806060840152805160a0840181905260009291820190839060c08601905b808310156110625783518252928401926001929092019190840190611042565b50606087015160808701528094505050505092915050565b6020815281516020820152602082015160408201526000604083015160018060a01b0380821660608501528060608601511660808501525050608083015160e060a08401526110cd610100840182610fa4565b905060a0840151601f19808584030160c08601526110eb8383610fa4565b925060c08601519150808584030160e0860152506111098282610fa4565b95945050505050565b60006020828403121561112457600080fd5b610d8b82610d92565b60208082526028908201527f4f6e6c79206d616e7566616374757265722063616e2063616c6c207468697320604082015267333ab731ba34b7b760c11b606082015260800190565b634e487b7160e01b600052604160045260246000fd5b600181811c9082168061119f57607f821691505b6020821081036111bf57634e487b7160e01b600052602260045260246000fd5b50919050565b601f82111561120f57600081815260208120601f850160051c810160208610156111ec5750805b601f850160051c820191505b8181101561120b578281556001016111f8565b5050505b505050565b815167ffffffffffffffff81111561122e5761122e611175565b6112428161123c845461118b565b846111c5565b602080601f831160018114611277576000841561125f5750858301515b600019600386901b1c1916600185901b17855561120b565b600085815260208120601f198616915b828110156112a657888601518255948401946001909101908401611287565b50858210156112c45787850151600019600388901b60f8161c191681555b5050505050600190811b01905550565b6000600182016112f457634e487b7160e01b600052601160045260246000fd5b5060010190565b81835281816020850137506000828201602090810191909152601f909101601f19169091010190565b8981526001600160a01b0389811660208301528816604082015260c060608201819052600090611357908301888a6112fb565b828103608084015261136a8187896112fb565b905082810360a084015261137f8185876112fb565b9c9b505050505050505050505050565b634e487b7160e01b600052603260045260246000fdfea2646970667358221220229181af3de1fdb1a277222822bf0894e0abde32c9dc19d0438134f89dc6f50264736f6c63430008110033"
}