{
  "address": "0x8554e3BE931648e26d52DF45FD8078F867295b13",
  "abi": [
    {
      "inputs": [
        {
          "internalType": "address",
          "name": "_governance",
          "type": "address"
        }
      ],
      "stateMutability": "nonpayable",
      "type": "constructor"
    },
    {
      "anonymous": false,
      "inputs": [
        {
          "indexed": true,
          "internalType": "address",
          "name": "previousOwner",
          "type": "address"
        },
        {
          "indexed": true,
          "internalType": "address",
          "name": "newOwner",
          "type": "address"
        }
      ],
      "name": "OwnershipTransferred",
      "type": "event"
    },
    {
      "anonymous": false,
      "inputs": [
        {
          "indexed": true,
          "internalType": "address",
          "name": "factory",
          "type": "address"
        }
      ],
      "name": "RegistrarFactoryAdded",
      "type": "event"
    },
    {
      "anonymous": false,
      "inputs": [
        {
          "indexed": true,
          "internalType": "address",
          "name": "factory",
          "type": "address"
        }
      ],
      "name": "RegistrarFactoryRemoved",
      "type": "event"
    },
    {
      "anonymous": false,
      "inputs": [
        {
          "indexed": false,
          "internalType": "address",
          "name": "ers",
          "type": "address"
        }
      ],
      "name": "RegistryInitialized",
      "type": "event"
    },
    {
      "anonymous": false,
      "inputs": [
        {
          "indexed": true,
          "internalType": "address",
          "name": "tsmOwner",
          "type": "address"
        },
        {
          "indexed": false,
          "internalType": "bytes32",
          "name": "nameHash",
          "type": "bytes32"
        }
      ],
      "name": "TSMAllowed",
      "type": "event"
    },
    {
      "anonymous": false,
      "inputs": [
        {
          "indexed": true,
          "internalType": "address",
          "name": "tsmOwner",
          "type": "address"
        }
      ],
      "name": "TSMDisallowed",
      "type": "event"
    },
    {
      "anonymous": false,
      "inputs": [
        {
          "indexed": true,
          "internalType": "address",
          "name": "tsmRegistrar",
          "type": "address"
        },
        {
          "indexed": true,
          "internalType": "address",
          "name": "owner",
          "type": "address"
        },
        {
          "indexed": false,
          "internalType": "bytes32",
          "name": "rootNode",
          "type": "bytes32"
        }
      ],
      "name": "TSMRegistrarAdded",
      "type": "event"
    },
    {
      "anonymous": false,
      "inputs": [
        {
          "indexed": true,
          "internalType": "address",
          "name": "tsmRegistrar",
          "type": "address"
        },
        {
          "indexed": false,
          "internalType": "bytes32",
          "name": "subnode",
          "type": "bytes32"
        },
        {
          "indexed": false,
          "internalType": "bytes32",
          "name": "_nameHash",
          "type": "bytes32"
        }
      ],
      "name": "TSMRegistrarRevoked",
      "type": "event"
    },
    {
      "inputs": [],
      "name": "ROOT_NODE",
      "outputs": [
        {
          "internalType": "bytes32",
          "name": "",
          "type": "bytes32"
        }
      ],
      "stateMutability": "view",
      "type": "function"
    },
    {
      "inputs": [
        {
          "internalType": "address",
          "name": "_tsmOwner",
          "type": "address"
        },
        {
          "internalType": "bytes32",
          "name": "_nameHash",
          "type": "bytes32"
        }
      ],
      "name": "addAllowedTSM",
      "outputs": [],
      "stateMutability": "nonpayable",
      "type": "function"
    },
    {
      "inputs": [
        {
          "internalType": "contract ITSMRegistrarFactory",
          "name": "_factory",
          "type": "address"
        }
      ],
      "name": "addRegistrarFactory",
      "outputs": [],
      "stateMutability": "nonpayable",
      "type": "function"
    },
    {
      "inputs": [
        {
          "internalType": "contract ITSMRegistrarFactory",
          "name": "_factory",
          "type": "address"
        }
      ],
      "name": "createNewTSMRegistrar",
      "outputs": [
        {
          "internalType": "address",
          "name": "",
          "type": "address"
        }
      ],
      "stateMutability": "nonpayable",
      "type": "function"
    },
    {
      "inputs": [],
      "name": "ersRegistry",
      "outputs": [
        {
          "internalType": "contract IERS",
          "name": "",
          "type": "address"
        }
      ],
      "stateMutability": "view",
      "type": "function"
    },
    {
      "inputs": [],
      "name": "getTSMRegistrars",
      "outputs": [
        {
          "internalType": "address[]",
          "name": "",
          "type": "address[]"
        }
      ],
      "stateMutability": "view",
      "type": "function"
    },
    {
      "inputs": [
        {
          "internalType": "contract IERS",
          "name": "_ers",
          "type": "address"
        },
        {
          "internalType": "contract ITSMRegistrarFactory[]",
          "name": "_factories",
          "type": "address[]"
        }
      ],
      "name": "initialize",
      "outputs": [],
      "stateMutability": "nonpayable",
      "type": "function"
    },
    {
      "inputs": [],
      "name": "initialized",
      "outputs": [
        {
          "internalType": "bool",
          "name": "",
          "type": "bool"
        }
      ],
      "stateMutability": "view",
      "type": "function"
    },
    {
      "inputs": [
        {
          "internalType": "address",
          "name": "",
          "type": "address"
        }
      ],
      "name": "isTSMRegistrar",
      "outputs": [
        {
          "internalType": "bool",
          "name": "",
          "type": "bool"
        }
      ],
      "stateMutability": "view",
      "type": "function"
    },
    {
      "inputs": [],
      "name": "owner",
      "outputs": [
        {
          "internalType": "address",
          "name": "",
          "type": "address"
        }
      ],
      "stateMutability": "view",
      "type": "function"
    },
    {
      "inputs": [
        {
          "internalType": "address",
          "name": "",
          "type": "address"
        }
      ],
      "name": "pendingTSMs",
      "outputs": [
        {
          "internalType": "bytes32",
          "name": "",
          "type": "bytes32"
        }
      ],
      "stateMutability": "view",
      "type": "function"
    },
    {
      "inputs": [
        {
          "internalType": "contract ITSMRegistrarFactory",
          "name": "",
          "type": "address"
        }
      ],
      "name": "registrarFactories",
      "outputs": [
        {
          "internalType": "bool",
          "name": "",
          "type": "bool"
        }
      ],
      "stateMutability": "view",
      "type": "function"
    },
    {
      "inputs": [
        {
          "internalType": "address",
          "name": "_tsmOwner",
          "type": "address"
        }
      ],
      "name": "removeAllowedTSM",
      "outputs": [],
      "stateMutability": "nonpayable",
      "type": "function"
    },
    {
      "inputs": [
        {
          "internalType": "contract ITSMRegistrarFactory",
          "name": "_factory",
          "type": "address"
        }
      ],
      "name": "removeRegistrarFactory",
      "outputs": [],
      "stateMutability": "nonpayable",
      "type": "function"
    },
    {
      "inputs": [],
      "name": "renounceOwnership",
      "outputs": [],
      "stateMutability": "nonpayable",
      "type": "function"
    },
    {
      "inputs": [
        {
          "internalType": "address",
          "name": "_tsmRegistrar",
          "type": "address"
        },
        {
          "internalType": "bytes32",
          "name": "_nameHash",
          "type": "bytes32"
        }
      ],
      "name": "revokeTSMRegistrar",
      "outputs": [],
      "stateMutability": "nonpayable",
      "type": "function"
    },
    {
      "inputs": [
        {
          "internalType": "address",
          "name": "newOwner",
          "type": "address"
        }
      ],
      "name": "transferOwnership",
      "outputs": [],
      "stateMutability": "nonpayable",
      "type": "function"
    }
  ],
  "transactionHash": "0x9784a7e2256128303968a364ed12783e7000552034dc8704a096a6c6535d54a5",
  "args": [
    "0xa969B2687c5486491893a78dAfDE1A1617C2691a"
  ],
  "numDeployments": 2,
  "solcInputHash": "bb6fe39446f2961421663670160bba2b",
  "bytecode": "0x60806040523480156200001157600080fd5b506040516200158038038062001580833981016040819052620000349162000182565b6200003f3362000051565b6200004a81620000a1565b50620001b4565b600080546001600160a01b038381166001600160a01b0319831681178455604051919092169283917f8be0079c531659141344cd1fd0a4f28419497f9722a3daafe3b4186f6b6457e09190a35050565b620000ab62000124565b6001600160a01b038116620001165760405162461bcd60e51b815260206004820152602660248201527f4f776e61626c653a206e6577206f776e657220697320746865207a65726f206160448201526564647265737360d01b60648201526084015b60405180910390fd5b620001218162000051565b50565b6000546001600160a01b03163314620001805760405162461bcd60e51b815260206004820181905260248201527f4f776e61626c653a2063616c6c6572206973206e6f7420746865206f776e657260448201526064016200010d565b565b6000602082840312156200019557600080fd5b81516001600160a01b0381168114620001ad57600080fd5b9392505050565b6113bc80620001c46000396000f3fe608060405234801561001057600080fd5b506004361061010b5760003560e01c806385c48efd116100a2578063946d920411610071578063946d920414610244578063bdc163bb14610257578063cf2e76371461026c578063e9171f661461027f578063f2fde38b146102a257600080fd5b806385c48efd146101ea578063890171b81461020d5780638da5cb5b1461022057806394186d391461023157600080fd5b806329a41db2116100de57806329a41db21461018f5780634a9fe1c7146101ba578063591e85db146101cf578063715018a6146101e257600080fd5b8063158ef93e146101105780631b3312e8146101395780631efd89a21461016757806324215c0a1461017c575b600080fd5b60015461012490600160a01b900460ff1681565b60405190151581526020015b60405180910390f35b610159610147366004611197565b60036020526000908152604090205481565b604051908152602001610130565b61017a610175366004611197565b6102b5565b005b61017a61018a366004611197565b61035d565b6101a261019d366004611197565b61040a565b6040516001600160a01b039091168152602001610130565b61015960008051602061136783398151915281565b61017a6101dd3660046111bb565b61070f565b61017a610930565b6101246101f8366004611197565b60046020526000908152604090205460ff1681565b61017a61021b366004611197565b610944565b6000546001600160a01b03166101a2565b61017a61023f3660046111bb565b610958565b61017a6102523660046111e7565b610bf9565b61025f610d15565b604051610130919061126f565b6001546101a2906001600160a01b031681565b61012461028d366004611197565b60026020526000908152604090205460ff1681565b61017a6102b0366004611197565b610d77565b6102bd610ded565b6001600160a01b0381166000908152600360205260409020546103195760405162461bcd60e51b815260206004820152600f60248201526e1514d3481b9bdd08185b1b1bddd959608a1b60448201526064015b60405180910390fd5b6001600160a01b038116600081815260036020526040808220829055517f54dd4e6d9717e2037e2d7d392470a5d39115bfcddb79c747cc889cff1dcbceb09190a250565b610365610ded565b6001600160a01b03811660009081526002602052604090205460ff166103c15760405162461bcd60e51b8152602060048201526011602482015270119858dd1bdc9e481b9bdd081859191959607a1b6044820152606401610310565b6001600160a01b038116600081815260026020526040808220805460ff19169055517fe99b13a5e46faf0d7e10fdc6a73e3c4e51b19703670d9c70d0eb9b17e58b38979190a250565b6001600160a01b03811660009081526002602052604081205460ff166104875760405162461bcd60e51b815260206004820152602c60248201527f466163746f7279206d75737420626520617070726f7665642054534d5265676960448201526b7374726172466163746f727960a01b6064820152608401610310565b336000908152600360205260409020546104ef5760405162461bcd60e51b815260206004820152602360248201527f43616c6c6572206d75737420626520617070726f7665642054534d206164647260448201526265737360e81b6064820152608401610310565b33600081815260036020526040808220805490839055905163b03e451360e01b81526004810193909352916001600160a01b0385169063b03e4513906024016020604051808303816000875af115801561054d573d6000803e3d6000fd5b505050506040513d601f19601f8201168201806040525081019061057191906112bc565b600154604051630329904360e61b81526000805160206113678339815191526004820152602481018590526001600160a01b038084166044830181905260648301529293506000929091169063ca6410c0906084016020604051808303816000875af11580156105e5573d6000803e3d6000fd5b505050506040513d601f19601f8201168201806040525081019061060991906112d9565b604051639498bd7160e01b8152600481018290529091506001600160a01b03831690639498bd7190602401600060405180830381600087803b15801561064e57600080fd5b505af1158015610662573d6000803e3d6000fd5b5050506001600160a01b038316600081815260046020526040808220805460ff191660019081179091556005805491820181559092527f036b6384b5eca791c62761152d0c79bb0604c104a5fb6f4eb0703f3154bb3db090910180546001600160a01b03191683179055513392507f9a1b7720836733ccedd388ac92095b51caed1af6e2d4cad9bdadba71b94b3b8c906106ff9085815260200190565b60405180910390a3509392505050565b610717610ded565b6001600160a01b038216600090815260036020526040902054156107735760405162461bcd60e51b81526020600482015260136024820152721514d348185b1c9958591e48185b1b1bddd959606a1b6044820152606401610310565b806107b45760405162461bcd60e51b8152602060048201526011602482015270092dcecc2d8d2c840dcc2daca40d0c2e6d607b1b6044820152606401610310565b6001600160a01b03821661080a5760405162461bcd60e51b815260206004820152601960248201527f496e76616c69642054534d206f776e65722061646472657373000000000000006044820152606401610310565b600154604051636cefdc8560e11b81526000805160206113678339815191526004820152602481018390526000916001600160a01b03169063d9dfb90a90604401602060405180830381865afa158015610868573d6000803e3d6000fd5b505050506040513d601f19601f8201168201806040525081019061088c91906112bc565b6001600160a01b0316146108d75760405162461bcd60e51b81526020600482015260126024820152712730b6b29030b63932b0b23c903a30b5b2b760711b6044820152606401610310565b6001600160a01b03821660008181526003602052604090819020839055517f21a3e68d6443a7c260244f9cc3f6a319e5e62b59faa69ae7c08b1c58c3abd619906109249084815260200190565b60405180910390a25050565b610938610ded565b6109426000610e47565b565b61094c610ded565b61095581610e97565b50565b610960610ded565b6001600160a01b03821660009081526004602052604090205460ff166109bd5760405162461bcd60e51b81526020600482015260126024820152712737ba1030902a29a6a932b3b4b9ba3930b960711b6044820152606401610310565b600154604051639ccda3a760e01b81526000805160206113678339815191526004820152602481018390526000916001600160a01b031690639ccda3a790604401602060405180830381865afa158015610a1b573d6000803e3d6000fd5b505050506040513d601f19601f82011682018060405250810190610a3f91906112d9565b90506000836001600160a01b031663faff50a86040518163ffffffff1660e01b8152600401602060405180830381865afa158015610a81573d6000803e3d6000fd5b505050506040513d601f19601f82011682018060405250810190610aa591906112d9565b9050808214610b125760405162461bcd60e51b815260206004820152603360248201527f506173736564207375626e6f646520646f6573206e6f74206d6174636820526560448201527267697374726172277320726f6f74206e6f646560681b6064820152608401610310565b60015460405163098cd9d360e01b81526000805160206113678339815191526004820152602481018590526001600160a01b039091169063098cd9d390604401600060405180830381600087803b158015610b6c57600080fd5b505af1158015610b80573d6000803e3d6000fd5b5050506001600160a01b0385166000908152600460205260409020805460ff1916905550610baf600585610f9a565b60408051838152602081018590526001600160a01b038616917fc1f2aa73fe8c90e069b76a2ad829d817b5884c8929a370a31aca23c7dd93446a910160405180910390a250505050565b610c01610ded565b600154600160a01b900460ff1615610c5b5760405162461bcd60e51b815260206004820152601c60248201527f436f6e747261637420616c726561647920696e697469616c697a6564000000006044820152606401610310565b600180546001600160a01b0319166001600160a01b03851617905560005b81811015610cc057610cb0838383818110610c9657610c966112f2565b9050602002016020810190610cab9190611197565b610e97565b610cb98161131e565b9050610c79565b506001805460ff60a01b1916600160a01b1790556040516001600160a01b03841681527f43dcf2166be267d8f6dc31580b9b1a605fddb5259a48dddd50b0348ac38fb24e9060200160405180910390a1505050565b60606005805480602002602001604051908101604052809291908181526020018280548015610d6d57602002820191906000526020600020905b81546001600160a01b03168152600190910190602001808311610d4f575b5050505050905090565b610d7f610ded565b6001600160a01b038116610de45760405162461bcd60e51b815260206004820152602660248201527f4f776e61626c653a206e6577206f776e657220697320746865207a65726f206160448201526564647265737360d01b6064820152608401610310565b61095581610e47565b6000546001600160a01b031633146109425760405162461bcd60e51b815260206004820181905260248201527f4f776e61626c653a2063616c6c6572206973206e6f7420746865206f776e65726044820152606401610310565b600080546001600160a01b038381166001600160a01b0319831681178455604051919092169283917f8be0079c531659141344cd1fd0a4f28419497f9722a3daafe3b4186f6b6457e09190a35050565b6001600160a01b03811660009081526002602052604090205460ff1615610ef85760405162461bcd60e51b8152602060048201526015602482015274119858dd1bdc9e48185b1c9958591e481859191959605a1b6044820152606401610310565b6001600160a01b038116610f4e5760405162461bcd60e51b815260206004820152601760248201527f496e76616c696420666163746f727920616464726573730000000000000000006044820152606401610310565b6001600160a01b038116600081815260026020526040808220805460ff19166001179055517f0a7bac61b6491f191558c76e008d44376b804917b89743de3e06e70d8410e2959190a250565b60008061100084805480602002602001604051908101604052809291908181526020018280548015610ff557602002820191906000526020600020905b81546001600160a01b03168152600190910190602001808311610fd7575b50505050508461110d565b91509150806110495760405162461bcd60e51b815260206004820152601560248201527420b2323932b9b9903737ba1034b71030b93930bc9760591b6044820152606401610310565b835460009061105a90600190611337565b90508083146110d457848181548110611075576110756112f2565b9060005260206000200160009054906101000a90046001600160a01b03168584815481106110a5576110a56112f2565b9060005260206000200160006101000a8154816001600160a01b0302191690836001600160a01b031602179055505b848054806110e4576110e4611350565b600082815260209020810160001990810180546001600160a01b03191690550190555050505050565b81516000908190815b8181101561116f57846001600160a01b031686828151811061113a5761113a6112f2565b60200260200101516001600160a01b03160361115d5792506001915061117b9050565b806111678161131e565b915050611116565b50600019600092509250505b9250929050565b6001600160a01b038116811461095557600080fd5b6000602082840312156111a957600080fd5b81356111b481611182565b9392505050565b600080604083850312156111ce57600080fd5b82356111d981611182565b946020939093013593505050565b6000806000604084860312156111fc57600080fd5b833561120781611182565b9250602084013567ffffffffffffffff8082111561122457600080fd5b818601915086601f83011261123857600080fd5b81358181111561124757600080fd5b8760208260051b850101111561125c57600080fd5b6020830194508093505050509250925092565b6020808252825182820181905260009190848201906040850190845b818110156112b05783516001600160a01b03168352928401929184019160010161128b565b50909695505050505050565b6000602082840312156112ce57600080fd5b81516111b481611182565b6000602082840312156112eb57600080fd5b5051919050565b634e487b7160e01b600052603260045260246000fd5b634e487b7160e01b600052601160045260246000fd5b60006001820161133057611330611308565b5060010190565b8181038181111561134a5761134a611308565b92915050565b634e487b7160e01b600052603160045260246000fdfeda53397877d78746657194546b25f20b5c2e580045028a6fa27f07cf94e704baa2646970667358221220673929cbc6a94aea231a1facf6ebe3efe4bade4c07901175b71fe9a08472a91064736f6c63430008110033"
}