{
  "address": "0x22A05faFD78274E981Fdde5d422d2824F3Dc39A8",
  "abi": [
    {
      "inputs": [
        {
          "internalType": "contract IChipRegistry",
          "name": "_chipRegistry",
          "type": "address"
        },
        {
          "internalType": "contract IERS",
          "name": "_ers",
          "type": "address"
        },
        {
          "internalType": "contract ITSMRegistry",
          "name": "_tsmRegistry",
          "type": "address"
        }
      ],
      "stateMutability": "nonpayable",
      "type": "constructor"
    },
    {
      "anonymous": false,
      "inputs": [
        {
          "indexed": true,
          "internalType": "address",
          "name": "tsmRegistrar",
          "type": "address"
        },
        {
          "indexed": true,
          "internalType": "address",
          "name": "owner",
          "type": "address"
        }
      ],
      "name": "TSMRegistrarDeployed",
      "type": "event"
    },
    {
      "inputs": [],
      "name": "chipRegistry",
      "outputs": [
        {
          "internalType": "contract IChipRegistry",
          "name": "",
          "type": "address"
        }
      ],
      "stateMutability": "view",
      "type": "function"
    },
    {
      "inputs": [
        {
          "internalType": "address",
          "name": "_owner",
          "type": "address"
        }
      ],
      "name": "deployRegistrar",
      "outputs": [
        {
          "internalType": "address",
          "name": "",
          "type": "address"
        }
      ],
      "stateMutability": "nonpayable",
      "type": "function"
    },
    {
      "inputs": [],
      "name": "ers",
      "outputs": [
        {
          "internalType": "contract IERS",
          "name": "",
          "type": "address"
        }
      ],
      "stateMutability": "view",
      "type": "function"
    },
    {
      "inputs": [],
      "name": "tsmRegistry",
      "outputs": [
        {
          "internalType": "contract ITSMRegistry",
          "name": "",
          "type": "address"
        }
      ],
      "stateMutability": "view",
      "type": "function"
    }
  ],
  "transactionHash": "0x934cadd047ad846e76d163c07b12147c18e13d7768a1849cd012bd153980169f",
  "args": [
    "0x7C3b3756e01fF450e56bfCcde521A58522666323",
    "0x4e1Ce5AbB20892405020b29de0c13AA20190C205",
    "0x8554e3BE931648e26d52DF45FD8078F867295b13"
  ],
  "numDeployments": 2,
  "solcInputHash": "bb6fe39446f2961421663670160bba2b",
  "bytecode": "0x60e060405234801561001057600080fd5b5060405161111f38038061111f83398101604081905261002f91610064565b6001600160a01b0392831660805290821660a0521660c0526100b1565b6001600160a01b038116811461006157600080fd5b50565b60008060006060848603121561007957600080fd5b83516100848161004c565b60208501519093506100958161004c565b60408501519092506100a68161004c565b809150509250925092565b60805160a05160c0516110276100f86000396000818160990152818160fd01526101b501526000818160c001526101940152600081816056015261017301526110276000f3fe608060405234801561001057600080fd5b506004361061004c5760003560e01c806311e6575b1461005157806348aeaa11146100945780637ac9d738146100bb578063b03e4513146100e2575b600080fd5b6100787f000000000000000000000000000000000000000000000000000000000000000081565b6040516001600160a01b03909116815260200160405180910390f35b6100787f000000000000000000000000000000000000000000000000000000000000000081565b6100787f000000000000000000000000000000000000000000000000000000000000000081565b6100786100f036600461027a565b6000336001600160a01b037f0000000000000000000000000000000000000000000000000000000000000000161461016e5760405162461bcd60e51b815260206004820152601a60248201527f43616c6c6572206d7573742062652054534d5265676973747279000000000000604482015260640160405180910390fd5b6000827f00000000000000000000000000000000000000000000000000000000000000007f00000000000000000000000000000000000000000000000000000000000000007f00000000000000000000000000000000000000000000000000000000000000006040516101e09061026d565b6001600160a01b039485168152928416602084015290831660408301529091166060820152608001604051809103906000f080158015610224573d6000803e3d6000fd5b509050826001600160a01b0316816001600160a01b03167fb5f3fa67635c0a949d8e003ab8d4382d82080b6289f6d05557928988436642ef60405160405180910390a392915050565b610d47806102ab83390190565b60006020828403121561028c57600080fd5b81356001600160a01b03811681146102a357600080fd5b939250505056fe60e06040523480156200001157600080fd5b5060405162000d4738038062000d478339810160408190526200003491620001b4565b6200003f336200006d565b6001600160a01b0380841660805282811660a052811660c0526200006384620000bd565b505050506200021c565b600080546001600160a01b038381166001600160a01b0319831681178455604051919092169283917f8be0079c531659141344cd1fd0a4f28419497f9722a3daafe3b4186f6b6457e09190a35050565b620000c762000140565b6001600160a01b038116620001325760405162461bcd60e51b815260206004820152602660248201527f4f776e61626c653a206e6577206f776e657220697320746865207a65726f206160448201526564647265737360d01b60648201526084015b60405180910390fd5b6200013d816200006d565b50565b6000546001600160a01b031633146200019c5760405162461bcd60e51b815260206004820181905260248201527f4f776e61626c653a2063616c6c6572206973206e6f7420746865206f776e6572604482015260640162000129565b565b6001600160a01b03811681146200013d57600080fd5b60008060008060808587031215620001cb57600080fd5b8451620001d8816200019e565b6020860151909450620001eb816200019e565b6040860151909350620001fe816200019e565b606086015190925062000211816200019e565b939692955090935050565b60805160a05160c051610ae76200026060003960008181610139015261024b01526000818161016a015261050a01526000818160ee01526106330152610ae76000f3fe608060405234801561001057600080fd5b50600436106100b45760003560e01c80638da5cb5b116100715780638da5cb5b1461018c5780639498bd711461019d578063dcc60128146101b0578063ec4939d1146101c5578063f2fde38b146101d8578063faff50a8146101eb57600080fd5b8063107046bd146100b957806311e6575b146100e9578063158ef93e1461011057806348aeaa1114610134578063715018a61461015b5780637ac9d73814610165575b600080fd5b6100cc6100c7366004610826565b610202565b6040516001600160a01b0390911681526020015b60405180910390f35b6100cc7f000000000000000000000000000000000000000000000000000000000000000081565b60005461012490600160a01b900460ff1681565b60405190151581526020016100e0565b6100cc7f000000000000000000000000000000000000000000000000000000000000000081565b61016361022c565b005b6100cc7f000000000000000000000000000000000000000000000000000000000000000081565b6000546001600160a01b03166100cc565b6101636101ab366004610826565b610240565b6101b861036c565b6040516100e0919061083f565b6101636101d33660046108ea565b6103ce565b6101636101e63660046109a7565b610703565b6101f460015481565b6040519081526020016100e0565b6002818154811061021257600080fd5b6000918252602090912001546001600160a01b0316905081565b61023461077c565b61023e60006107d6565b565b336001600160a01b037f000000000000000000000000000000000000000000000000000000000000000016146102bd5760405162461bcd60e51b815260206004820152601a60248201527f43616c6c6572206d7573742062652054534d526567697374727900000000000060448201526064015b60405180910390fd5b600054600160a01b900460ff16156103175760405162461bcd60e51b815260206004820152601c60248201527f436f6e747261637420616c726561647920696e697469616c697a65640000000060448201526064016102b4565b60018190556000805460ff60a01b1916600160a01b1790556040517fa9161ba05fc38fbc84f29ec8bb9d98ca7025005e651bcdfb8b0541691e019616906103619083815260200190565b60405180910390a150565b606060028054806020026020016040519081016040528092919081815260200182805480156103c457602002820191906000526020600020905b81546001600160a01b031681526001909101906020018083116103a6575b5050505050905090565b6103d661077c565b866104195760405162461bcd60e51b8152602060048201526013602482015272125b9d985b1a59081b595c9adb19481c9bdbdd606a1b60448201526064016102b4565b6001600160a01b03861661046f5760405162461bcd60e51b815260206004820152601a60248201527f496e76616c69642070726f6a656374207075626c6963206b657900000000000060448201526064016102b4565b6001600160a01b0388166104cf5760405162461bcd60e51b815260206004820152602160248201527f496e76616c69642070726f6a65637420726567697374726172206164647265736044820152607360f81b60648201526084016102b4565b600154604051630329904360e61b81526004810191909152602481018a90526001600160a01b038981166044830181905260648301526000917f00000000000000000000000000000000000000000000000000000000000000009091169063ca6410c0906084016020604051808303816000875af1158015610555573d6000803e3d6000fd5b505050506040513d601f19601f8201168201806040525081019061057991906109cb565b60405163d20ab1d760e01b8152600481018290529091506001600160a01b038a169063d20ab1d790602401600060405180830381600087803b1580156105be57600080fd5b505af11580156105d2573d6000803e3d6000fd5b5050600280546001810182556000919091527f405787fa12a823e0f2b7631cc41b3ba8828b3321ca811111fa75cd3aa3bb5ace0180546001600160a01b0319166001600160a01b038d81169190911790915560405163d6de1f4f60e01b81527f0000000000000000000000000000000000000000000000000000000000000000909116925063d6de1f4f915061067a908c908b908b908e908c908c908c908c90600401610a0d565b600060405180830381600087803b15801561069457600080fd5b505af11580156106a8573d6000803e3d6000fd5b50505050886001600160a01b03167f036814a7d3edd9293d5a26d9d4cba2b7c2e7c2bc48e633eee0462b3f502cb9ac828a8a8a88886040516106ef96959493929190610a6b565b60405180910390a250505050505050505050565b61070b61077c565b6001600160a01b0381166107705760405162461bcd60e51b815260206004820152602660248201527f4f776e61626c653a206e6577206f776e657220697320746865207a65726f206160448201526564647265737360d01b60648201526084016102b4565b610779816107d6565b50565b6000546001600160a01b0316331461023e5760405162461bcd60e51b815260206004820181905260248201527f4f776e61626c653a2063616c6c6572206973206e6f7420746865206f776e657260448201526064016102b4565b600080546001600160a01b038381166001600160a01b0319831681178455604051919092169283917f8be0079c531659141344cd1fd0a4f28419497f9722a3daafe3b4186f6b6457e09190a35050565b60006020828403121561083857600080fd5b5035919050565b6020808252825182820181905260009190848201906040850190845b818110156108805783516001600160a01b03168352928401929184019160010161085b565b50909695505050505050565b6001600160a01b038116811461077957600080fd5b60008083601f8401126108b357600080fd5b50813567ffffffffffffffff8111156108cb57600080fd5b6020830191508360208285010111156108e357600080fd5b9250929050565b600080600080600080600080600060e08a8c03121561090857600080fd5b8935985060208a013561091a8161088c565b975060408a0135965060608a01356109318161088c565b955060808a01356109418161088c565b945060a08a013567ffffffffffffffff8082111561095e57600080fd5b61096a8d838e016108a1565b909650945060c08c013591508082111561098357600080fd5b506109908c828d016108a1565b915080935050809150509295985092959850929598565b6000602082840312156109b957600080fd5b81356109c48161088c565b9392505050565b6000602082840312156109dd57600080fd5b5051919050565b81835281816020850137506000828201602090810191909152601f909101601f19169091010190565b6001600160a01b0389811682528881166020830152871660408201526060810186905260c060808201819052600090610a4990830186886109e4565b82810360a0840152610a5c8185876109e4565b9b9a5050505050505050505050565b868152602081018690526001600160a01b0385811660408301528416606082015260a060808201819052600090610aa590830184866109e4565b9897505050505050505056fea2646970667358221220c86ae9737c23e421c808e78ac665c9099bd24e70a6d5e7b19db6bec23e88c19364736f6c63430008110033a2646970667358221220e4a6e1a564b1a53c65160e0c6a70149659f33dfe72cc5f5e82f84faecb8383c264736f6c63430008110033"
}